:100000003CC2000067C2000065C2000063C200007D
:1000100061C200005FC200005DC200005BC2000060
:1000200059C2000057C200000C940A5353C200008A
:1000300051C200004FC200000C948B534BC2000011
:1000400049C2000047C200000C949E4C43C200000D
:100050000C94B54B3FC200003DC200003BC2000003
:1000600039C2000037C2000035C2000033C20000B0
:1000700031C200002FC200000C94584C2BC200006B
:1000800029C2000027C2000025C2000053454C458C
:10009000435420504147453A002020202000535728
:1000A00049544348204B495400474E00000000008B
:1000B000474E00534E0001474E004E530002474E3C
:1000C00000494D0003545200424400105452005362
:1000D000440011545200585400125452004350002E
:1000E00013545200525300145452005253001554EA
:1000F0005200434800165452004F48001754520013
:10010000435900185452004D410019545200434CB9
:10011000001A5452005843001B5452004232001C33
:10012000464D0042440020464D0053440021464DB8
:100130000058540022464D0043500023464D0052C3
:10014000530024464D0043420025464D00484800D8
:1001500026464D00435900274532004244003045B1
:1001600032005344003145320048540032453200D9
:100170004C54003345320043500034453200525352
:1001800000354532004342003645320043480037CF
:100190004532004F4800384532005243003945325D
:1001A000004343003A4532004252003B453200547E
:1001B00041003C4532005452003D45320053480056
:1001C0003E4532004243003F504900424400405007
:1001D0004900534400415049004D540042504900E9
:1001E0004D4C00435049004D41004450490052538A
:1001F00000455049005243004650490043430047E0
:1002000050490048480048494E0047410050494E77
:100210000047420051494E0046410052494E0046B7
:10022000420053494E0045410054494E00454200AA
:10023000554D4900303100604D4900303200614D6C
:100240004900303300624D4900303400634D4900AD
:10025000303500644D4900303600654D4900303777
:1002600000664D4900303800674D4900303900685C
:100270004D4900313000694D49003131006A4D4926
:10028000003132006B4D49003133006C4D49003173
:1002900034006D4D49003135006E4D490031360056
:1002A0006F435400414C0070435400385000714378
:1002B00054005245007843540047420079435400AB
:1002C0004551007A4354004458007B524F0030316E
:1002D0000080524F0030320081524F003033008294
:1002E000524F0030340083524F0030350084524F5B
:1002F0000030360085524F0030370086524F0030B4
:10030000380087524F0030390088524F003130009A
:1003100089524F003131008A524F003132008B52E6
:100320004F003133008C524F003134008D524F005A
:100330003135008E524F003136008F524F00313729
:100340000090524F0031380091524F0031390092E5
:10035000524F0032300093524F0032310094524FCE
:100360000032320095524F0032330096524F003225
:10037000340097524F0032350098524F0032360009
:1003800099524F003237009A524F003238009B5238
:100390004F003239009C524F003330009D524F00C5
:1003A0003331009E524F003332009F524100523190
:1003B00000A0524100523200A1524100503100A22F
:1003C000524100503200A3524100523300A5524125
:1003D00000523400A6524100503300A75241005051
:1003E0003400A8524F00333300B0524F0033340072
:1003F000B1524F00333500B2524F00333600B35282
:100400004F00333700B4524F00333800B5524F001D
:10041000333900B6524F00343000B7524F003431F8
:1004200000B8524F00343200B9524F00343300BA92
:10043000524F00343400BB524F00343500BC524F91
:1004400000343600BD524F00343700BE524F0034E6
:100450003800BF00FA078B0A860B2F0F351641189C
:10046000AE213C2439309031EB313B33FC44DE4645
:1004700086494D4A524CD652D15211241FBECFEF5D
:10048000D0E1DEBFCDBFB89AC09885B7806885BF80
:1004900016E0A0E0B1E0EAE5F3ED02C005900D92B0
:1004A000A439B107D9F714EFA0E0B0E201C01D9262
:1004B000A234B107E1F714E0C8E7D4E004C0229702
:1004C000FE010E949D69C435D107C9F70E94966359
:1004D0000C94A16995CDEF92FF920F93DF93CF9388
:1004E000CDB7DEB760970FB6F894DEBF0FBECDBFB5
:1004F000A82F002309F461C07E010894E11CF11CBF
:1005000088E0F70111928A95E9F729833A834B83B2
:100510005C836D837E83AF83988780E2801BE82FA6
:10052000FF27E7FDF0954D815E816F817885181674
:1005300084F01D861E861F86188A882799278E1BA1
:100540009F0B04C076956795579547958A95D2F786
:1005500028C0202F332727FD3095DB01CA01022E4A
:1005600004C0B695A795979587950A94D2F78D877D
:100570009E87AF87B88B04C0440F551F661F771F37
:10058000EA95D2F789819A81AB81BC8104C0B69586
:10059000A795979587952A95D2F7482B592B6A2BC3
:1005A0007B2B49875A876B877C8729853A854B85C2
:1005B0005C856D857E85AF8598898A2F60960FB69C
:1005C000F894DEBF0FBECDBFCF91DF910F91FF90AA
:1005D000EF900895EF92FF920F93DF93CF93CDB7F3
:1005E000DEB760970FB6F894DEBF0FBECDBFA82F61
:1005F000002309F461C07E010894E11CF11C88E02D
:10060000F70111928A95E9F729833A834B835C833A
:100610006D837E83AF83988780E2801BE82FFF275E
:10062000E7FDF09549815A816B817C81181684F031
:1006300019861A861B861C86882799278E1B9F0B76
:1006400004C0440F551F661F771F8A95D2F728C034
:10065000202F332727FD3095DB01CA01022E04C06D
:10066000880F991FAA1FBB1F0A94D2F789879A8700
:10067000AB87BC8704C07695679557954795EA95F3
:10068000D2F78D819E81AF81B88504C0880F991FF4
:10069000AA1FBB1F2A95D2F7482B592B6A2B7B2BFD
:1006A0004D875E876F87788B29853A854B855C857A
:1006B0006D857E85AF8598898A2F60960FB6F894F0
:1006C000DEBF0FBECDBFCF91DF910F91FF90EF90B6
:1006D0000895FB01DC0102C001900D924150504091
:1006E000D8F70895DC0101C06D9341505040E0F708
:1006F0000895FC018191861721F08823D9F7992765
:1007000008953197CF010895FB01DC018D9101908F
:1007100080190110D9F3990B0895FB01DC014150B8
:10072000504030F08D910190801919F40020B9F7F4
:10073000881B990B0895FB01DC014150504048F0A3
:1007400001900D920020C9F701C01D924150504008
:10075000E0F70895FC0181E090E00190061609F4AD
:10076000CF010020D1F701970895DF92EF92FF9219
:100770000F931F93D72E7A018C01FA010995C801B6
:1007800001966D2DF70109951F910F91FF90EF9044
:10079000DF900895FC017387628757834683118A2F
:1007A000108A108211821586148617861686158285
:1007B0000895FC011282118284E080830895FC0177
:1007C00010AA0895FCCF0895A0E0B0E0EAEEF3E0AF
:1007D0000C946A69EC014B016A0159018AE0E82E28
:1007E000F12CEC0EFD1E00E010E0C701800F911F00
:1007F000E9DF0F5C1F4F81E007351807B1F7CE0125
:100800008E599E4FB601A501C5DFC358DE4FC99270
:10081000D992B982A8826E9781E08883C156D1406F
:1008200098868F82C458DE4F8FEF8883CC57D14093
:10083000CE01BFDFCDB7DEB7ECE00C948669EF9256
:10084000FF921F93CF93DF93EC017B0110E042C036
:10085000412F50E0CA01880F991F840F951FFC019A
:10086000EE0FFF1FEC0FFD1F24813581DC01119677
:1008700020FF16C0C901959587950190F081E02D64
:10088000E80FF91FAA0FBB1FAC0FBD1F0190F0812D
:10089000E02D8D919C91E80FF91FA081B18107C0D7
:1008A000AA0FBB1FAC0FBD1F0D90BC91A02DFA016C
:1008B000EE0FFF1FE40FF51FEE0FFF1FEC0FFD1FE4
:1008C0003595279580819181820F931FB701FD0196
:1008D00009951F5F88A9181708F4BACFDF91CF9147
:1008E0001F91FF90EF900895A0E0B0E0EAE7F4E0F8
:1008F0000C946E69EC01162F683F40F06E3F09F0D2
:10090000A9C0EF81F88512861186A4C082E6E82E80
:1009100081E0F82EEC0EFD1E01E6C02E01E0D02E87
:10092000CC0EDD1E01E0F6018081882309F492C01F
:100930008881823009F456C0833030F48823E1F096
:10094000813009F087C07DC0833039F0843009F0F0
:1009500081C017FF7FC01882E6CF17FF09C0173F7D
:1009600021F01882C701D8D4DECFC70124D572C0C8
:10097000C701612F65D56EC0103F39F483E08883CD
:10098000C70195D41A82198265C017FF03C0198365
:100990001A8205C08981882309F45CC00A83998181
:1009A000903F08F4907F20E009C0891731F48181DD
:1009B000888389818C830B830BC02F5FE22FF0E04B
:1009C000EE0FFF1FE456FC4F8081882371F790E003
:1009D0002987992311F484E03CC08A81882309F097
:1009E000A2CF38C018828B81FE01E80FF11D14835D
:1009F0008F5F8B83E985F0E0EE0FFF1FE456FC4F1D
:100A00008081803921F48E81882309F419869985A3
:100A1000973060F481E3989FC00111240A96BE01CB
:100A20006C5F7F4F8C0F9D1F0ADF09C08981823F59
:100A300031F4BE016C5F7F4F80E090E2C1D218823A
:100A400009C08B81FE01E80FF11D14838F5F8B833A
:100A500082E08883CDB7DEB7E8E00C948A691C9801
:100A600008951C9A0895DC01ED91FC910280F381B8
:100A7000E02D09950895DC01ED91FC910480F5814C
:100A8000E02D09950895FC0111AA80E197E291A358
:100A900080A315A214A284A195A197A386A3148272
:100AA000158216821782108211821282138280812F
:100AB0009181A281B38180879187A287B387148AAD
:100AC000158A168A178A84899589A689B7898487A1
:100AD0009587A687B787108E118E128E138E808D04
:100AE000918DA28DB38D808B918BA28BB38B158E44
:100AF000858D848F88EC90E094A783A710AA089531
:100B00006817790720F09B01281B390B05C09C0151
:100B100020953095260F371FC9010895CF93DF9395
:100B2000EC018FA5882321F08AE59EE26AEFA3DF1E
:100B3000CE01A9DF81E089ABDF91CF910895FC015F
:100B400011AA87A5882321F08AE59EE26CEF93CF56
:100B50000895CF93DF93EC018FA5882321F08AE5D8
:100B60009EE26BEF88DF81E089AB80E197E299A399
:100B700088A31DA21CA28CA19DA19FA38EA318AA2D
:100B8000DF91CF910895CF93DF93EC018AA9813053
:100B900059F4CE0178DF82E089AB8FA5882321F05C
:100BA0008AE59EE26AEF67DFDF91CF910895FC014D
:100BB00082A9813041F411AA87A5882321F08AE512
:100BC0009EE26CEF58CF0895FF920F931F938C0114
:100BD000FFB6F894FC0176A765A79B0140E050E0C2
:100BE0006AE572E682E090E00E9427692051304079
:100BF000F801378F268FFFBE1F910F91FF90089548
:100C0000A0E0B0E0E6E0F6E00C946A69EC0189A5AA
:100C1000882309F04BC089A9823009F047C02FB75B
:100C2000F8948E8C9F8C6EA17FA18CA19DA12FBF6B
:100C300067DFBC018038910510F460E870E088A996
:100C4000882319F481E088AB20C0ABA4BCA480E069
:100C500090E020E031E02A193B0940E050E00E949A
:100C6000D5687B018C01CC24DD24940140E050E068
:100C7000C601B5010E94D568E60EF71E081F191FB0
:100C8000EF2CF02E012F1127B70180E56030780797
:100C900018F06FEF7FE405C06038710510F460E86C
:100CA00070E08FB7F8947F8F6E8F8FBFCDB7DEB7B0
:100CB000ECE00C948669FC0181A98130B1F582A930
:100CC000813019F081A5882381F182E081AB0895FC
:100CD00080859185A285B3850196A11DB11D808770
:100CE0009187A287B387848D8F5F848F848D8630B0
:100CF00069F4148E80899189A289B3890196A11D16
:100D0000B11D808B918BA28BB38B03C0848D8330FC
:100D100079F484859585A685B7850196A11DB11DB9
:100D200084879587A687B787089581A9823081F245
:100D30000895FC0110AA0895FCCF08950F931F9306
:100D40008C01C396F9DFC8018C599F4FF5DFC801AC
:100D50008B569F4FF1DFC80196DEF80112AAC80139
:100D600068E770E031DFF80117A611A61F910F9117
:100D70000895CF92DF92EF92FF921F93CF93DF936C
:100D8000EC016A017B0110E043C0412F50E0CA0131
:100D9000880F991F840F951FFC01EE0FFF1FEC0FAA
:100DA000FD1F24813581DC01119620FF16C0C90189
:100DB000959587950190F081E02DE80FF91FAA0F16
:100DC000BB1FAC0FBD1F0190F081E02D8D919C9158
:100DD000E80FF91FA081B18107C0AA0FBB1FAC0F9C
:100DE000BD1F0D90BC91A02DFA01EE0FFF1FE40F67
:100DF000F51FEE0FFF1FEC0FFD1F35952795808126
:100E00009181820F931FB701A601FD0109951F5F14
:100E100088A9181708F4B9CFDF91CF911F91FF90DF
:100E2000EF90DF90CF900895CF93DF93EC0189A9E5
:100E30008230B9F588899989AA89BB8983709070B5
:100E4000A070B0700097A105B10511F408DE01C0D3
:100E500008DE8091C720882321F581E08093C72098
:100E600078948C8D882381F4488959896A897B8993
:100E7000CE018B569F4F7DDF4C855D856E857F85CE
:100E8000CE018C599F4F75DF8C8D833041F44C859A
:100E90005D856E857F85CE018C599F4F6ADF1092EC
:100EA000C720DF91CF910895CF92DF92EF92FF920A
:100EB0001F93DF93CF9300D00F92CDB7DEB77C01A5
:100EC0006B01FC0187A58823E1F0DE011196E4EBBC
:100ED000F3E083E001900D928150E1F78C2D8F7744
:100EE0008A83C601880F892F881F990B91958F7768
:100EF0008B838AE59EE2BE016F5F7F4F43E050E047
:100F0000B2DD1FB7F8949601220F331FC9018C0D73
:100F10009D1D880F991FA0E0B0E0F70180839183A9
:100F2000A283B38380819181A281B38180879187DD
:100F3000A287B38780859185A285B38584839583B5
:100F4000A683B78340E050E0248B358B468B578BCC
:100F500084899589A689B78984879587A687B78765
:100F6000C601A0E0B0E0808F918FA28FB38F808DFB
:100F7000918DA28DB38D808B918BA28BB38B408989
:100F8000518962897389C7018B569F4FF2DEF70141
:100F90004485558566857785C7018C599F4FE9DE65
:100FA000F701158E858D848F1FBF0F900F900F90C6
:100FB000CF91DF911F91FF90EF90DF90CF90089538
:100FC000DC01FB01D2968C91D2978250823088F45A
:100FD000628170E06F7770707695762F66277795CF
:100FE0006795818190E08F779070682B792BCD0188
:100FF0005BCF089580E090E2A1CEEF92FF920F9335
:101000001F93CF93DF93EC0189A5882309F083C058
:1010100088A199A1892B09F079C08E8D9F8D99A304
:1010200088A378948091C620882309F074C081E059
:101030008093C620CE013FDE89A9823009F06BC0C3
:101040008FA5882319F1288539854A855B858C8190
:101050009D81AE81BF817901E81AF90A00E010E0B4
:1010600012C08AE59EE268EF0E94834A8C819D81CE
:10107000AE81BF810196A11DB11D8C839D83AE837E
:10108000BF830F5F1F4F0E151F055CF38AA98250A7
:101090008230B8F5288539854A855B8588819981B4
:1010A000AA81BB81281739074A075B0780F028858A
:1010B00039854A855B8588819981AA81BB810196A2
:1010C000A11DB11D82179307A407B507D0F488812D
:1010D0009981AA81BB8188879987AA87BB878C89D8
:1010E0009D89AE89BF898C879D87AE87BF87888D94
:1010F000998DAA8DBB8D888B998BAA8BBB8B8D8D7F
:101100008C8FCE0191DE1092C62005C088A199A1D6
:10111000019799A388A3CDB7DEB7E6E00C948C695C
:10112000CF93DF93EC018C8D8FA5882329F08AE57E
:101130009EE268EF0E94834ACE01BDDDCE0174DEDF
:10114000DF91CF910895FC0181A5882311F0CF0193
:10115000E7CF80A191A193A382A320915222309145
:10116000532286A197A195A384A337A326A381A97F
:10117000813029F411A210A282E081AB2CC08081C1
:101180009181A281B3810196A11DB11D80839183BC
:10119000A283B383858D8F5F858F858D863069F4BB
:1011A000158E808D918DA28DB38D0196A11DB11DDF
:1011B000808F918FA28FB38F03C0858D833059F4B8
:1011C00084899589A689B7890196A11DB11D848B53
:1011D000958BA68BB78B82A982508230C8F520856B
:1011E00031854285538580819181A281B381281701
:1011F00039074A075B07A0F481E082A722A133A147
:10120000369527953695279580A191A128173907FE
:10121000F8F480A191A1821B930B91A380A3089560
:1012200012A6268D378D82A193A18217930780F491
:10123000868D978D22A133A140A151A1821B930BD2
:101240009695879596958795840F951F91A380A372
:101250000895FC0187EC93E0918380837683658316
:1012600012821382148208950895089508950895AE
:10127000FC016115710549F4828593859587848702
:10128000868197819787868704C07587648757878B
:10129000468711821186108608950F931F938C0143
:1012A000E7DF81E0F80181831F910F910895FC0130
:1012B000118A108A1082118211861086158212827C
:1012C0001382148260E070E040E050E0E6CFFC0161
:1012D000DB0161157105E9F012969C9112979F3F11
:1012E000B1F085813281882379F0391791F49381A7
:1012F00013968C911397981761F420E094811496BB
:101300008C91981739F403C020E0391719F421E0C3
:1013100001C020E0822F0895A0E0B0E0E2E9F9E00A
:101320000C946E697C0181E0F7018083870188E07D
:10133000C82ED12CCE0CDF1CF801C289D389C7017D
:10134000BE01C5DF882339F0E881F9810280F3818D
:10135000E02DCE0109950E5F1F4F0C151D0561F79D
:10136000CDB7DEB7E8E00C948A69A0E0B0E0EBEB23
:10137000F9E00C946E697C018C0198E0C92ED12CA7
:10138000CE0CDF1CF801C289D389C701BE019FDFE3
:10139000882339F0E881F9810190F081E02DCE01B8
:1013A00009950E5F1F4F0C151D0561F7CDB7DEB710
:1013B000E8E00C948A69A0E0B0E0E1EEF9E00C947A
:1013C0006E697C018C0128E0C22ED12CC80ED91E7A
:1013D000F801C289D389C701BE0179DF882339F0BA
:1013E000E881F9810480F581E02DCE0109950E5F39
:1013F0001F4F0C151D0561F7CDB7DEB7E8E00C9463
:101400008A69DC0118962D913C9119971E968D9151
:101410009C911F972817390788F41C96ED91FC9131
:101420001D97309759F0E20FF31F60832F5F3F4FF6
:1014300019963C932E93189781E0089580E00895C3
:10144000A0E0B0E0E6E2FAE00C946D69EC01B62EA3
:101450008881882309F047C088899989892B49F4B4
:101460006A83662319F481E08D8303C01D82CE0157
:101470007CDF8D81882361F088899989813091058D
:1014800011F4BB8205C0029719F4BC82CE016DDF56
:101490007E0138E0C32ED12CCC0EDD1ED701529632
:1014A0000D911C915397CE01B80111DF882349F0AB
:1014B000D801ED91FC910680F781E02DC8016B2DDC
:1014C0000995E2E0F0E0EE0EFF1EEC14FD0431F7AA
:1014D000888999890196998B888B8981882319F04D
:1014E000CE016B2D8EDFCDB7DEB7E9E00C948969B4
:1014F0000F931F938C0160E070E0ABDE8BEB93E009
:10150000F80191838083128283E1838381E4848361
:101510001F910F91089588EC90E2EACFDC011596B7
:10152000ED91FC91169780899189039721F465309C
:1015300011F40C94BE5308951F93CF93DF93EC01E5
:10154000162F603F50F0E881F981683F10F41A824D
:1015500015C00680F781E02D14C08C81882361F0CE
:101560008A81861739F0E881F9810480F581E02DC0
:10157000CE0109951A8308C0E881F9810480F581BC
:10158000E02DCE01612F0995DF91CF911F91089534
:10159000FC016115710511F41386089581E08387BC
:1015A00016821582708767830895EF92FF920F93DA
:1015B0001F93CF93DF938C017B01EA010CC0D7010D
:1015C0006D917D01D801ED91FC910480F581E02DB4
:1015D000C80109952197209791F7CDB7DEB7E6E0CE
:1015E0000C948C69FC01E05BFF4F60830895FC0163
:1015F000178208950F931F938C0160E070E029DE3D
:1016000083ED93E0F80191838083128280E28383EB
:101610008CE38483108615861F910F910895FC0139
:10162000809134ED909135ED039731F4662319F4F0
:1016300081E08783089517820895FC0187818823BC
:1016400009F449C0A0912EEDB0912FED15968C9123
:101650001597833181F1843118F48131E1F505C0AA
:10166000853171F18731B9F531C08585813099F5C2
:1016700017968C91179790E09695982F88279795B5
:10168000879516962C91169730E0822B932B928794
:10169000818719968C91199790E09695982F8827B5
:1016A0009795879518962C9130E0822B932B9487F1
:1016B000838782E009C08585833069F484E004C0B3
:1016C0008585853041F486E0858708958585873056
:1016D00011F488E085870895AC012FE030E061E0E7
:1016E00070E0CB01022E02C0880F991F0A94E2F726
:1016F00084239523892B11F0822F089521503040A7
:101700008FEF2F3F380769F780E008958FEC90E264
:1017100071CFA0E0B0E0EFE8FBE00C946D69EC0164
:10172000B62E6A010E94471C7C010E94471C8C0156
:101730000E94595388E091E20E941A14C701B8012F
:101740000E94501C8C159D0518F48D858B1569F72A
:1017500090E08D858B1509F491E0892FCDB7DEB728
:10176000E9E00C948969FF920F931F93F82E0AE524
:101770001EE2C80169E773E046E050E016DFC801E9
:101780006F2D0E942C4B1F910F91FF9008950F9386
:101790001F930AE51EE2C80165E50E942C4BC801B3
:1017A00065E50E942C4BC80165E50E942C4BC801E1
:1017B00065E50E942C4BC80160E00E942C4BC801DB
:1017C00060E00E942C4BC80160E00E942C4BC801D5
:1017D00060E00E942C4B1F910F910895EF92FF92B1
:1017E0000F931F93F62EE42E23E0FC01258782E160
:1017F000BADF0AE51EE2C8016F2D0E942C4BC8011A
:101800006E2D0E942C4BC80167EF0E942C4B1F913C
:101810000F91FF90EF90089521E0FC01258780E172
:10182000A2DF8AE59EE267EF0C942C4BE62FDC01E9
:1018300018966C93F0E0EE0FFF1FEE0FFF1FE75BB3
:10184000FC4F40815181628173818AE59EE20C9454
:10185000C54AFC0187E08587CF01E8DF86E183DFA9
:101860008AE59EE267EF0C942C4B1F93FC0185E008
:101870008587CF01DBDF10E08AE59EE26CE00E9405
:101880002C4B1F5F1031C1F784E16DDF80DF8AE5EB
:101890009EE267EF0E942C4B1F9108950F931F93B8
:1018A0008C0160E0C3DFF80115861F910F91089548
:1018B000A0E0B0E0EEE5FCE00C946F69EC011A8664
:1018C00019861C861B868AE59EE242E15AE760E0A3
:1018D00070E00E94C54ACE019FDFCE0162E048EB76
:1018E0005BE017DF182F58E0E52E51E2F52EC70117
:1018F00061E078DE112309F444C08DB79EB70897E4
:101900000FB6F8949EBF0FBE8DBFEDB7FEB73196F0
:10191000ADB7BEB71296FC92EE92119780E091E0BF
:101920009383828389859A85958384838B859C851F
:101930009783868337D7EDB7FEB738960FB6F894FE
:10194000FEBF0FBEEDBF89859A858F709070C4DE93
:10195000082F0F5F8B859C858F709070BDDED82E11
:10196000D394CE01602F4D2D39DFCE0164E048EBDA
:101970005BE0CFDE182FC70161E034DE112361F494
:101980003AC000D000D0ADB7BEB71296FC92EE922E
:1019900011978AE091E085C0EDB7FEB738970FB692
:1019A000F894FEBF0FBEEDBF3196ADB7BEB712962D
:1019B000FC92EE92119786E191E0938382830483F7
:1019C0001582D6821782EED6EDB7FEB738960FB6DF
:1019D000F894FEBF0FBEEDBFCE01602F46DFCE01F3
:1019E00066E048EB5BE095DE182FC70161E0FADDA9
:1019F000112361F429C000D000D0ADB7BEB7129654
:101A0000FC92EE92119780E291E04BC000D000D0A2
:101A1000EDB7FEB7F282E1828CE291E0948383839A
:101A2000C1D60F900F900F900F90CE016D2D11DF4A
:101A3000CE0168E048EB5BE06CDE182FC70161E087
:101A4000D1DD112321F10BC000D000D0ADB7BEB75E
:101A50001296FC92EE92119786E391E022C000D09C
:101A600000D0EDB7FEB7F282E18284E491E0948386
:101A7000838398D60F900F900F900F908AE59EE287
:101A800062E870E085DD89E08D8781E016C000D0D6
:101A900000D0ADB7BEB71296FC92EE9211978EE4CD
:101AA00091E014969C938E9313977CD60F900F9091
:101AB0000F900F90CE01F2DE80E0CDB7DEB7E7E009
:101AC0000C948B699C012A5F3F4FC9010895FC016A
:101AD000848195810895FC01828193810895A0E01D
:101AE000B0E0E5E7FDE00C946A69EC015B016A0196
:101AF000982E8D2EE881F9810280F381E02DB901C5
:101B00000995FD86EC86AC14BD042CF4B88AAF862A
:101B1000DA8AC98A04C0D88ACF86BA8AA98AE881B3
:101B2000F9810684F785E02D892D982DB80140E0D4
:101B30000995CDB7DEB7ECE00C948669CF93DF93BF
:101B4000EC012C813D818A819B812817390731F076
:101B5000EC85FD85309711F0CE0109958C819D8132
:101B60009B838A83DF91CF910895CF93DF93EC011C
:101B7000442349F07D836C83E881F9810680F781F5
:101B8000E02D099504C07D836C837B836A8381E0AB
:101B90008E87DF91CF910895FC0140E0228133814F
:101BA000848195812817390709F041E0842F089531
:101BB000FC0113821282158214820895FC01DB015C
:101BC000448155812C918385882319F060E070E071
:101BD0000DC0828511966C91882329F085E06802FA
:101BE000B001112403C0772767FD7095332727FDC7
:101BF0003095240F351F260F371F35832483C901E5
:101C00000895FC01A081B1811A962D913C911B97FA
:101C1000F9010995882311F480E208958B3110F4BD
:101C2000805C08958B5E0895DC01862F81548A3193
:101C300038F4ED91FC91119770E0605470400AC047
:101C4000862F8053ED91FC9111978A3040F470E01B
:101C5000655170400684F785E02DCD0106C00684ED
:101C6000F785E02DCD0160E070E040E00995089532
:101C7000A3E0B0E0EEE3FEE00C9472698C01603109
:101C800000F547FD1EC027FD1CC0FE01319683E014
:101C9000DF011D928A95E9F7606B69834A832B8384
:101CA000C80182599F4FBF010E941F04D801ED91C6
:101CB000FC910088F189E02DC80169814A812B815E
:101CC00009952396E4E00C948E69FF920F931F937D
:101CD0008C01F62EDC01ED91FC910284F385E02D60
:101CE0000995AC0188E091E26F2DBFD1F80116860D
:101CF0001F910F91FF900895CF93DF93EC01FB01AB
:101D000090818B85882319F060E070E00CC08A8593
:101D10006181882329F085E06802B001112403C0A5
:101D2000772767FD7095892F992787FD9095680F14
:101D3000791F4F85588929893A898C819D810E9414
:101D4000541C8C839D83DF91CF910895CF93DF93B3
:101D5000EC016115710529F0069644E050E00E94FF
:101D6000E01B1986DF91CF910895EF92FF920F93B8
:101D70001F938C017A0185EF93E0F80191838083B2
:101D800013821282158214821686C801DFDFF801E1
:101D9000F586E48681E0828713861F910F91FF907C
:101DA000EF9008956F927F928F929F92AF92BF9221
:101DB000CF92DF92EF92FF920F931F936C014B0132
:101DC0003A015901B901A701D0DF8FED93E0F60187
:101DD00091838083C601B401A301950180DE1F9128
:101DE0000F91FF90EF90DF90CF90BF90AF909F90BA
:101DF0008F907F906F900895CF92DF92EF92FF9235
:101E00000F931F936C0160E070E045E250E020E02A
:101E100030E000E010E0EE24FF24C4DF8BE094E02B
:101E2000F601918380831F910F91FF90EF90DF90D7
:101E3000CF900895FC0110821182128A0895FC014E
:101E40002FB7F894818130812FBF20E090E0019678
:101E500087709070381709F421E0822F08958DED76
:101E600090E2E8CF0F931F93CF93DF93EC018B01A8
:101E7000E6DF882329F08A898F5F8A8B80E013C090
:101E8000898190E00196880F991F8C0F9D1FB801E2
:101E900042E050E00E94921A898190E0019687709A
:101EA0009070898381E0DF91CF911F910F91089508
:101EB000A2E0B0E0EEE5FFE00C946D6900E31EE205
:101EC000FF24BB24B3946E010894C11CD11C32E0E2
:101ED000E32EFA82F801808181FF07C080FD05C0F2
:101EE000B9828DED90E2B601BDDFF801808181FD00
:101EF00007C080FF05C0E9828DED90E2B601B2DF38
:101F0000F3940B5F1F4FF8E0FF1619F72296E9E0F4
:101F10000C94896980E00895DC0157966C9357977B
:101F2000662321F081E056968C935697ED91FC91B3
:101F300011970680F781E02DCD0109950895089548
:101F400080E008950F931F93CF93DF93EC018B01F3
:101F5000E881F9810280F381E02D0995DC01009789
:101F600059F0ED91FC910684F785E02DB8010995B3
:101F7000882311F081E008C0E881F9810084F185AF
:101F8000E02DCE01B8010995DF91CF911F910F91FE
:101F9000089508950895089508950895FC0166230D
:101FA00021F0868991E08927868B089580E090E072
:101FB0000895FB01DA0110821C920895FC01E35997
:101FC000FF4FA081B181109719F420E030E009C0E3
:101FD000ED91FC9111970280F381E02DCD010995DF
:101FE0009C01C90108958A3010F4805D0895895AD2
:101FF00008950F931F93FC018A01E05BFF4F8081DE
:10200000E055F04090E027E230E0AC01429FC00193
:10201000439F900D529F900D1124E80FF91F81E00E
:10202000828BE60FF11DC80168EE73E00E9414690F
:1020300064E670E00E941469605D6283C80164E632
:1020400070E00E9414696AE070E00E941469605DAB
:102050006383C8016AE070E00E941469805D848334
:1020600080E285831F910F910895660F660FC1CF9F
:10207000FF920F931F93CF93DF938C01F42E005B9D
:102080001F4FF80180810055104090E027E230E0BA
:10209000AC01429FC001439F900D529F900D1124AF
:1020A000080F191F81E0F801828BC62FD0E08F2D19
:1020B00082958F7098DFC00FD11F8A838F2D8F700C
:1020C00092DF8B83CDB7DEB7E5E00C948D691F936B
:1020D000AC0120E030E0DC01A05BBF4F67E270E0C4
:1020E00010E28C9190E0869FF001879FF00D969F03
:1020F000F00D1124E40FF51FE20FF31F12832F5F81
:102100003F4F2031310569F78C9190E027E230E0B4
:10211000829FF001839FF00D929FF00D1124E40F38
:10212000F51F81E0828B1F9108951F93AC0120E081
:1021300030E0DC01A05BBF4F67E270E010E28C9101
:1021400090E0869FF001879FF00D969FF00D11247F
:10215000E40FF51FE20FF31F138B2F5F3F4F20316A
:10216000310569F71F910895FC01118281818083F7
:102170000895FC01108211820895FC0185E494E029
:1021800081939193CF01F5CFEF92FF920F931F931D
:102190008C017B01F2DF87E294E0F8019183808378
:1021A000F58AE48A168A178A1F910F91FF90EF90A3
:1021B0000895FC0184E090E091878087118210826D
:1021C0001382128215821482178216820895DC010E
:1021D00088E090E051969C938E93509780E090E039
:1021E000FD01E80FF91F11821082029680319105DE
:1021F000B9F70895FC019FB7F894208181819FBFB2
:1022000090E0281709F491E0892F0895FC0190814E
:10221000818120E0981709F421E0822F0895FC01C4
:1022200091818081891720F420818181285F02C0FB
:1022300020818181281B822F0895F1DF90E0873073
:1022400009F491E0892F08950F931F93CF93DF93A3
:10225000EC018B01DBDF882311F080E01EC001154B
:102260001105D1F08881882319F467E070E004C07B
:1022700088818150682F70E08981680F711D6770B7
:1022800070E06F5F7F4F660F771F6C0F7D1FC80177
:1022900042E050E00E94921A81E0DF91CF911F91BD
:1022A0000F910895A2E0B0E0E8E5F1E10C947469C3
:1022B0001A8219820296BE016F5F7F4FC5DF898146
:1022C0009A812296E2E00C9490690F931F93CF932A
:1022D000DF93EC018B018EDF882311F080E014C0C6
:1022E000688170E06F5F7F4F660F771F6C0F7D1FF7
:1022F000C80142E050E00E94921A888190E0019665
:1023000087709070888381E0DF91CF911F910F914A
:1023100008950F931F93CF93DF93EC018B018DDF13
:10232000882331F0898190E00196877090708983CD
:1023300088812981280F30E0277030702F5F3F4F50
:10234000220F331FCE01820F931FB80142E050E0ED
:102350000E94921A888190E001968770907088831D
:1023600081E0DF91CF911F910F910895A2E0B0E03D
:10237000ECEBF1E10C9474697A836983BE016F5FC1
:102380007F4FC7DF2296E2E00C949069EF92FF92B4
:102390000F931F938C01FA0170E0B0E5EB2EF12C46
:1023A000E80EF91ED7018C9127E2829FC00111240B
:1023B000860F971F029640E150E0461B570B800F97
:1023C000911FBF010E94FA1BF701808190E027E274
:1023D00030E0829FF001839FF00D929FF00D112459
:1023E000E00FF11F81E0828B1F910F91FF90EF9022
:1023F0000895660F660FCACFEF92FF920F931F9357
:102400008C01FA0170E080E5E82EF12CE00EF11E5F
:10241000D7018C9127E2829FC0011124860F971F5C
:10242000029640E150E0461B570B800F911FBF0101
:102430000E94E01BF701808190E027E230E0829F5C
:10244000F001839FF00D929FF00D1124E00FF11F1A
:1024500081E0828B1F910F91FF90EF900895AB0167
:1024600060E0CACFEF92FF920F931F938C01FA01A5
:1024700070E090E5E92EF12CE00EF11ED7018C9171
:1024800027E2829FC0011124860F971F02964EE01B
:1024900050E0461B570B800F911FBF010E94D11BBC
:1024A000F701808190E027E230E0829FF001839F76
:1024B000F00D929FF00D1124E00FF11F81E0828B4F
:1024C0001F910F91FF90EF900895EF92FF920F935D
:1024D0001F938C01FA0170E020E5E22EF12CE80E4A
:1024E000F91ED7018C9127E2829FC0011124860F2B
:1024F000971F029640E150E0461B570B800F911F3B
:10250000BF010E94D11BF701808190E027E230E0FB
:10251000829FF001839FF00D929FF00D1124E00F38
:10252000F11F81E0828B1F910F91FF90EF90089532
:10253000660F660FCACFCF92DF92EF92FF920F9392
:102540001F936C01DC01A05BBF4F8C9190E037E2E0
:10255000E32EF12C8E9DF0018F9DF00D9E9DF00DD0
:102560001124EC0DFD1D81E084A383A38C9190E0E8
:1025700001968E9DF0018F9DF00D9E9DF00D112412
:10258000EC0DFD1D718360830C9110E00E94471CCF
:102590000E9DF0010F9DF00D1E9DF00D1124EC0D10
:1025A000FD1D96A385A31F910F91FF90EF90DF90E3
:1025B000CF900895EF92FF920F931F938C01FA0131
:1025C000790170E0005B1F4FD8018C9100551040DD
:1025D00027E2829FC0011124860F971F439640E196
:1025E00050E0461B570B800F911FBF010E940A1C31
:1025F000C801B701A0DF1F910F91FF90EF900895E0
:10260000FB019A0160E0AF01D5CFEF92FF920F93EB
:102610001F938C01FA01790170E0005B1F4FD80114
:102620008C910055104027E2829FC0011124860F33
:10263000971F439640E150E0461B570B800F911FB8
:10264000BF010E94E01BC801B70175DF1F910F9108
:10265000FF90EF900895FB019A0160E0AF01D5CFA4
:10266000AF92BF92CF92DF92EF92FF920F931F93A0
:102670008C017B015A01690160E00E94F20AC801E5
:10268000B701A601E8DFC80161E00E94F20AC801B3
:10269000B501A601E0DF1F910F91FF90EF90DF9051
:1026A000CF90BF90AF900895EF92FF920F931F933A
:1026B0008C01FA01790170E0005B1F4FD8018C9109
:1026C0000055104027E2829FC0011124860F971FFA
:1026D000439640E150E0461B570B800F911FBF010E
:1026E0000E94D11BC801B70126DF1F910F91FF90F7
:1026F000EF900895FB019A0160E0AF01D5CF8F9272
:102700009F92AF92BF92CF92DF92EF92FF920F9380
:102710001F937C01C62E5A01490140E550E0E40EAA
:10272000F51EF701008140EB5FEFE40EF51E10E0AF
:10273000DD248B2D82958F7056DC27E230E0F80186
:10274000E29F8001E39F100DF29F100D11240E0DEA
:102750001F1D0C0D1D1DF801838B8B2D8F7043DC0D
:10276000F801848BC50144E0969587954A95E1F779
:102770008F7039DCF801858B8A2D8F7034DCF8017D
:10278000868BC701B401D7DE1F910F91FF90EF90A8
:10279000DF90CF90BF90AF909F908F900895660F7D
:1027A000660FADCFA1E1B0E0E8EDF3E10C94726902
:1027B000FE017C968E010F5F1F4FC80161E170E042
:1027C0004A8D5B8D9F01BFD6888D998DB80148E5F4
:1027D00052E090DF6196E4E00C948E690F931F93B2
:1027E000CF93DF93EC010E94471C8C018C819D816B
:1027F000B8010E94501C2A813B812817390718F024
:102800008E81882351F0E881F9810190F081E02DDB
:10281000CE0109951D830C831E82DF91CF911F91FC
:102820000F910895662319F0613019F401C043C275
:102830004DC20895A0E0B0E0E0E2F4E10C946969D3
:102840007C018DE690E0E80EF91EF701A081B181D0
:1028500083E99FEFE80EF91E109791F0ED91FC913E
:1028600011970280F381E02DCD010995EC010097CD
:1028700039F0E881F9810480F581E02D09951F8AFE
:1028800087010E5E1F4FCC24DD2467E2862E912C3B
:1028900050E2A52E77247394BC2CF80182898823FA
:1028A00099F1F5D7BC01F80183899489F9D7F8012A
:1028B000258936892817390710F47082128AF801A1
:1028C0008189882309F1C89CE001C99CD00DD89C5E
:1028D000D00D11246396CE0DDF1DFE0120E030E007
:1028E0008081882309F4A0822F5F3F4F31962031E9
:1028F0003105B1F788E59EE26B2D94DF88E59EE215
:10290000BE01BBD1F801118AF8018081882321F131
:102910008289882309F5C89CE001C99CD00DD89C08
:10292000D00D11242296CE0DDF1DFE0120E030E0F7
:102930008081882309F4A0822F5F3F4F3196203198
:102940003105B1F788E59EE26B2D6CDF88E59EE2EC
:10295000BE0193D1F80110820894C11CD11C095DFD
:102960001F4FF2E0CF16D10409F096CF88E091E234
:1029700060E00E94F20A88E091E2D7DB88E091E211
:1029800061E00E94F20A88E091E2CFDBCDB7DEB7CA
:10299000EDE00C948569A2E0B0E0E1EDF4E10C9487
:1029A00066697C01BBE5CB2ED12CC80ED91E00E098
:1029B00010E0ABE6AA2EB12CA80EB91E0CC0D601B1
:1029C0008D919C91009709F009DF0F5F1F4FE2E0A6
:1029D000F0E0CE0EDF1ED5018D919C9108171907EE
:1029E00074F32AC08DED90E2B5016FDC620100E066
:1029F00010E00DC0D601ED91FC91309711F0C501AA
:102A000009950F5F1F4FE2E0F0E0CE0EDF1ED3010D
:102A10008D919C91081719076CF3F401A081B18185
:102A20001097E9F0ED91FC9111970190F081E02D64
:102A3000CD01B501099513C05E010894A11CB11C1C
:102A4000F1E54F2E512C4E0C5F1CE9E56E2E712CDA
:102A50006E0C7F1C7DE6872E912C8E0C9F1C8DEDBD
:102A600090E2C8DB882309F4BDCF8DE690E0E80E44
:102A7000F91EF701A081B18183E99FEFE80EF91EED
:102A80001097D1F0ED91FC9111970280F381E02D28
:102A9000CD0109958C01009779F0DC01ED91FC9155
:102AA0000190F081E02D0995D801ED91FC91028013
:102AB000F381E02DC8010995EDE6F0E0EE0EFF1E72
:102AC000F701A081B18183E99FEFE80EF91E10970D
:102AD00041F0ED91FC9111970284F385E02DCD0139
:102AE00009950E94F44CC701A5DEADE6B0E0EA0E00
:102AF000FB1EF701A081B181109789F0ED91FC9147
:102B000011970280F381E02DCD010995DC0100973A
:102B100031F0ED91FC910680F781E02D0995229628
:102B2000E0E10C9482690F931F93CF93DF938C01A4
:102B3000EB01DC01ED91FC910280F381E02D099520
:102B4000C817D907D9F0198F088F8A8D882349F4BF
:102B5000E881F9810088F189E02DCE01099581E0B5
:102B60008A8FCE01E4D3E881F9810284F385E02DD8
:102B7000CE010995C8010296BE01F8DBDF91CF9125
:102B80001F910F910895EF92FF920F931F938C0165
:102B90007B010296E9DAC801B701C5DF1F910F91E9
:102BA000FF90EF900895FC01E359FF4F80819181E0
:102BB000009709F0E8CF08950F931F93CF93DF9309
:102BC000EC018B01C359DF4FA881B981CD56D040AC
:102BD000109741F0ED91FC9111970088F189E02D5B
:102BE000CD010995C359DF4F19830883CD56D040D5
:102BF0000115110541F0D801ED91FC910684F7858E
:102C0000E02DC8010995CE01D9D9892B19F0CE0143
:102C1000D5D98DD3DF91CF911F910F910895CF9387
:102C2000DF93EC0181E294E099838883CE018F5A8F
:102C30009F4FBFDACE01855A9F4FC9DAC05BDF4F85
:102C40001882C055D040FE0180E090E2928391A7A7
:102C50008F5F31968031D1F71A8A19AECE0160EFBD
:102C600070E2AADFDF91CF91089580EF90E26CE5EA
:102C700071E08ADA88E091E2D2CFEF92FF921F935F
:102C8000CF93DF937C01EB0110E06881662369F04C
:102C9000103159F01F5FD701ED91FC910680F7814B
:102CA000E02DC70109952196F0CFDF91CF911F91BB
:102CB000FF90EF900895FC01A081B18114962D91B1
:102CC0003C91159760E8F90109950895FC01A081F0
:102CD000B18114962D913C91159760ECF9010995FD
:102CE0000895DC01ED91FC911197662329F0048091
:102CF000F581E02D6FE004C00480F581E02D6CE0EB
:102D000009950895DC01ED91FC916295660F660FBF
:102D1000607C640F60680480F581E02D099508955A
:102D2000EF92FF920F931F93CF93DF938C017A0161
:102D3000DC01ED91FC916770660F660F660F6064B1
:102D40000480F581E02D0995C0E0D0E0D801ED9137
:102D5000FC91D701AC0FBD1F0680F781E02DC801A3
:102D60006C9109952196C830D10581F7CDB7DEB7B2
:102D7000E6E00C948C6908950895089508950895E7
:102D800008950F931F93FC01748F638F568F458FA7
:102D900030A3278F12A301A31F910F910895AF9223
:102DA000BF92DF92EF92FF920F931F93CF93DF9327
:102DB000FC01DB0140E050E001E010E0BC01615C9F
:102DC0007F4FDD24D39481E4A82EB12CAE0EBF1E1C
:102DD000EE24EA94FE2C8C9180FF18C011968C9101
:102DE000119790E08417950789F4C801042E02C05A
:102DF000880F991F0A94E2F7EB0128813981822319
:102E00009323892B19F056AF45AFD3AE8C9181FF38
:102E100018C011968C91119790E08417950789F44A
:102E2000C801042E02C0880F991F0A94E2F7E50139
:102E30002881398182239323892B19F0F6AEE5AEE0
:102E4000D3AE4F5F5F4F4830510529F681E0DF91E7
:102E5000CF911F910F91FF90EF90DF90BF90AF90B7
:102E60000895FC01362F242F6381432F0C94380ED4
:102E7000CF93DF93EC018F898823A1F088E091E262
:102E800060E00E94F20A6B9688E091E2BE01E7DA08
:102E900088E091E261E00E94F20A609688E091E2A7
:102EA000BE01DDDADF91CF910895CF93DF93EC017E
:102EB0008F89882311F041E008C0C75BDF4F88810C
:102EC000C954D040882301F140E08AE59EE260E0E9
:102ED000C8DFC75BDF4F8AE59EE261E04881C1DF62
:102EE00088E091E260E00E94F20AA69788E091E211
:102EF000BE01B5DA88E091E261E00E94F20A6096D4
:102F000088E091E2BE01ABDADF91CF910895FC0138
:102F10006115710521F0029641E150E042C4128230
:102F20000895FC016115710521F0439644E050E0DD
:102F300038C4138A0895EF92FF920F931F938C0168
:102F40007A018FE894E0F80191838083118E108ECE
:102F5000178AC801DCDFC801B701E3DFF801128E70
:102F60001F910F91FF90EF9008950F931F938C0185
:102F700060E070E040E050E0DEDF8DE494E0F801D6
:102F80009183808313AE16AE15AE138E13A61F91D8
:102F90000F9108958F929F92AF92BF92CF92DF923E
:102FA000EF92FF920F931F937C016B015A0149012D
:102FB00060E070E040E050E0BEDF89E794E0F701B8
:102FC00091838083C701B601A5019401DADE1F91C8
:102FD0000F91FF90EF90DF90CF90BF90AF909F90B8
:102FE0008F900895CF92DF92EF92FF920F931F93ED
:102FF0007C0160E070E040E050E020E030E000E084
:1030000010E0C8DF83E694E0F70191838083FAE45F
:10301000CF2ED12CCE0CDF1CC6010E94FC0E8701E6
:10302000035A1F4FC8010E94FC0EC80143960E941C
:10303000FC0EC80186960E94FC0E84E490E0E80E27
:10304000F91EF70111927F01118210828BEB9FEF25
:10305000E80EF91EF70113A2D48EC38E168F058FCA
:10306000C70180599F4F90A3878FC7018D579F4FEE
:1030700092A381A31F910F91FF90EF90DF90CF90CB
:10308000089587E791E271DF8AEB91E2ABCFA0E090
:10309000B0E0EDE4F8E10C946C697C0177FF03C0CB
:1030A00060E070E005C06D30710514F06CE070E018
:1030B0008701095B1F4FD8016D937C93C0E0D0E07E
:1030C000A3E1AA2EB12C6801CA9DC001CB9D900D31
:1030D000DA9D900D1124865B9F4FF701EC0FFD1FC9
:1030E000D6012D913C91E20FF31F8E0D9F1D63A918
:1030F0000E94140E2196C430D10531F788E59EE276
:1031000061E0F8014081FEDDCDB7DEB7EAE00C9466
:1031100088690F931F93CF93DF93EC018B01FB0121
:10312000808180FF0DC08181853051F4C95BDF4F04
:1031300068817981C754D04064507040CE01A7DFC8
:10314000F801808180FF0DC08181863051F4C95B18
:10315000DF4F68817981C754D0406C5F7F4FCE01CB
:1031600096DFF801808180FF0BC08181843041F4BB
:10317000CC5BDF4F81E0899319821882C554D0401F
:10318000F801808180FF0BC08181873041F4CC5BE6
:10319000DF4F81E0899381E090E09983888381E02B
:1031A000DF91CF911F910F9108950F931F9308E521
:1031B0001EE2FC01E95BFF4FC80161E04081A2DD36
:1031C000C80160E08EDD80E49CE90197F1F71F9172
:1031D0000F910895EF92FF920F931F938C0160E07F
:1031E00070E055DFB8E5EB2EBEE2FB2EC70161E0D3
:1031F00078DD095B1F4FC70161E0F801408182DD86
:103200001F910F91FF90EF9008950F931F93CF930D
:10321000DF93EC0173D08E01075B1F4FF8018081B3
:10322000882369F088E59EE261E05BDDC95BDF4FE2
:1032300088E59EE261E0488165DDF8011082DF915A
:10324000CF911F910F910895A0E0B0E0EAE2F9E17B
:103250000C9465696C013AE4A32EB12CA80EB91E3A
:10326000EE24FF2423E1422E512C97E4692E712C89
:103270006C0C7D1C89E4882E912C8C0C9D1C3324B5
:103280003394E49CE001E59CD00DF49CD00D112416
:10329000C65BDF4FCC0DDD1DD501ED91FC910084A7
:1032A000F185E02DCE0109958823A1F08AE59EE203
:1032B00062E04E2DD6DDF301008111810E0D1F1D40
:1032C000CE010E94010E0C0D1D1DD801D3968C93CA
:1032D000F40130820894E11CF11C83E190E0A80E17
:1032E000B91E94E0E916F10461F6CDB7DEB7E1E16D
:1032F0000C948169089580E0089508951F93CF93F9
:10330000DF93EC0110E0AB8DBC8D109741F0ED9197
:10331000FC9111970680F781E02DCD0109951F5F83
:103320002296143081F7DF91CF911F910895EF928B
:10333000FF920F931F938C0168E0E62E61E2F62E58
:10334000C70160E00E94F20AC7010E946710C7012E
:1033500061E00E94F20AC7010E94671081E0F80153
:10336000878B1F910F91FF90EF9008950F931F93FC
:10337000CF93DF93182F092F88E091E260E00E943D
:10338000F20A212F302FC901EC0110E0AB8DBC8D6A
:10339000109771F0ED91FC9111970190F081E02D63
:1033A000CD010995AC0188E091E2612FC1D806C03A
:1033B00088E091E2612F49E950E01BD81F5F229617
:1033C000143021F7DF91CF911F910F910895A0E064
:1033D000B0E0EDEEF9E10C946E697C01DC015796EA
:1033E0008C91882311F0C701C1DF88E091E261E090
:1033F0000E94F20A8701C0E0D0E0DC2ECD2EF80159
:10340000A38DB48D109739F1ED91FC911197008443
:10341000F185E02DCD010995882369F4D7015796F0
:103420008C91882341F4D8015B96ED91FC915C97D7
:103430008685882381F0D8015B96ED91FC915C979D
:10344000A081B18150962D913C915197CF016D2D66
:103450007C2DF901099521960E5F1F4FC430D105CF
:1034600061F6CDB7DEB7E8E00C948A691F93CF937D
:10347000DF93EC0110E08B8D9C8D009711F00E9482
:10348000D80D1F5F22961430B1F7DF91CF911F91B5
:103490000895A8E0B0E0EFE4FAE10C946E69E82E3C
:1034A000D92EFFB6F8948E010F5F1F4FC80168E256
:1034B0007EE248E050E036D082E29EE20E94A848D8
:1034C000FFBE2E2D3D2DC9017C0139E0C32ED12C2C
:1034D000CC0EDD1EF701A38DB48D109749F0ED9150
:1034E000FC9111970480F581E02DCD01B80109957B
:1034F00082E090E0E80EF91E0E5F1F4F0C151D05CF
:1035000049F72896E8E00C948A69AC0120E030E0A5
:10351000FA01E20FF31F80812F5F3F4F8823C1F72D
:10352000C9010895DC01FB0104C081918D934150D4
:10353000504041155105C9F708958A3010F4805D57
:103540000895895A08952F923F924F925F927F92E9
:103550008F929F92AF92BF92CF92DF92EF92FF92A3
:103560000F931F93CF93DF931C014B012A01690135
:10357000089481089108880E991EEC01F3C08532E9
:1035800009F0E6C00894411C511CD2018C9182368E
:1035900091F0833648F4823499F1883509F496C065
:1035A000882309F4E8C0D9C0833709F4C1C088373B
:1035B00009F0D3C072C0F601208163E0A62EB12CC1
:1035C000AC0EBD1EA814B90408F0D5C082E090E08E
:1035D000C80ED91E822F64E60E94F468805DFE0149
:1035E0008193822F0E94F468892F6AE00E94F46818
:1035F000805D8983822F0E94F468905D9183AEC0C4
:10360000D6014C9111960C9155E0A52EB12CAC0E23
:10361000BD1EA814B90408F0AEC0E2E0F0E0CE0E82
:10362000DF1E842F902F60E177E20E940069605DC9
:10363000FE016193842F902F60E177E20E94006980
:1036400068EE73E00E940069605D69839F012F5FEF
:103650003F4F842F902F68EE73E00E94006964E66C
:1036600070E00E940069605D6183842F902F64E6A2
:1036700070E00E9400696AE070E00E940069605D8D
:10368000D90111966C93842F902F6AE070E00E940C
:103690000069805DF901828361C0D6010C9142E02E
:1036A000A42EB12CAC0EBD1EA814B90408F063C042
:1036B000E2E0F0E0CE0EDF1E802F82958F703DDFBE
:1036C0008883802F8F7039DF898348C0D6018C9121
:1036D00011967C9034E0A32EB12CAC0EBD1EA81424
:1036E000B90408F048C0E2E0F0E0CE0EDF1E082F7B
:1036F000172D872D82958F7020DFDE018D937D0140
:10370000872D8F701ADF8983C80124E096958795ED
:103710002A95E1F78F7011DFF7018183802F8F7079
:103720000CDF0894E11CF11CD70111968C9316C094
:1037300096012E5F3F4FD601ED91FC9105C0899314
:10374000C815D90548F4319680818823C1F704C093
:10375000FE0181935F0102C069015E010894411C72
:10376000511CE501D2018C91882321F0C815D9059F
:1037700008F405CF19929E0122193309C901DF917E
:10378000CF911F910F91FF90EF90DF90CF90BF905E
:10379000AF909F908F907F905F904F903F902F9031
:1037A0000895DC01FB0104C08D93319641505040D7
:1037B0004115510521F080818823B1F71C920895AD
:1037C000DC01FB0104C08D933196415050404115FE
:1037D000510541F080818823B1F704C04150504029
:1037E0008D9301C080E242305105C0F7452B09F0AE
:1037F0001C920895DC01FB0109C08491882311F417
:103800001C9208958D9331964150504041155105B9
:10381000A1F70895DC01FB0107C08491882361F0C2
:103820008D9331964150504041155105B1F708959F
:103830008D934150504001C080E242305105C0F7A5
:10384000452B09F01C920895FC0103C011926150B0
:10385000704061157105D1F70895FC0103C04193D3
:103860006150704061157105D1F70895FC0120E0A9
:1038700030E006C08081882331F031962F5F3F4FC2
:1038800024173507BCF3421B530BCF018ACF8FB7E8
:10389000F89420915022309151228FBFC901089590
:1038A000681B790BCB010895680F791F64177507A2
:1038B0002CF0A901621773070CF4AB01CA0108953B
:1038C000FC0173836283758364830895A0E0B0E094
:1038D000ECE6FCE10C946E698C016B017A01C0E0AE
:1038E000D0E00DC0D801ED91FC91D601AC0FBD1F09
:1038F0000480F581E02DC8016C9109952196CE15C3
:10390000DF0580F3CDB7DEB7E8E00C948A69DC010F
:10391000ED91FC911197662329F00480F581E02D4B
:1039200061E004C00480F581E02D60E00995089510
:10393000089580E090E00895FC0185EA94E0918389
:103940008083089570E090E09695982F882797954A
:103950008795682B792BCB010895CF93DF93DC01FA
:1039600023E030E0C0E0D0E0AB014450504008C05C
:10397000FD01E20FF31F8081C80FD11D2F5F3F4F64
:1039800024173507A8F3FD01E60FF71FDF01139792
:10399000349780816C91D6DF20E0DF73C817D90798
:1039A00009F421E0822FDF91CF910895FC01738308
:1039B0006283758364830895A1E0B0E0E2EEFCE1E8
:1039C0000C947269DC018B01ED91FC910480F5810E
:1039D000E02DBE016F5F7F4F099590E089818111D5
:1039E00091E0F80190832196E4E00C948E69A1E0C7
:1039F000B0E0EDEFFCE10C947469FC01A081B181B1
:103A000014962D913C911597BE016F5F7F4FF90180
:103A100009952196E2E00C949069EF92FF920F9342
:103A20001F93CF93DF938C017B01C0E0D0E009C0EE
:103A3000D801ED91FC910680F781E02DC801099530
:103A40002196CE15DF05A0F3CDB7DEB7E6E00C94E6
:103A50008C69FC0181E0878716820895FC0181E072
:103A600082871186108608950F931F93CF93DF935B
:103A7000EC018A0125DF1C870B87012B31F0CE0179
:103A80000D969D838C839B838A831F8A1E8A1D8A41
:103A90001F821E82CE01E2DFDF91CF911F910F9135
:103AA00008950F931F938C01DC01ED91FC9106802A
:103AB000F781E02D0995F8011286118610861F9175
:103AC0000F9108950F931F938C01DC01ED91FC91F0
:103AD0000680F781E02D0995C801C0DF1F910F9185
:103AE0000895FC01168A158A81E0878B0895EF926C
:103AF000FF920F931F938C01DC011696ED90FC90C2
:103B00001797EBEFFFEFEE0EFF1E57961C92C9DFE3
:103B1000D801ED91FC91119755966D917C91569736
:103B2000660F672F661F770B71956F770480F5819D
:103B3000E02DC8010995D801ED91FC91119755969A
:103B40006C916F770480F581E02DC8010995D8014B
:103B5000ED91FC91B701660F672F661F770B71958A
:103B60006F770480F581E02DC8010995D801ED91AA
:103B7000FC91BFE7EB220480F581E02DC8016E2D9A
:103B80000995D801ED91FC910480F581E02DC801E3
:103B900067EF09951F910F91FF90EF900895FF92A5
:103BA0000F931F93CF93DF93EC018885998500973E
:103BB00011F400E002C0082F0F5F198618868F8964
:103BC000882381F030E00CC0EC81FD81E30FF11D12
:103BD00020818D899E89820F911D9E8B8D8B3F5FE9
:103BE000301790F38B859C85892BE9F010E020E558
:103BF000F22E14C08F2D8A95F1F78B859C85FC01E0
:103C0000A081B181EC81FD81E10FF11D14962D9110
:103C10003C9115976081F90109951F5F101750F3CA
:103C20008A819B8104C08C819D81800F911D9D8321
:103C30008C832E813F81200F311D3F832E83C9014C
:103C4000CDB7DEB7E5E00C948D69FF920F931F931B
:103C5000CF93DF93EC0188859985892B19F4EC814A
:103C6000FD811082EC81FD81462F441F4427441FB3
:103C700050E086E090E028853985821B930B02C0D6
:103C8000440F551F8A95E2F78081842B8083EC8155
:103C9000FD8188859985E80FF91F6F776183888595
:103CA0009985019699878887079709F044C08E8186
:103CB0009F8108969F838E838F89882391F040E0AF
:103CC00050E0EC81FD81E40FF51F20818D899E89F4
:103CD000820F911D9E8B8D8B4F5F5F4F483051053A
:103CE00081F78B859C85892BF9F000E010E030E5A9
:103CF000F32E8F2D8A95F1F78B859C85FC01A08191
:103D0000B181EA81FB81E00FF11F14962D913C9166
:103D100015976081F90109950F5F1F4F0830110554
:103D200041F78A819B8103C08C819D8108969D8388
:103D30008C8319861886CDB7DEB7E5E00C948D69C3
:103D4000CF93DF93EC018A85882319F0CE017DDFC4
:103D500023C08F89882331F08D899E89860F911D1C
:103D60009E8B8D8BAB85BC85109761F080E58A9525
:103D7000F1F7ED91FC9111970480F581E02DCD01D3
:103D8000099505C0EC81FD816193FD83EC838E81F3
:103D90009F8101969F838E83DF91CF9108950F932A
:103DA0001F938C0103DEC80154DE1F910F9108950B
:103DB000CF93DF93DC01EB011F968C911F97882333
:103DC00099F116962C911697822F90E0877090703B
:103DD000892B81F41496ED91FC911597819117969A
:103DE0008C9317971596FC93EE9314972F5F169666
:103DF0002C93169717968C911797880F17968C937C
:103E0000179780781496ED91FC9115979191892BD5
:103E100088831596FC93EE93149716968C911697BB
:103E20008F5F16968C930AC01496ED91FC911597AE
:103E3000819188831596FC93EE931497DF91CF912F
:103E40000895FC012481A62FB0E096E0AA0FBB1FC5
:103E50009A95E1F71696AE0FBF1F90E006C08D91C0
:103E60008F3F11F080E008959F5F9217C0F381E0CB
:103E700008950F931F93CF93DF93EC01062F112723
:103E800007FD10958D8190E008171907A4F590E0C3
:103E9000980146E0220F331F4A95E1F72C0F3D1F92
:103EA0004FEF05C0F901E90FF11D46839F5F8C813B
:103EB0009817C0F3FE01E00FF11FEA5FFF4E60812B
:103EC000E650F0416F3F69F0EA5BFF4E40814F3FA3
:103ED00041F0E881F981068CF78DE02DCE012FEFBE
:103EE0000995FE01E00FF11FEA5FFF4E8FEF80831F
:103EF000E05CFF4F8083DF91CF911F910F91089578
:103F0000CF93DF93EC01E881F981048CF58DE02DEE
:103F10000995682F8F3F11F0CE01ABDFDF91CF9174
:103F200008950F931F93CF93DF93EC01062F10E0BA
:103F300005C0CE01602F412FE3DF1F5F8A81181774
:103F4000C0F3DF91CF911F910F910895EF92FF92EF
:103F50000F931F93CF93DF93EC01F62EE42E022FE5
:103F6000E881F981048CF58DE02D422F0995182FF9
:103F70008F3FE9F0E82FFF27E7FDF09556E0EE0FC1
:103F8000FF1F5A95E1F7EC0FFD1FEE0DF11D8FEFAE
:103F90008683E881F9810684F785E02DCE016F2DB7
:103FA000402F0995882319F0CE01612F62DFCDB72C
:103FB000DEB7E6E00C948C69FC012581EA5FFF4ED8
:103FC00090E00EC080818F3F49F4E05CFF4F80811C
:103FD000E054F0408F3F11F4892F08959F5F319690
:103FE000921780F38FEF0895A0E0B0E0EAEFFFE1D1
:103FF0000C946F69EC01F62ED42EE22EE881F98143
:10400000048CF58DE02D422F0995182F8F3F89F5EF
:10401000CE01D2DF182F8F3F11F480E039C0E88144
:10402000F981068CF78DE02DCE016F2D4E2D212FBD
:104030000995812F992787FD9095FE01E80FF91FBB
:10404000EA5FFF4EF082E05CFF4FE08240E09C01BF
:10405000E6E0220F331FEA95E1F72C0F3D1F9FEF9B
:1040600005C0F901E40FF11D96834F5F8C8148175D
:10407000C0F3812F992787FD909576E0880F991FCF
:104080007A95E1F7C80FD91FCD0DD11D0E8381E0C0
:10409000CDB7DEB7E7E00C948B69A0E0B0E0E3E5D4
:1040A000F0E20C946D698C01EE24BB24BA942FC00D
:1040B000CE2CDD24E801CC0DDD1DCA5FDF4EF8807B
:1040C000C650D0418FEFF816F1F0C8016E2DB9DE61
:1040D0008823E1F0CA5BDF4E48814F3F51F0D801A1
:1040E000ED91FC91068CF78DE02DC8016F2D2FEF1F
:1040F0000995F801EC0DFD1DEA5FFF4EB082E05C12
:10410000FF4FB08203C0CA5BDF4EF882E394F80130
:104110008581E81668F2CDB7DEB7E9E00C948969CD
:10412000FC01608312828FEF81830895FC018081FE
:10413000861719F4418381E08283089521E0FC0110
:1041400022830895CF93DF93FC018FEF9FEF91833C
:1041500080839383828397838683E35CFA4F108204
:10416000ED53F540A4E8B3E0EF01C355DB4F8D916B
:10417000899383E0A439B807D1F7E556FB4F108245
:10418000EB59F4401086DF91CF910895FA01262F64
:104190002F702F5F62956F706F5B6083822F6AE074
:1041A0000E94F468805D8183822F0E94F468905D94
:1041B000928380E2838314820895362F242FFC019A
:1041C000E35CFA4FE081EF3751F0669566956E0F2C
:1041D0003370305F8AE59EE2432F0C94380E0895C9
:1041E0000F931F93CF93DF93EC018B01B9019A01D9
:1041F00058A9583010F080E048C0FC0140E0D901D7
:10420000A170B07018C0808191818017910789F4E6
:10421000828193818617970761F484819581821743
:10422000930791F16115710521F4109711F480FF46
:104230002BC04F5F3696451730F3852F90E0FC0179
:10424000EE0FFF1FE80FF91FEE0FFF1FEC0FFD1F12
:104250001183008388A990E0FC01EE0FFF1FE80F97
:10426000F91FDF01AA0FBB1FAC0FBD1F15963C93B2
:104270002E9314973196EE0FFF1FEC0FFD1F7183E5
:10428000608388A98F5F88AB81E0DF91CF911F9118
:104290000F91089585539F4FA3CF0F931F93CF93F3
:1042A000DF93EC018B01B9019A0158A9583010F045
:1042B00080E048C0FC0140E0D901A170B07018C096
:1042C000808191818017910789F48281938186177B
:1042D000970761F4848195818217930791F16115A5
:1042E000710521F4109711F480FF2BC04F5F3696B3
:1042F000451730F3852F90E0FC01EE0FFF1FE80F0C
:10430000F91FEE0FFF1FEC0FFD1F1183008388A91B
:1043100090E0FC01EE0FFF1FE80FF91FDF01AA0F6D
:10432000BB1FAC0FBD1F15963C932E93149731966F
:10433000EE0FFF1FEC0FFD1F7183608388A98F5F55
:1043400088AB81E0DF91CF911F910F91089507967F
:10435000A4CF86569F4FA1CFC8969FCF84E592E207
:10436000F1CEFF920F931F93CF93DF93EC018B015C
:10437000FFB6F8942CC0242F30E0F901EE0FFF1F98
:10438000E20FF31FEE0FFF1FEC0FFD1F80819181E5
:1043900080179107F1F4C9010196BC01660F771FE0
:1043A000680F791F660F771F6C0F7D1F852F90E0B8
:1043B0000197821B930BAC01440F551F480F591FE7
:1043C000440F551FCF01AED888A9815088AB40E07B
:1043D00001C04F5F58A9451770F2FFBECDB7DEB7D9
:1043E000E5E00C948D690796BCCF86569F4FB9CFF8
:1043F000C896B7CFFF920F931F93CF93DF93EC0133
:104400008B01FFB6F8942CC0242F30E0F901EE0F99
:10441000FF1FE20FF31FEE0FFF1FEC0FFD1F808148
:10442000918180179107F1F4C9010196BC01660FD3
:10443000771F680F791F660F771F6C0F7D1F852F01
:1044400090E00197821B930BAC01440F551F480F5E
:10445000591F440F551FCF0165D888A9815088ABDB
:1044600040E001C04F5F58A9451770F2FFBECDB7BD
:10447000DEB7E5E00C948D6985539F4FBBCFA0E07C
:10448000B0E0E5E4F2E20C946E69EB016A01FFD959
:104490007C01FDD98C010E94595388E091E20E9471
:1044A0001A14C701B801FCD98C159D0518F48A812E
:1044B000882379F38A81CDB7DEB7E8E00C948A6966
:1044C000DF92EF92FF920F931F938B01D42E3AE568
:1044D000E32E3EE2F32EC70160EF0E942C4BC70192
:1044E0006FE773E045E050E00E943305C701B80173
:1044F0004D2D50E00E943305C70167EF0E942C4B01
:104500001F910F91FF90EF90DF900895A3E0B0E02E
:10451000ECE8F2E20C947469FE01319683E0DF016D
:104520001D928A95E9F781E789836F776A834F77D0
:104530004B8384E592E2BF0143E0C2DF2396E2E0D1
:104540000C949069462F62E0E1CFA2E0B0E0EBEA84
:10455000F2E20C94746989E589836F776A8384E554
:1045600092E2BE016F5F7F4F42E0AADF2296E2E057
:104570000C949069A3E0B0E0E0ECF2E20C94746972
:10458000FE01319683E0DF011D928A95E9F78CE503
:1045900089836A834B8384E592E2BF0143E090DF25
:1045A0002396E2E00C949069A3E0B0E0EAEDF2E239
:1045B0000C947469FE01319683E0DF011D928A95A7
:1045C000E9F78AE589836A834B8384E592E2BF0138
:1045D00043E076DF2396E2E00C949069A3E0B0E03C
:1045E000E4EFF2E20C947469FE01319683E0DF019E
:1045F0001D928A95E9F729836A834B8384E592E2C9
:10460000BF0143E05DDF2396E2E00C949069EF92F6
:10461000FF920F931F93162F042F5AE5E52E5EE2AB
:10462000F52EC70160EF0E942C4BC7016FE773E0C6
:1046300045E050E00E943305C701612F0E942C4BDA
:10464000C701602F0E942C4BC70167EF0E942C4BC3
:104650001F910F91FF90EF900895A3E0B0E0E3E386
:10466000F3E20C946B696C01962E5A018E010F5F78
:104670001F4FC80155DD26E930E240E050E060EE12
:10468000E62E6BE2F62EC701B80104DE84E592E265
:1046900060E7492DBCDFC601B801A501F0DEC70106
:1046A000B801EADE8A812396EBE00C948769AB01BE
:1046B00064E0D3DF8F3F21F080935A2210925B2277
:1046C0000895AB0162E0C9DF8F3F21F0809356224D
:1046D000109257220895AB0162E2BFDF8F3F21F0B5
:1046E00080935622109257220895462F61E58FCF6E
:1046F000462F68E68CCFA3E0B0E0E1E8F3E20C944B
:104700006B697C01962E5A018E010F5F1F4FC80105
:1047100060E006DD2EE930E240E050E0E0EECE2E33
:10472000EBE2DE2EC601B80114DE84E592E2692DCB
:10473000DFDFC701B801A501A2DEF82EC601B8016E
:1047400054DE8F2D2396EBE00C948769462F63E5AA
:104750005ECFA3E0B0E0EFEAF3E20C946B697C017A
:10476000962E5A018E010F5F1F4FC80160E0D8DC02
:104770002EE930E240E050E0F0EECF2EFBE2DF2EFB
:10478000C601B801E9DD84E592E2692DDFDFC701EA
:10479000B801A50174DEF82EC601B80129DE8F2DFF
:1047A0002396EBE00C9487690F931F93CF93DF93CD
:1047B000EC018B01B9019A0158A9583010F080E042
:1047C00048C0FC0140E0D901A170B07018C08081E0
:1047D00091818017910789F48281938186179707C9
:1047E00061F4848195818217930791F161157105B8
:1047F00021F4109711F480FF2BC04F5F36964517B8
:1048000030F3852F90E0FC01EE0FFF1FE80FF91F3A
:10481000EE0FFF1FEC0FFD1F1183008388A990E0AE
:10482000FC01EE0FFF1FE80FF91FDF01AA0FBB1FEE
:10483000AC0FBD1F15963C932E9314973196EE0F37
:10484000FF1FEC0FFD1F7183608388A98F5F88AB0A
:1048500081E0DF91CF911F910F9108958B569F4F6B
:10486000A3CFFC011082118212821382148217825C
:1048700016828FE78583089587EA97E2F2CFCF9279
:10488000DF92EF92FF920F931F938C016A017B01DD
:10489000DC01ED91FC91272F332744275527048015
:1048A000F581E02D622F0995D801ED91FC919701DA
:1048B000442755270480F581E02DC801622F099512
:1048C000D801ED91FC9155274F2D3E2D2D2D0480C3
:1048D000F581E02DC801622F0995D801ED91FC9179
:1048E0000480F581E02DC8016C2D09951F910F9171
:1048F000FF90EF90DF90CF900895A0E0B0E0E3E864
:10490000F4E20C946E696C017A018B01C0E0D0E096
:1049100009C0F80141915191619171918F01C601D6
:10492000AEDF2196CE15DF05A0F3CDB7DEB7E8E008
:104930000C948A69FC018DEC94E091838083089546
:104940000895A2E0B0E0E7EAF4E20C9470698C010B
:104950007B01DC01ED91FC910480F581E02DBE012D
:104960006F5F7F4F0995D801ED91FC910480F5812F
:10497000E02DC801BE016E5F7F4F0995998180E0EF
:104980002A8130E0822B932BF7019183808322963A
:10499000E6E00C948C69A4E0B0E0E1EDF4E20C9464
:1049A00070698C017B01BE016F5F7F4FCADFC80158
:1049B000BE016D5F7F4FC5DF89819A81A0E0B0E0C5
:1049C000DC01992788272B813C8140E050E0822B35
:1049D000932BA42BB52BF70180839183A283B38300
:1049E0002496E6E00C948C69A0E0B0E0EAEFF4E2F3
:1049F0000C946E696C017A018B01C0E0D0E006C0B6
:104A0000C601B801C8DF21960C5F1F4FCE15DF0528
:104A1000B8F3CDB7DEB7E8E00C948A69A0E0B0E067
:104A2000E4E1F5E20C946E698C016B017A01C0E05F
:104A3000D0E00CC0D801ED91FC91B6016C0F7D1F48
:104A40000480F581E02DC80109952196CE15DF057A
:104A500088F3CE01CDB7DEB7E8E00C948A69FC019B
:104A600017860895A0E0B0E0E8E3F5E20C946C69E5
:104A70007C01EB01CB0115D8E881F9810480F58137
:104A8000E02DCE0160EF0995DC2ECD2ECE016FE733
:104A900073E045E050E00E94661CE881F9810480E3
:104AA000F581E02DCE0162E50995E881F981048068
:104AB000F581E02DCE0164E00995E881F98104805B
:104AC000F581E02DCE0161E00995CE010AD8E8819B
:104AD000F9810480F581E02DCE01D7016D918D0122
:104AE0000995CE01B80140E150E00E94661CF70133
:104AF000118AB7016E5E7F4FCE0140E851E00E94FF
:104B0000661CB7016E567E4FCE0140E150E00E9418
:104B1000661CCE010E942E1DB7016E557E4FCE0140
:104B200040E150E0EADECE010E94511DCE010E941C
:104B30002E1D00E010E047E2A42EB12C0A9DB0012A
:104B40000B9D700D1A9D700D11246E517E4F6E0DD0
:104B50007F1D8D2D9C2D45E050E00E94661CB80104
:104B60006155784D8D2D9C2D4FE150E00E94661CC3
:104B70000F5F1F4F0031110509F7CE010E94511D33
:104B800082E594E0E80EF91E8D2D9C2DB70148E0DA
:104B900050E00E94661CA8E0B0E0EA0EFB1E8D2DDE
:104BA0009C2DB70148E050E00E94661CE8E0F0E070
:104BB000EE0EFF1E8D2D9C2DB70148E050E00E94A7
:104BC000661C88E090E0E80EF91E8D2D9C2DB70143
:104BD00048E050E00E94661CCE010E942E1DA8E015
:104BE000B0E0EA0EFB1E8D2D9C2DB70140E150E098
:104BF0000E94661CE0E1F0E0EE0EFF1E8D2D9C2D64
:104C0000B70140E150E00E94661CE881F98106800E
:104C1000F781E02DCE0109958C01CE010E94771D10
:104C20000B5F1F4FC801CDB7DEB7EAE00C9488696F
:104C3000EF92FF920F931F938C017B017BDE81EB40
:104C400094E0F80191838083C801B701A8D81F912F
:104C50000F91FF90EF900895A0E1B0E0E2E3F6E25B
:104C60000C946A696C015B018A0184E04A3C580734
:104C7000C1F088E091E260E671E04AE651E028E5A3
:104C800032E00E94301388E091E261E00E94F20A73
:104C900088E091E260E0A80128E532E00E94CF13AD
:104CA00011C0CB016AEC74E00E94AD1C882361F452
:104CB00088E091E26BE671E04AE651E028E532E0F7
:104CC0000E94301380E0A2C0F5018381F601819338
:104CD0007F0184E090E0A80EB91E8E010F5F1F4F88
:104CE000C801B501A5DF88E091E261E00E94F20A07
:104CF000C801B5DEC801B70140E150E08FDEF60122
:104D0000118AB6016E5E7F4FC80140E851E086DE31
:104D1000B6016E567E4FC80140E150E07FDEC8010B
:104D20000E94291DB6016E557E4FC80140E150E03A
:104D30005BDEC80194DEC8010E94291DAA24BB24A1
:104D400077E2872E912CE12EA89CB001A99C700DD2
:104D5000B89C700D11246E517E4F6C0D7D1D802FFF
:104D60009E2D45E050E05ADE802F9E2D6FEA77E2BF
:104D70004FE150E053DE0894A11CB11CF0E1AF16E6
:104D8000B10411F7802F9E2D6ADE82E594E0C80EF3
:104D9000D91E802F9E2DB60148E050E03FDEE8E0AE
:104DA000F0E0CE0EDF1E802F9E2DB60148E050E0D1
:104DB00035DE88E090E0C80ED91E802F9E2DB6010A
:104DC00048E050E02BDEE8E0F0E0CE0EDF1E802F62
:104DD0009E2DB60148E050E021DE802F9E2D0E94DE
:104DE000291D88E090E0C80ED91E802F9E2DB601A7
:104DF00040E150E013DEE0E1F0E0CE0EDF1E802F58
:104E00009E2DB60140E150E009DE81E06096ECE0C5
:104E10000C948669A1E1B0E0E0E1F7E20C946C69E2
:104E20006C015B014E3B510509F09FC0CB016EEB5D
:104E300070E00E94AD1C882309F497C0F5018381BE
:104E4000F60181938F0182E0E82EF12CEC0EFD1E1D
:104E500024E030E0A20EB31EC701B501E9DEC701B0
:104E6000FEDDC701B80140E150E0D8DDC7010E9476
:104E7000291D81E290E0C80ED91EC701B60140E8A5
:104E800050E0CCDDC701EBDDE0E8F0E0CE0EDF1E48
:104E9000C701B6010E94D81E0894C11CD11CC701CD
:104EA000B6010E94D81E0894C11CD11CC701B601CE
:104EB00048DD22E030E0C20ED31EC701B6010E94D9
:104EC000DC1C1982C701BE016F5F7F4F0E94D81E94
:104ED000898190E00894C11CD11C9C012170307024
:104EE000F601208322E030E0C20ED31EB4E0969596
:104EF0008795BA95E1F7282F2170F60120839695C2
:104F00008795282F217022936F0122E030E0C20E96
:104F1000D31E969587958170F601808327E53FEF34
:104F2000C20ED31EB60166557F4FC7010E94DC1C1E
:104F3000B60165557F4FC7014CE050E06FDD4C2D49
:104F4000D601960120583F4F91968C9191978031D0
:104F500030F4F601E80FF11D8A2F841B818B119626
:104F6000A217B30789F781E001C080E06196EAE00B
:104F70000C948869A0E0B0E0E0ECF7E20C946F6973
:104F80008C01D62E7A01C0E0D0E00AC0D801ED91A4
:104F9000FC910480F581E02DC8016D2D09952196C5
:104FA000CE15DF0598F3CDB7DEB7E7E00C948B693B
:104FB000A0E0B0E0EEEDF7E20C946E696C017A01CE
:104FC0008B01C0E0D0E00AC0F801408151816281CC
:104FD0007381C60154DC2196085F1F4FCE15DF0593
:104FE00098F3CDB7DEB7E8E00C948A69EF92FF92B0
:104FF0000F931F937C01F901DA01CB019801AF01F6
:10500000BD0100E20E946B02FA01C701A901BF01C4
:1050100036DC1F910F91FF90EF900895A0E0B0E073
:10502000E4E1F8E20C946C695C016A01EB01EE24A6
:10503000FF240EC0088119812A813B814C815D814A
:105040006E817F81C501D2DF0894E11CF11C289696
:10505000EC14FD0478F3CDB7DEB7EAE00C94886970
:10506000A4E0B0E0E6E3F8E20C9472698B01BE01C3
:105070006F5F7F4F90DC29813A814B815C81F80121
:1050800020833183428353831482158216821782D0
:105090002496E4E00C948E69A0E0B0E0E2E5F8E24A
:1050A0000C946E696C017A018B01C0E0D0E006C0FF
:1050B000C601B801D5DF2196085F1F4FCE15DF0569
:1050C000B8F3CDB7DEB7E8E00C948A69A4E0B0E0AD
:1050D000ECE6F8E20C946A694B01BE016F5F7F4F0A
:1050E0005ADCA980BA80CB80DC80EE24FF248701C3
:1050F0009501A60160E070E080E090E000E20E948F
:10510000EA02D401EC91E22BEC9311962C911197C9
:10511000232B11962C93119712962C911297242BD6
:1051200012962C93129713962C911397252B139666
:105130002C93139714962C911497262B14962C933A
:10514000149715962C911597272B15962C93159738
:1051500016962C911697282B16962C931697179621
:105160008C911797892B17968C932496ECE00C94CE
:105170008669A0E0B0E0EFEBF8E20C946E696C0198
:105180007A018B01C0E0D0E006C0C601B8019EDF05
:105190002196085F1F4FCE15DF05B8F3CDB7DEB7F8
:1051A000E8E00C948A69A1E0B0E0E9EDF8E20C9443
:1051B0007469FC01A081B18114962D913C911597E1
:1051C000BE016F5F7F4FF901099589812196E2E069
:1051D0000C949069FC01A081B18152962D913C9173
:1051E0005397F9010995089581E00895FC01EA5764
:1051F000FF4E80810895FC01EA57FF4E60830895B9
:10520000FC01E959FE4E80810895FC01E959FE4EEA
:1052100060830895FC01EC59FE4E80810895FC01E5
:10522000EC59FE4E6083089570E0FB01EE0FFF1F06
:10523000E60FF71F53E0EE0FFF1F5A95E1F7E80F57
:10524000F91FE40FF11DEA50FD4E8081089570E0D2
:10525000FB01EE0FFF1FE60FF71FB3E0EE0FFF1F7E
:10526000BA95E1F7E80FF91FE40FF11DEA50FD4E82
:1052700020830895EF92FF920F931F93CF93DF93B4
:10528000042FC62FD0E043E0CC0FDD1F4A95E1F795
:10529000C80FD91FC957DF4E21E030E040E050E091
:1052A00060E070E080E090E00E94EA02E881F9812D
:1052B000AA81BB811C810D81FE80EF80E22BF32B44
:1052C000A42BB52B162B072BF82AE92AE883F983A0
:1052D000AA83BB831C830D83FE82EF82CDB7DEB72A
:1052E000E6E00C948C690F93E62F042FF0E053E076
:1052F000EE0FFF1F5A95E1F7E80FF91FE957FF4E30
:1053000020813181428153816481758186819781B9
:105310000E946B02822F81700F910895A0E0B0E08F
:10532000E4E9F9E20C9468697C018C01095F1E4E86
:10533000C0E0D0E0E1E0AE2EB12CC12CD12CD801E0
:105340001D921D921D921C921397FE01EE0FFF1FDE
:10535000EC0FFD1F63E0EE0FFF1F6A95E1F7EA50C7
:10536000FD4EEE0DFF1D60E070E080818F3FC9F0C3
:10537000A6019501062E04C0220F331F441F551F9E
:105380000A94D2F7D8016D907D908D909C901397E0
:10539000622A732A842A952A6D927D928D929C921C
:1053A00013976F5F7F4F319668317105F1F6219643
:1053B0000C5F1F4FC031D10511F6CDB7DEB7EEE05F
:1053C0000C948469DC0170E0FB0183E0EE0FFF1FA9
:1053D0008A95E1F7EA0FFB1FE957FF4E8081918123
:1053E000892B9281892B9381892B9481892B95819B
:1053F000892B9681892B9781892B11F020E013C08E
:1054000020E0660F771F660F771FA60FB71FA95FF3
:10541000BE4E8D919D910D90BC91A02D0097A10540
:10542000B10509F421E0822F0895DF92EF92FF92F7
:105430000F931F937C01162FD42E022F20E00E9481
:10544000F41FD701ED91FC910688F789E02DC70183
:10545000612F4D2D09951F910F91FF90EF90DF90D7
:105460000895A0E0B0E0E7E3FAE20C946A695C0119
:10547000862E942EE62EFF2403E0EE0CFF1C0A95E8
:10548000E1F7E80EF91E87E890E1E80EF91E21E049
:1054900030E040E050E060E070E080E090E0092D16
:1054A0000E94EA0220953095409550956095709540
:1054B00080959095D701EC911196FC9111971296D9
:1054C000AC91E701BB811C810D81DE80CF80E2239E
:1054D000F323A423B52316230723D822C922E88364
:1054E000F983AA83BB831C830D83DE82CF820A2DBE
:1054F000AB2C10E0802F9A2D682D492D212F0E9472
:10550000A61F1F5F1831B1F7CDB7DEB7ECE00C94E2
:1055100086690F931F93CF93DF93EC01062F6031C1
:1055200088F410E0E881F981028CF38DE02DCE0142
:10553000602F412F09951F5F1034A1F7CE01602F16
:105540000E94911FDF91CF911F910F9108952F928B
:105550003F924F925F926F927F929F92AF92BF92D3
:10556000CF92DF92EF92FF920F931F93DF93CF932F
:10557000CDB7DEB728970FB6F894DEBF0FBECDBF0C
:105580007C016B01FC01EA58FB4E90E024E631E11E
:10559000E20EF31ED7018C912CE93EEEE20EF31ED3
:1055A000813208F091E09083C7010E944D20D7011D
:1055B000ED91FC9100A0F1A1E02DC7010995E6E76E
:1055C000F4E1EE0EFF1ED7018C91EAE8FBEEEE0E41
:1055D000FF1E882329F426EC3AE03A83298304C08D
:1055E0008DE195E19A838983C6010E94511DD60100
:1055F000ED91FC910480F581E02DC60160EF0995E5
:10560000AC2C9D2CC6016FE773E045E050E00E9492
:10561000661CD601ED91FC910480F581E02DC60158
:1056200067E60995D601ED91FC910480F581E02DA6
:10563000C60163E00995D601ED91FC910480F581E6
:10564000E02DC60161E00995C6010E94711DD601D9
:10565000ED91FC91D701AA57BF4E0480F581E02D52
:10566000C6016C910995C6010E942E1DF701E957EC
:10567000FF4EFE83ED83C601BF0140E150E098DCA0
:10568000C6010E94621D27E031E1E20EF31EC60151
:10569000B70140E150E031D9C6010E94621D80E4AB
:1056A00090E0E80EF91ED7014D915D916D917C91CE
:1056B000C601E5D8E8E0F0E0EE0EFF1ED7014D91FF
:1056C0005D916D917C91C601DAD8E8E0F0E0EE0ED4
:1056D000FF1ED7014D915D916D917C91C601CFD890
:1056E000E8E0F0E0EE0EFF1ED7014D915D916D9167
:1056F0007C91E1EAFEEEEE0EFF1EC601C0D8C601A7
:105700000E94511DD601ED91FC91D701AD59BE4EBD
:105710000480F581E02DC6016C910995D601ED91CB
:10572000FC91D701AC59BE4E0480F581E02DC60135
:105730006C910995D601ED91FC91D701AB59BE4E04
:105740000480F581E02DC6016C910995D601ED919B
:10575000FC91D701AA59BE4E0480F581E02DC60107
:105760006C910995D601ED91FC91D701A959BE4ED6
:105770000480F581E02DC6016C910995D601ED916B
:10578000FC91D701A859BE4E0480F581E02DC601D9
:105790006C910995C6010E942E1D4EE0442E43E1F6
:1057A000542E4E0C5F1C3201BB2400E010E02AC0D6
:1057B000F10160816F3FB1F0FFE3FB1598F07727AF
:1057C00067FD709536E0660F771F3A95E1F76A5FDF
:1057D0007F4F6E0D7F1D8A2D992D40E250E00E9473
:1057E000661CB3940894211C311C2614370401F75D
:1057F0000F5F1F4F28E1622E712C620C731C003169
:10580000110589F01801220C331C200E311E83E093
:10581000220C331C8A95E1F726EF32E1220E331E6B
:105820002E0C3F1CC5CF40E450E04B195109B5E0A8
:10583000440F551FBA95E1F78A2D992D6FEF9ADB2A
:10584000C6010E94621D89E691E1E80EF91ED701AA
:105850004D915D916D917D917D018A2D992D0FD88E
:10586000F70141915191619171917F018A2D992D9B
:1058700006D8D7014D915D916D917C91EFE8FEEED8
:10588000EE0EFF1E8A2D992D0E943F2497012B5862
:105890003E4E3C832B838A2D992DB90140E150E087
:1058A00087DBA5EF2A2EA1E13A2E2E0C3F1C8A2D74
:1058B000992DB10140E150E07BDBF5E76F2EF2E17D
:1058C0007F2E6E0C7F1C8A2D992DB30140E150E094
:1058D0006FDBD601ED91FC910680F781E02DC601CA
:1058E0000995E6E7F4E1EE0EFF1ED7018C91EAE898
:1058F000FBEEEE0EFF1E882309F49EC0C6010E9437
:105900002E1D8A2D992D6D817E8140E150E086DB30
:10591000F701E95BFE4E00811181228133814481D0
:105920005581668177818A2D992D60DBF701E15BD6
:10593000FE4E00811181228133814481558166812F
:1059400077818A2D992D52DBF701E95AFE4E0081AD
:1059500011812281338144815581668177818A2D2D
:10596000992D44DBBB2400E010E02DC0AF81B88549
:105970006C916F3FB1F0BFE3BB1598F0772767FDDF
:105980007095E6E0660F771FEA95E1F76E0D7F1DD3
:105990006A5D7F4F8A2D992D40E250E00E94661C7F
:1059A000B394EF81F8853196F887EF83E415F50518
:1059B000E9F60F5F1F4F58E1452E512C4E0E5F1E2A
:1059C0000031110589F09801220F331F200F311F7C
:1059D00093E0220F331F9A95E1F72A503D4E2E0D8A
:1059E0003F1D38872F83C2CF40E450E04B19510947
:1059F00085E0440F551F8A95E1F78A2D992D6FEFA9
:105A0000B9DA8A2D992D6B817C8140E150E006DB6B
:105A10008A2D992DB10140E150E000DB8A2D992DAE
:105A2000B30140E150E0FADAD601ED91FC91068035
:105A3000F781E02DC6010995C6010E94771D2981D5
:105A40003A812B5F3F4FC90128960FB6F894DEBF0D
:105A50000FBECDBFCF91DF911F910F91FF90EF90BF
:105A6000DF90CF90BF90AF909F907F906F905F90AE
:105A70004F903F902F900895A6E1B0E0E2E4FDE260
:105A80000C9464697C016B018A01A4DB2AE0043C6C
:105A9000120771F035E10B31130751F088E091E204
:105AA00067E771E048E552E00E942B1380E071C186
:105AB000F701EA58FB4E108285E10B31180711F40B
:105AC00081E08083C601B8010E94AD1C882309F4DF
:105AD00060C1E6E8F0E1EE0EFF1EF6018381F701FA
