:1000000036C2000061C200005FC200005DC2000095
:100010005BC2000059C2000057C2000055C2000078
:1000200053C2000051C200000C94734C4DC200003A
:100030004BC2000049C200000C94714845C2000048
:1000400043C2000041C200000C94CB450C9485458E
:100050003BC2000039C2000037C2000035C20000B8
:1000600033C2000031C200002FC200002DC20000C8
:100070002BC2000029C200000C94614525C200007B
:1000800023C2000021C200001FC2000053454C459E
:10009000435420504147453A002020202000474E3D
:1000A0000000000000474E00534E0001474E004E36
:1000B000530002474E00494D000354520042440091
:1000C000105452005344001154520058540012541A
:1000D0005200435000135452005253001454520023
:1000E00052530015545200434800165452004F48D2
:1000F0000017545200435900185452004D41001942
:10010000545200434C001A5452005843001B54529E
:10011000004232001C464D0042440020464D005330
:10012000440021464D0058540022464D00435000E3
:1001300023464D0052530024464D004342002546BD
:100140004D0048480026464D0043590027453200DF
:100150004244003045320053440031453200485497
:1001600000324532004C54003345320043500034D5
:100170004532005253003545320043420036453285
:1001800000434800374532004F480038453200529E
:100190004300394532004343003A453200425200A1
:1001A0003B4532005441003C4532005452003D452D
:1001B00032005348003E4532004243003F50490060
:1001C00042440040504900534400415049004D54BE
:1001D00000425049004D4C00435049004D410044FD
:1001E000504900525300455049005243004650497F
:1001F000004343004750490048480048494E0047E3
:10020000410050494E0047420051494E00464100CE
:1002100052494E0046420053494E00454100544960
:100220004E00454200554D4900303100604D4900B7
:10023000303200614D4900303300624D49003034A6
:1002400000634D4900303500644D4900303600658B
:100250004D4900303700664D4900303800674D4940
:1002600000303900684D4900313000694D49003196
:1002700031006A4D49003132006B4D490031330085
:100280006C4D49003134006D4D49003135006E4DE3
:1002900049003136006F435400414C007043540014
:1002A000385000714354005245007843540047428F
:1002B00000794354004551007A4354004458007B70
:1002C000524F0030310080524F0030320081524F87
:1002D0000030330082524F0030340083524F0030E0
:1002E000350084524F0030360085524F00303700C1
:1002F00086524F0030380087524F00303900885204
:100300004F0031300089524F003131008A524F0086
:100310003132008B524F003133008C524F00313458
:10032000008D524F003135008E524F003136008F14
:10033000524F0031370090524F0031380091524FE8
:100340000031390092524F0032300093524F003248
:10035000310094524F0032320095524F0032330038
:1003600096524F0032340097524F00323500985267
:100370004F0032360099524F003237009A524F00E8
:100380003238009B524F003239009C524F003330BC
:10039000009D524F003331009E524F003332009F78
:1003A000524100523100A0524100523200A152414C
:1003B00000503100A2524100503200A3524100527D
:1003C0003300A5524100523400A652410050330080
:1003D000A7524100503400A8524F00333300B052AE
:1003E0004F00333400B1524F00333500B2524F004A
:1003F000333600B3524F00333700B4524F00333816
:1004000000B5524F00333900B6524F00343000B7B8
:10041000524F00343100B8524F00343200B9524FBD
:1004200000343300BA524F00343400BB524F003412
:100430003500BC524F00343600BD524F00343700F7
:10044000BE524F00343800BF5006D707AB087A0AB7
:10045000FC100813181B501D402A972BD42B192C65
:10046000DE3DC03F68422F43C0443F4C3A4C11240C
:100470001FBECFEFD0E1DEBFCDBFB89AC09885B721
:10048000806885BF15E0A0E0B1E0E6E8F6ED02C0C7
:1004900005900D92A23CB107D9F71EEFA0E0B0E2A3
:1004A00001C01D92AF34B107E1F714E0CCE6D4E00F
:1004B00004C02297FE010E94336BC834D107C9F7EC
:1004C0000E94F3630C94376B9BCDEF92FF920F93D6
:1004D000DF93CF93CDB7DEB760970FB6F894DEBF4A
:1004E0000FBECDBFA82F002309F461C07E01089480
:1004F000E11CF11C88E0F70111928A95E9F7298344
:100500003A834B835C836D837E83AF83988780E2DD
:10051000801BE82FFF27E7FDF0954D815E816F81FD
:100520007885181684F01D861E861F86188A8827EF
:1005300099278E1B9F0B04C0769567955795479515
:100540008A95D2F728C0202F332727FD3095DB016D
:10055000CA01022E04C0B695A795979587950A946F
:10056000D2F78D879E87AF87B88B04C0440F551F85
:10057000661F771FEA95D2F789819A81AB81BC818A
:1005800004C0B695A795979587952A95D2F7482BDD
:10059000592B6A2B7B2B49875A876B877C87298548
:1005A0003A854B855C856D857E85AF8598898A2FD8
:1005B00060960FB6F894DEBF0FBECDBFCF91DF912E
:1005C0000F91FF90EF900895EF92FF920F93DF93BA
:1005D000CF93CDB7DEB760970FB6F894DEBF0FBEEE
:1005E000CDBFA82F002309F461C07E010894E11C4F
:1005F000F11C88E0F70111928A95E9F729833A8383
:100600004B835C836D837E83AF83988780E2801BFE
:10061000E82FFF27E7FDF09549815A816B817C81A6
:10062000181684F019861A861B861C868827992737
:100630008E1B9F0B04C0440F551F661F771F8A95A2
:10064000D2F728C0202F332727FD3095DB01CA01C0
:10065000022E04C0880F991FAA1FBB1F0A94D2F74D
:1006600089879A87AB87BC8704C07695679557952D
:100670004795EA95D2F78D819E81AF81B88504C0F8
:10068000880F991FAA1FBB1F2A95D2F7482B592BF9
:100690006A2B7B2B4D875E876F87788B29853A8500
:1006A0004B855C856D857E85AF8598898A2F6096A0
:1006B0000FB6F894DEBF0FBECDBFCF91DF910F9183
:1006C000FF90EF900895FB01DC0102C001900D92B4
:1006D00041505040D8F70895DC0101C06D9341505E
:1006E0005040E0F70895FC018191861721F088239E
:1006F000D9F7992708953197CF010895FB01DC01BF
:100700008D91019080190110D9F3990B0895FB0187
:10071000DC014150504030F08D910190801919F466
:100720000020B9F7881B990B0895FB01DC014150AB
:10073000504048F001900D920020C9F701C01D9271
:1007400041505040E0F70895FC0181E090E00190B5
:10075000061609F4CF010020D1F701970895DF9222
:10076000EF92FF920F931F93D72E7A018C01FA011B
:100770000995C80101966D2DF70109951F910F91FB
:10078000FF90EF90DF900895FC0173876287578395
:100790004683118A108A1082118215861486178664
:1007A000168615820895FC011282118284E08083EE
:1007B0000895FC0110AA0895FCCF0895A0E0B0E0D0
:1007C000E4EEF3E00C94006BEC014B016A0159017B
:1007D0008AE0E82EF12CEC0EFD1E00E010E0C701CF
:1007E000800F911FE9DF0F5C1F4F81E0073518076D
:1007F000B1F7CE018E599E4FB601A501C5DFC35892
:10080000DE4FC992D992B982A8826E9781E088831F
:10081000C156D14098868F82C458DE4F8FEF8883AF
:10082000CC57D140CE01BFDFCDB7DEB7ECE00C94A2
:100830001C6BEF92FF921F93CF93DF93EC017B0130
:1008400010E042C0412F50E0CA01880F991F840F69
:10085000951FFC01EE0FFF1FEC0FFD1F248135815A
:10086000DC01119620FF16C0C9019595879501906E
:10087000F081E02DE80FF91FAA0FBB1FAC0FBD1FC1
:100880000190F081E02D8D919C91E80FF91FA081DE
:10089000B18107C0AA0FBB1FAC0FBD1F0D90BC914B
:1008A000A02DFA01EE0FFF1FE40FF51FEE0FFF1F43
:1008B000EC0FFD1F3595279580819181820F931F45
:1008C000B701FD0109951F5F88A9181708F4BACF71
:1008D000DF91CF911F91FF90EF900895A0E0B0E0DD
:1008E000E4E7F4E00C94046BEC01162F683F40F051
:1008F0006E3F09F0A9C0EF81F88512861186A4C069
:1009000082E6E82E81E0F82EEC0EFD1E01E6C02EF8
:1009100001E0D02ECC0EDD1E01E0F601808188239F
:1009200009F492C08881823009F456C0833030F4D3
:100930008823E1F0813009F087C07DC0833039F031
:10094000843009F081C017FF7FC01882E6CF17FFFF
:1009500009C0173F21F01882C7012AD2DECFC70194
:1009600076D272C0C701612FB7D26EC0103F39F482
:1009700083E08883C701E7D11A82198265C017FF17
:1009800003C019831A8205C08981882309F45CC0D9
:100990000A839981903F08F4907F20E009C089176D
:1009A00031F48181888389818C830B830BC02F5F15
:1009B000E22FF0E0EE0FFF1FE850FD4F808188230B
:1009C00071F790E02987992311F484E03CC08A8173
:1009D000882309F0A2CF38C018828B81FE01E80F6E
:1009E000F11D14838F5F8B83E985F0E0EE0FFF1F0D
:1009F000E850FD4F8081803921F48E81882309F4ED
:100A000019869985973060F481E3989FC00111247D
:100A10000A96BE016C5F7F4F8C0F9D1F0ADF09C0D5
:100A20008981823F31F4BE016C5F7F4F80E090E2AC
:100A3000E2D0188209C08B81FE01E80FF11D1483FA
:100A40008F5F8B8382E08883CDB7DEB7E8E00C94BC
:100A5000206B1C9808951C9A0895DC01ED91FC917F
:100A60000480F581E02D09950895FC0111AA80E12B
:100A700097E291A380A315A214A284A195A197A3A4
:100A800086A3148215821682178210821182128226
:100A9000138280819181A281B38180879187A2870F
:100AA000B387148A158A168A178A84899589A68934
:100AB000B78984879587A687B787108E118E128E87
:100AC000138E808D918DA28DB38D808B918BA28B97
:100AD000B38B158E858D848F88EC90E094A783A7C7
:100AE00010AA0895CF93DF93EC018FA5882321F0FE
:100AF00087EC9DE26AEFB1DFCE01B7DF81E089AB21
:100B0000DF91CF910895CF93DF93EC0119AA8FA5C0
:100B1000882321F087EC9DE26CEF9FDFCE01A5DFFB
:100B2000DF91CF910895CF93DF93EC018FA58823B8
:100B300021F087EC9DE26BEF90DF81E089AB80E1F3
:100B400097E299A388A31DA21CA28CA19DA19FA39B
:100B50008EA318AADF91CF910895CF93DF93EC0174
:100B60008AA9813059F4CE0180DF82E089AB8FA55C
:100B7000882321F087EC9DE26AEF6FDFDF91CF9150
:100B80000895FC0182A9813041F411AA87A5882328
:100B900021F087EC9DE26CEF60CF0895FF920F93F8
:100BA0001F938C01FFB6F894FC0176A765A79B0103
:100BB00040E050E06AE572E682E090E00E94BD6AA3
:100BC00020513040F801378F268FFFBE1F910F91C3
:100BD000FF9008950F931F938C0147DFF80112AA2D
:100BE000C80168E770E0DADFF80117A681E081A7A5
:100BF0001F910F9108950895FC0181A50895FC01AE
:100C000081A98130B1F582A9813019F081A58823AD
:100C100081F182E081AB089580859185A285B385BD
:100C20000196A11DB11D80879187A287B387848D0E
:100C30008F5F848F848D863069F4148E80899189CA
:100C4000A289B3890196A11DB11D808B918BA28BC6
:100C5000B38B03C0848D833079F484859585A68514
:100C6000B7850196A11DB11D84879587A687B78793
:100C7000089581A9823081F20895FC0181A9823012
:100C800071F480899189A289B38983709070A07072
:100C9000B0700097A105B10509F4DBCEDCCE089554
:100CA00080E090E297CFCF93DF93EC018C8D8FA5FE
:100CB000882329F087EC9DE268EF0E946543CE010E
:100CC0009EDFCE01DADFDF91CF910895FC0181A58F
:100CD000882311F0CF01E7CF0895DC01ED91FC915D
:100CE0000280F381E02D09950895FC0180E293E0F4
:100CF00091838083768365831282138214820895A0
:100D00000895089508950895FC016115710549F449
:100D10008285938595878487868197819787868743
:100D200004C07587648757874687118211861086AD
:100D300008950F931F938C01E7DF81E0F801818311
:100D40001F910F910895FC01118A108A108211825F
:100D500011861086158212821382148260E070E080
:100D600040E050E0E6CFFC01DB0161157105E9F0E0
:100D700012969C9112979F3FB1F085813281882312
:100D800079F0391791F4938113968C9113979817F2
:100D900061F420E0948114968C91981739F403C083
:100DA00020E0391719F421E001C020E0822F0895D6
:100DB000A0E0B0E0EEEDF6E00C94046B7C0181E085
:100DC000F7018083870188E0C82ED12CCE0CDF1C70
:100DD000F801C289D389C701BE01C5DF882339F074
:100DE000E881F9810280F381E02DCE0109950E5F43
:100DF0001F4F0C151D0561F7CDB7DEB7E8E00C9469
:100E0000206BA0E0B0E0E7E0F7E00C94046B7C011D
:100E10008C0198E0C92ED12CCE0CDF1CF801C289C0
:100E2000D389C701BE019FDF882339F0E881F981AA
:100E30000190F081E02DCE0109950E5F1F4F0C153A
:100E40001D0561F7CDB7DEB7E8E00C94206BA0E09C
:100E5000B0E0EDE2F7E00C94046B7C018C0128E03B
:100E6000C22ED12CC80ED91EF801C289D389C70160
:100E7000BE0179DF882339F0E881F9810480F581AA
:100E8000E02DCE0109950E5F1F4F0C151D0561F772
:100E9000CDB7DEB7E8E00C94206BDC0118962D91FD
:100EA0003C9119971E968D919C911F972817390791
:100EB00088F41C96ED91FC911D97309759F0E20F44
:100EC000F31F60832F5F3F4F19963C932E93189723
:100ED00081E0089580E00895A0E0B0E0E2E7F7E067
:100EE0000C94036BEC01B62E8881882309F047C06F
:100EF00088899989892B49F46A83662319F481E0EA
:100F00008D8303C01D82CE017CDF8D81882361F03B
:100F1000888999898130910511F4BB8205C00297B7
:100F200019F4BC82CE016DDF7E0138E0C32ED12CD6
:100F3000CC0EDD1ED70152960D911C915397CE0118
:100F4000B80111DF882349F0D801ED91FC910680AA
:100F5000F781E02DC8016B2D0995E2E0F0E0EE0E7F
:100F6000FF1EEC14FD0431F7888999890196998B4D
:100F7000888B8981882319F0CE016B2D8EDFCDB748
:100F8000DEB7E9E00C941F6B0F931F938C0160E0B8
:100F900070E0ABDE84E193E0F801918380831282FC
:100FA00083E1838381E484831F910F91089583E318
:100FB00090E2EACFDC011596ED91FC9116978089BD
:100FC0009189039721F4653011F40C94F44C089541
:100FD0001F93CF93DF93EC01162F603F50F0E88111
:100FE000F981683F10F41A8215C00680F781E02D60
:100FF00014C08C81882361F08A81861739F0E881DA
:10100000F9810480F581E02DCE0109951A8308C08D
:10101000E881F9810480F581E02DCE01612F0995E9
:10102000DF91CF911F910895EF92FF920F931F933D
:10103000CF93DF938C017B01EA010CC0D7016D9146
:101040007D01D801ED91FC910480F581E02DC8016E
:1010500009952197209791F7CDB7DEB7E6E00C947C
:10106000226BFC01E05BFF4F60830895FC01178257
:1010700008950F931F938C0160E070E036DE8CE2E0
:1010800093E0F80191838083128280E283838CE372
:101090008483108617861F910F910895FC0180911B
:1010A00041F7909142F7039731F4662319F481E0F8
:1010B0008783089517820895FC018781882309F4A6
:1010C00049C0A0913BF7B0913CF715968C911597CC
:1010D000833181F1843118F48131E1F505C0853126
:1010E00071F18731B9F531C08785813099F517964F
:1010F0008C91179790E09695982F882797958795CC
:1011000016962C91169730E0822B932B9487838729
:1011100019968C91199790E09695982F8827979516
:10112000879518962C9130E0822B932B9687858794
:1011300082E009C08785833069F484E004C0878534
:10114000853041F486E0878708958785873011F4DC
:1011500088E0878708958AE390E28BCF9C012A5F1D
:101160003F4FC9010895FC01848195810895FC01D8
:10117000828193810895A0E0B0E0E1ECF8E00C9466
:10118000006BEC015B016A01982E8D2EE881F981DC
:101190000280F381E02DB9010995FD86EC86AC143F
:1011A000BD042CF4B88AAF86DA8AC98A04C0D88A0A
:1011B000CF86BA8AA98AE881F9810684F785E02D6D
:1011C000892D982DB80140E00995CDB7DEB7ECE048
:1011D0000C941C6BCF93DF93EC012C813D818A81B1
:1011E0009B812817390731F0EC85FD85309711F088
:1011F000CE0109958C819D819B838A83DF91CF915C
:101200000895CF93DF93EC01442349F07D836C83F1
:10121000E881F9810680F781E02D099504C07D837E
:101220006C837B836A8381E08E87DF91CF91089501
:10123000FC0140E0228133818481958128173907A0
:1012400009F041E0842F0895FC0113821282158277
:1012500014820895FC01DB01448155812C91838522
:10126000882319F060E070E00DC0828511966C91C2
:10127000882329F085E06802B001112403C0772794
:1012800067FD7095332727FD3095240F351F260FF6
:10129000371F35832483C9010895FC01A081B181E2
:1012A0001A962D913C911B97F9010995882311F409
:1012B00080E208958B3110F4805C08958B5E089570
:1012C000DC01862F81548A3138F4ED91FC9111971D
:1012D00070E0605470400AC0862F8053ED91FC91FD
:1012E00011978A3040F470E0655170400684F785AC
:1012F000E02DCD0106C00684F785E02DCD0160E02C
:1013000070E040E009950895A3E0B0E0EAE8F9E074
:101310000C94086B8C016031F8F447FD1DC027FD6B
:101320001BC0FE01319683E0DF011D928A95E9F72B
:10133000606B69834A832B83C80182599F4FBF0129
:1013400078DAD801ED91FC910088F189E02DC8018F
:1013500069814A812B8109952396E4E00C94246BE2
:10136000FF920F931F938C01F62EDC01ED91FC91FF
:101370000284F385E02D0995AC0185E790E26F2D9D
:10138000E6D1F80116861F910F91FF900895CF9333
:10139000DF93EC01FB0190818B85882319F060E0DD
:1013A00070E00CC08A856181882329F085E068029D
:1013B000B001112403C0772767FD7095892F992705
:1013C00087FD9095680F791F4F85588929893A893B
:1013D0008C819D810E94CD158C839D83DF91CF915F
:1013E0000895CF93DF93EC016115710529F00696FE
:1013F00044E050E00E9473151986DF91CF91089563
:10140000EF92FF920F931F938C017A018EE493E089
:10141000F8019183808313821282158214821686CA
:10142000C801DFDFF801F586E48681E08287138654
:101430001F910F91FF90EF9008956F927F928F927E
:101440009F92AF92BF92CF92DF92EF92FF920F9353
:101450001F936C014B013A015901B901A701D0DF7B
:1014600088E393E0F60191838083C601B401A30170
:10147000950181DE1F910F91FF90EF90DF90CF904B
:10148000BF90AF909F908F907F906F900895CF9274
:10149000DF92EF92FF920F931F936C0160E070E078
:1014A00045E250E020E030E000E010E0EE24FF24D0
:1014B000C4DF84E693E0F601918380831F910F914E
:1014C000FF90EF90DF90CF900895FC011082118281
:1014D000128A0895FC012FB7F894818130812FBFC3
:1014E00020E090E0019687709070381709F421E0B1
:1014F000822F08958AE490E2E8CF0F931F93CF9351
:10150000DF93EC018B01E6DF882329F08A898F5F66
:101510008A8B80E013C0898190E00196880F991F23
:101520008C0F9D1FB80142E050E00E94591589813F
:1015300090E0019687709070898381E0DF91CF9170
:101540001F910F910895A2E0B0E0E9EAFAE00C944F
:10155000036B0DE91DE2FF24BB24B3946E010894D4
:10156000C11CD11C32E0E32EFA82F801808181FF98
:1015700007C080FD05C0B9828AE490E2B601BDDFF4
:10158000F801808181FD07C080FF05C0E9828AE4FF
:1015900090E2B601B2DFF3940B5F1F4FF8E0FF1645
:1015A00019F72296E9E00C941F6B80E00895DC01A6
:1015B00057966C935797662321F081E056968C934B
:1015C0005697ED91FC9111970680F781E02DCD01A2
:1015D00009950895089580E008950F931F93CF9380
:1015E000DF93EC018B01E881F9810280F381E02D2A
:1015F0000995DC01009759F0ED91FC910684F7857F
:10160000E02DB8010995882311F081E008C0E88138
:10161000F9810084F185E02DCE01B8010995DF91B3
:10162000CF911F910F9108950895089508950895F9
:101630000895FC01662321F0868991E08927868B35
:10164000089580E090E00895FB01DA0110821C9279
:101650000895FC01E359FF4FA081B181109719F45F
:1016600020E030E009C0ED91FC9111970280F381F8
:10167000E02DCD0109959C01C90108958A3010F42F
:10168000805D0895895A0895FC01E05BFF4F8081D9
:10169000E055F04090E027E230E0DC01A29FC0017D
:1016A000A39F900DB29F900D1124E80FF91F81E0C8
:1016B000828BE60FF11D842F64E60E948A6A892FCF
:1016C0006AE00E948A6A805D8283842F0E948A6A0F
:1016D000905D938308950F931F93FC018A01E05B53
:1016E000FF4F8081E055F04090E027E230E0AC0110
:1016F000429FC001439F900D529F900D1124E80F0F
:10170000F91F81E0828BE60FF11DC80168EE73E0DE
:101710000E94AA6A64E670E00E94AA6A605D628321
:10172000C80164E670E00E94AA6A6AE070E00E9464
:10173000AA6A605D6383C8016AE070E00E94AA6AD9
:10174000805D848380E285831F910F910895660FE9
:10175000660FC1CF1F93AC0120E030E0DC01A05B3D
:10176000BF4F67E270E010E28C9190E0869FF0013D
:10177000879FF00D969FF00D1124E40FF51FE20FE7
:10178000F31F12832F5F3F4F2031310569F78C9192
:1017900090E027E230E0829FF001839FF00D929F5E
:1017A000F00D1124E40FF51F81E0828B1F91089545
:1017B0001F93AC0120E030E0DC01A05BBF4F67E28B
:1017C00070E010E28C9190E0869FF001879FF00D11
:1017D000969FF00D1124E40FF51FE20FF31F138BFA
:1017E0002F5F3F4F2031310569F71F910895FC01AC
:1017F0001182818180830895FC01108211820895F5
:10180000FC018EE993E081939193CF01F5CFEF92A4
:10181000FF920F931F938C017B01F2DF80E893E02E
:10182000F80191838083F58AE48A168A178A1F91CA
:101830000F91FF90EF900895FC0184E090E0918774
:10184000808711821082138212821582148217827D
:1018500016820895DC0188E090E051969C938E9367
:10186000509780E090E0FD01E80FF91F118210828F
:10187000029680319105B9F70895FC019FB7F8945D
:10188000208181819FBF90E0281709F491E0892F82
:101890000895FC019081818120E0981709F421E0EE
:1018A000822F0895FC0191818081891720F4208185
:1018B0008181285F02C020818181281B822F0895A9
:1018C000F1DF90E0873009F491E0892F08950F93BC
:1018D0001F93CF93DF93EC018B01DBDF882311F0A3
:1018E00080E01EC001151105D1F08881882319F40C
:1018F00067E070E004C088818150682F70E08981C2
:10190000680F711D677070E06F5F7F4F660F771F04
:101910006C0F7D1FC80142E050E00E94591581E024
:10192000DF91CF911F910F910895A2E0B0E0EBE914
:10193000FCE00C940A6B1A8219820296BE016F5F5A
:101940007F4FC5DF89819A812296E2E00C94266B55
:101950000F931F93CF93DF93EC018B018EDF8823CE
:1019600011F080E014C0688170E06F5F7F4F660FF8
:10197000771F6C0F7D1FC80142E050E00E9459158F
:10198000888190E0019687709070888381E0DF9174
:10199000CF911F910F9108950F931F93CF93DF93D2
:1019A000EC018B018DDF882331F0898190E0019675
:1019B00087709070898388812981280F30E0277093
:1019C00030702F5F3F4F220F331FCE01820F931FC6
:1019D000B80142E050E00E945915888190E00196DC
:1019E00087709070888381E0DF91CF911F910F9174
:1019F0000895A2E0B0E0EFEFFCE00C940A6B7A836C
:101A00006983BE016F5F7F4FC7DF2296E2E00C94CF
:101A1000266BEF92FF920F931F938C01FA0170E0F7
:101A2000B0E5EB2EF12CE80EF91ED7018C9127E2E0
:101A3000829FC0011124860F971F029640E150E05B
:101A4000461B570B800F911FBF010E948D15F70198
:101A5000808190E027E230E0829FF001839FF00DCB
:101A6000929FF00D1124E00FF11F81E0828B1F91F6
:101A70000F91FF90EF900895660F660FCACFEF9217
:101A8000FF920F931F938C01FA0170E080E5E82E1E
:101A9000F12CE00EF11ED7018C9127E2829FC0014C
:101AA0001124860F971F029640E150E0461B570B0A
:101AB000800F911FBF010E947315F701808190E094
:101AC00027E230E0829FF001839FF00D929FF00D9E
:101AD0001124E00FF11F81E0828B1F910F91FF9085
:101AE000EF900895AB0160E0CACFEF92FF920F93A1
:101AF0001F938C01FA0170E090E5E92EF12CE00EC5
:101B0000F11ED7018C9127E2829FC0011124860F1C
:101B1000971F02964EE050E0461B570B800F911F17
:101B2000BF01D2D7F701808190E027E230E0829FA9
:101B3000F001839FF00D929FF00D1124E00FF11F33
:101B400081E0828B1F910F91FF90EF900895EF92AB
:101B5000FF920F931F938C01FA0170E020E5E22EB3
:101B6000F12CE80EF91ED7018C9127E2829FC0016B
:101B70001124860F971F029640E150E0461B570B39
:101B8000800F911FBF01A0D7F701808190E027E26D
:101B900030E0829FF001839FF00D929FF00D1124A1
:101BA000E00FF11F81E0828B1F910F91FF90EF906A
:101BB0000895660F660FCBCFCF92DF92EF92FF9220
:101BC0000F931F936C01DC01A05BBF4F8C9190E0E1
:101BD00037E2E32EF12C8E9DF0018F9DF00D9E9D3E
:101BE000F00D1124EC0DFD1D81E084A383A38C91E5
:101BF00090E001968E9DF0018F9DF00D9E9DF00D61
:101C00001124EC0DFD1D718360830C9110E0B8D799
:101C10000E9DF0010F9DF00D1E9DF00D1124EC0D99
:101C2000FD1D96A385A31F910F91FF90EF90DF906C
:101C3000CF900895EF92FF920F931F938C01FA01BA
:101C4000790170E0005B1F4FD8018C910055104066
:101C500027E2829FC0011124860F971F439640E11F
:101C600050E0461B570B800F911FBF013CD7C801A6
:101C7000B701A2DF1F910F91FF90EF900895FB0134
:101C80009A0160E0AF01D6CFAF92BF92CF92DF92C0
:101C9000EF92FF920F931F938C017B015A01690110
:101CA00060E0DFD9C801B701A601E9DFC80161E042
:101CB000D8D9C801B501A601E2DF1F910F91FF90AD
:101CC000EF90DF90CF90BF90AF9008958F929F924A
:101CD000AF92BF92CF92DF92EF92FF920F931F933A
:101CE0007C01C62E5A01490140E550E0E40EF51E84
:101CF000F701008140EB5FEFE40EF51E10E0DD24FC
:101D00008B2D82958F70BADC27E230E0F801E29FDC
:101D10008001E39F100DF29F100D11240E0D1F1D69
:101D20000C0D1D1DF801838B8B2D8F70A7DCF80126
:101D3000848BC50144E0969587954A95E1F78F70AD
:101D40009DDCF801858B8A2D8F7098DCF801868BDD
:101D5000C701B40131DF1F910F91FF90EF90DF9029
:101D6000CF90BF90AF909F908F900895660F660FB1
:101D7000ADCF0F931F93CF93DF93EC0101D78C016D
:101D80008C819D81B80105D72A813B8128173907AD
:101D900018F08E81882351F0E881F9810190F0815B
:101DA000E02DCE0109951D830C831E82DF91CF911A
:101DB0001F910F910895662319F0613019F401C045
:101DC00041C24BC20895A0E0B0E0E9EEFEE00C9401
:101DD000FF6A7C018DE690E0E80EF91EF701A08114
:101DE000B18183E99FEFE80EF91E109791F0ED9114
:101DF000FC9111970280F381E02DCD010995EC0152
:101E0000009739F0E881F9810480F581E02D09958A
:101E10001F8A87010E5E1F4FCC24DD2467E2862EC9
:101E2000912C50E2A52E77247394BC2CF801828962
:101E3000882399F1A5D6BC01F80183899489A9D694
:101E4000F801258936892817390710F47082128A1B
:101E5000F8018189882309F1C89CE001C99CD00D53
:101E6000D89CD00D11246396CE0DDF1DFE0120E01D
:101E700030E08081882309F4A0822F5F3F4F3196A4
:101E800020313105B1F785EC9DE26B2D94DF85ECB7
:101E90009DE2BE01B9D1F801118AF8018081882341
:101EA00021F18289882309F5C89CE001C99CD00DE5
:101EB000D89CD00D11242296CE0DDF1DFE0120E00E
:101EC00030E08081882309F4A0822F5F3F4F319654
:101ED00020313105B1F785EC9DE26B2D6CDF85EC8F
:101EE0009DE2BE0191D1F80110820894C11CD11C61
:101EF000095D1F4FF2E0CF16D10409F096CF85E7B8
:101F000090E260E0AED885E790E252DC85E790E2AF
:101F100061E0A7D885E790E24BDCCDB7DEB7EDE016
:101F20000C941B6BA2E0B0E0E8E9FFE00C94FC6AC3
:101F30007C01BBE5CB2ED12CC80ED91E00E010E0F1
:101F4000ABE6AA2EB12CA80EB91E0CC0D6018D91FD
:101F50009C91009709F00DDF0F5F1F4FE2E0F0E06A
:101F6000CE0EDF1ED5018D919C910817190774F3D1
:101F70002AC08AE490E2B501EBDC620100E010E0E7
:101F80000DC0D601ED91FC91309711F0C501099576
:101F90000F5F1F4FE2E0F0E0CE0EDF1ED3018D9108
:101FA0009C91081719076CF3F401A081B181109777
:101FB000E9F0ED91FC9111970190F081E02DCD01B8
:101FC000B501099513C05E010894A11CB11CF1E58F
:101FD0004F2E512C4E0C5F1CE9E56E2E712C6E0CB1
:101FE0007F1C7DE6872E912C8E0C9F1C8AE490E24C
:101FF00044DC882309F4BDCF8DE690E0E80EF91E9D
:10200000F701A081B18183E99FEFE80EF91E1097D7
:10201000D1F0ED91FC9111970280F381E02DCD017B
:1020200009958C01009779F0DC01ED91FC9101900C
:10203000F081E02D0995D801ED91FC910280F381AA
:10204000E02DC8010995EDE6F0E0EE0EFF1EF70168
:10205000A081B18183E99FEFE80EF91E109741F04E
:10206000ED91FC9111970284F385E02DCD01099546
:102070000E94EF45C701A7DEADE6B0E0EA0EFB1E09
:10208000F701A081B181109789F0ED91FC91119732
:102090000280F381E02DCD010995DC01009731F03C
:1020A000ED91FC910680F781E02D09952296E0E103
:1020B0000C94186B0F931F93CF93DF938C01EB015C
:1020C000DC01ED91FC910280F381E02D0995C817A8
:1020D000D907D9F0198F088F8A8D882349F4E881B0
:1020E000F9810088F189E02DCE01099581E08A8F80
:1020F000CE01E4D3E881F9810284F385E02DCE019D
:102100000995C8010296BE0174DCDF91CF911F9141
:102110000F910895EF92FF920F931F938C017B0113
:10212000029665DBC801B701C5DF1F910F91FF90D3
:10213000EF900895FC01E359FF4F80819181009752
:1021400009F0E8CF08950F931F93CF93DF93EC012D
:102150008B01C359DF4FA881B981CD56D04010976C
:1021600041F0ED91FC9111970088F189E02DCD01AE
:102170000995C359DF4F19830883CD56D040011507
:10218000110541F0D801ED91FC910684F785E02D11
:10219000C8010995CE015DDA892B19F0CE0159DA13
:1021A0008DD3DF91CF911F910F910895CF93DF933E
:1021B000EC018AE793E099838883CE018F5A9F4F81
:1021C0003BDBCE01855A9F4F45DBC05BDF4F18825A
:1021D000C055D040FE0180E090E2928391A78F5FCE
:1021E00031968031D1F71A8A19AECE016DE570E2D1
:1021F000AADFDF91CF9108958DE590E260E071E074
:1022000006DB85E790E2D2CFEF92FF921F93CF9348
:10221000DF937C01EB0110E06881662369F01031E7
:1022200059F01F5FD701ED91FC910680F781E02DF9
:10223000C70109952196F0CFDF91CF911F91FF90B3
:10224000EF900895FC01A081B18114962D913C91ED
:10225000159760E8F90109950895FC01A081B18105
:1022600014962D913C91159760ECF901099508950C
:10227000DC01ED91FC911197662329F00480F58132
:10228000E02D6FE004C00480F581E02D6CE009953D
:102290000895DC01ED91FC916295660F660F607CFC
:1022A000640F60680480F581E02D09950895EF9230
:1022B000FF920F931F93CF93DF938C017A01DC0180
:1022C000ED91FC916770660F660F660F6064048085
:1022D000F581E02D0995C0E0D0E0D801ED91FC91A9
:1022E000D701AC0FBD1F0680F781E02DC8016C91AE
:1022F00009952196C830D10581F7CDB7DEB7E6E064
:102300000C94226B089508950895089508950895F2
:102310000F931F93FC01748F638F568F458F30A3EB
:10232000278F12A301A31F910F910895AF92BF921F
:10233000DF92EF92FF920F931F93CF93DF93FC01F5
:10234000DB0140E050E001E010E0BC01615C7F4F48
:10235000DD24D39481E4A82EB12CAE0EBF1EEE2452
:10236000EA94FE2C8C9180FF18C011968C911197E5
:1023700090E08417950789F4C801042E02C0880FE5
:10238000991F0A94E2F7EB01288139818223932374
:10239000892B19F056AF45AFD3AE8C9181FF18C091
:1023A00011968C91119790E08417950789F4C801D4
:1023B000042E02C0880F991F0A94E2F7E5012881D4
:1023C000398182239323892B19F0F6AEE5AED3AE83
:1023D0004F5F5F4F4830510529F681E0DF91CF9183
:1023E0001F910F91FF90EF90DF90BF90AF900895F5
:1023F000FC01362F242F6381432F0C948409CF9343
:10240000DF93EC018F898823A1F085E790E260E0FB
:102410000E9431086B9685E790E2BE0163DB85E799
:1024200090E261E00E943108609685E790E2BE018B
:1024300059DBDF91CF910895CF93DF93EC018F8922
:10244000882311F041E008C0C75BDF4F8881C95481
:10245000D040882301F140E087EC9DE260E0C8DFD6
:10246000C75BDF4F87EC9DE261E04881C1DF85E714
:1024700090E260E00E943108A69785E790E2BE01F5
:1024800031DB85E790E261E00E943108609685E7E4
:1024900090E2BE0127DBDF91CF910895FC01611529
:1024A000710521F0029641E150E00EC312820895B9
:1024B000FC016115710521F0439644E050E004C32E
:1024C000138A0895EF92FF920F931F938C017A0164
:1024D00088EE93E0F80191838083118E108E178A25
:1024E000C801DCDFC801B701E3DFF801128E1F91DC
:1024F0000F91FF90EF9008950F931F938C0160E070
:1025000070E040E050E0DEDF86EA93E0F80191837E
:10251000808313AE16AE15AE138E13A61F910F91C6
:1025200008958F929F92AF92BF92CF92DF92EF92D7
:10253000FF920F931F937C016B015A01490160E0E8
:1025400070E040E050E0BEDF82ED93E0F701918360
:102550008083C701B601A5019401DADE1F910F91B6
:10256000FF90EF90DF90CF90BF90AF909F908F90B3
:102570000895CF92DF92EF92FF920F931F937C0109
:1025800060E070E040E050E020E030E000E010E08B
:10259000C8DF8CEB93E0F70191838083FAE4CF2EC0
:1025A000D12CCE0CDF1CC6010E94470A8701035ABA
:1025B0001F4FC8010E94470AC80143960E94470A5C
:1025C000C80186960E94470A84E490E0E80EF91E4E
:1025D000F70111927F01118210828BEB9FEFE80EC1
:1025E000F91EF70113A2D48EC38E168F058FC70173
:1025F00080599F4F90A3878FC7018D579F4F92A3FC
:1026000081A31F910F91FF90EF90DF90CF900895DD
:1026100084EE90E271DF87E291E2ABCFA0E0B0E020
:10262000E4E1F3E10C94026B7C0177FF03C060E00E
:1026300070E005C06D30710514F06CE070E087014A
:10264000095B1F4FD8016D937C93C0E0D0E0A3E1FC
:10265000AA2EB12C6801CA9DC001CB9D900DDA9DB8
:10266000900D1124865B9F4FF701EC0FFD1FD601E3
:102670002D913C91E20FF31F8E0D9F1D63A90E94C7
:1026800060092196C430D10531F785EC9DE261E007
:10269000F8014081FEDDCDB7DEB7EAE00C941E6B99
:1026A0000F931F93CF93DF93EC018B01FB0180818C
:1026B00080FF0DC08181853051F4C95BDF4F688197
:1026C0007981C754D04064507040CE01A7DFF80133
:1026D000808180FF0DC08181863051F4C95BDF4F5E
:1026E00068817981C754D0406C5F7F4FCE0196DFFF
:1026F000F801808180FF0BC08181843041F4CC5B84
:10270000DF4F81E0899319821882C554D040F801C7
:10271000808180FF0BC08181873041F4CC5BDF4F2B
:1027200081E0899381E090E09983888381E0DF9163
:10273000CF911F910F9108950F931F9305EC1DE208
:10274000FC01E95BFF4FC80161E04081A2DDC801E7
:1027500060E08EDD80E49CE90197F1F71F910F9115
:102760000895EF92FF920F931F938C0160E070E049
:1027700055DFB5ECEB2EBDE2FB2EC70161E078DD45
:10278000095B1F4FC70161E0F801408182DD1F91A5
:102790000F91FF90EF9008950F931F93CF93DF93C6
:1027A000EC0173D08E01075B1F4FF80180818823F5
:1027B00069F085EC9DE261E05BDDC95BDF4F85EC94
:1027C0009DE261E0488165DDF8011082DF91CF91E3
:1027D0001F910F910895A0E0B0E0E1EFF3E10C94B8
:1027E000FB6A6C013AE4A32EB12CA80EB91EEE24AC
:1027F000FF2423E1422E512C97E4692E712C6C0C9E
:102800007D1C89E4882E912C8C0C9D1C33243394E0
:10281000E49CE001E59CD00DF49CD00D1124C65B36
:10282000DF4FCC0DDD1DD501ED91FC910084F185CC
:10283000E02DCE0109958823A1F087EC9DE262E0AE
:102840004E2DD6DDF301008111810E0D1F1DCE012D
:102850000E944D090C0D1D1DD801D3968C93F401D7
:1028600030820894E11CF11C83E190E0A80EB91EAF
:1028700094E0E916F10461F6CDB7DEB7E1E10C941E
:10288000176B089580E0089508951F93CF93DF9309
:10289000EC0110E0AB8DBC8D109741F0ED91FC91F7
:1028A00011970680F781E02DCD0109951F5F2296D3
:1028B000143081F7DF91CF911F910895EF92FF922D
:1028C0000F931F938C0165E7E62E60E2F62EC70199
:1028D00060E00E943108C7010E94AA0BC70161E0B5
:1028E0000E943108C7010E94AA0B81E0F801878B82
:1028F0001F910F91FF90EF9008950F931F93CF9327
:10290000DF93182F092F85E790E260E00E943108DD
:10291000212F302FC901EC0110E0AB8DBC8D109739
:1029200071F0ED91FC9111970190F081E02DCD01B6
:102930000995AC0185E790E2612F3BD906C085E798
:1029400090E2612F49E950E097D81F5F229614303A
:1029500021F7DF91CF911F910F910895A0E0B0E092
:10296000E4EBF4E10C94046B7C01DC0157968C9150
:10297000882311F0C701C1DF85E790E261E00E9482
:1029800031088701C0E0D0E0DC2ECD2EF801A38D08
:10299000B48D109739F1ED91FC9111970084F18578
:1029A000E02DCD010995882369F4D70157968C91C4
:1029B000882341F4D8015B96ED91FC915C97868564
:1029C000882381F0D8015B96ED91FC915C97A08102
:1029D000B18150962D913C915197CF016D2D7C2D59
:1029E000F901099521960E5F1F4FC430D10561F69C
:1029F000CDB7DEB7E8E00C94206B1F93CF93DF9345
:102A0000EC0110E08B8D9C8D009711F00E94240941
:102A10001F5F22961430B1F7DF91CF911F91089577
:102A2000A8E0B0E0E6E1F5E10C94046BE82ED92EC5
:102A3000FFB6F8948E010F5F1F4FC80165E97DE274
:102A400048E050E036D08FE89DE20E948A41FFBE08
:102A50002E2D3D2DC9017C0139E0C32ED12CCC0E89
:102A6000DD1EF701A38DB48D109749F0ED91FC9117
:102A700011970480F581E02DCD01B801099582E020
:102A800090E0E80EF91E0E5F1F4F0C151D0549F76B
:102A90002896E8E00C94206BAC0120E030E0FA01CD
:102AA000E20FF31F80812F5F3F4F8823C1F7C901D9
:102AB0000895DC01FB0104C081918D934150504089
:102AC00041155105C9F70895DC01FB0104C08D9340
:102AD0003196415050404115510521F080818823A5
:102AE000B1F71C920895DC01FB0104C08D9331966F
:102AF000415050404115510541F080818823B1F784
:102B000004C0415050408D9301C080E242305105D5
:102B1000C0F7452B09F01C920895DC01FB0109C0A8
:102B20008491882311F41C9208958D93319641501D
:102B3000504041155105A1F70895FC0103C01192C1
:102B40006150704061157105D1F70895FC0103C013
:102B500041936150704061157105D1F70895FC01F2
:102B600020E030E006C08081882331F031962F5F6D
:102B70003F4F24173507BCF3421B530BCF01A4CFA3
:102B80008FB7F8942091BD213091BE218FBFC9012C
:102B90000895681B790BCB010895680F791F64179E
:102BA00075072CF0A901621773070CF4AB01CA0179
:102BB0000895FC0173836283758364830895A0E0A4
:102BC000B0E0E5EEF5E10C94046B8C016B017A0149
:102BD000C0E0D0E00DC0D801ED91FC91D601AC0F62
:102BE000BD1F0480F581E02DC8016C9109952196E7
:102BF000CE15DF0580F3CDB7DEB7E8E00C94206B8F
:102C0000DC01ED91FC911197662329F00480F58198
:102C1000E02D61E004C00480F581E02D60E00995BD
:102C20000895089580E090E00895FC018EEF93E010
:102C300091838083089570E090E09695982F88277F
:102C400097958795682B792BCB010895CF93DF93C8
:102C5000DC01C0E0D0E023E030E0AB014450504064
:102C600008C0FD01E20FF31F8081C80FD11D2F5F47
:102C70003F4F24173507A8F3FD01E60FF71FDF01CB
:102C80001397349780816C91D6DF20E0DF73C817EB
:102C9000D90709F421E0822FDF91CF910895FC013B
:102CA00073836283758364830895A1E0B0E0EBE5EC
:102CB000F6E10C94086BDC018B01ED91FC91048032
:102CC000F581E02DBE016F5F7F4F099590E089810E
:102CD000811191E0F80190832196E4E00C94246B3B
:102CE000A1E0B0E0E6E7F6E10C940A6BFC01A081FC
:102CF000B18114962D913C911597BE016F5F7F4F66
:102D0000F90109952196E2E00C94266BEF92FF926F
:102D10000F931F93CF93DF938C017B01C0E0D0E032
:102D200009C0D801ED91FC910680F781E02DC80122
:102D300009952196CE15DF05A0F3CDB7DEB7E6E005
:102D40000C94226BFC0181E0878716820895FC01B8
:102D500081E082871186108608950F931F93CF9389
:102D6000DF93EC018A0125DF1C870B87012B31F0F3
:102D7000CE010D969D838C839B838A831F8A1E8A36
:102D80001D8A1F821E82CE01E2DFDF91CF911F914B
:102D90000F9108950F931F938C01DC01ED91FC912D
:102DA0000680F781E02D0995F801128611861086BC
:102DB0001F910F9108950F931F938C01DC01ED91EA
:102DC000FC910680F781E02D0995C801C0DF1F91B5
:102DD0000F910895FC01168A158A81E0878B08956A
:102DE000EF92FF920F931F938C01DC011696ED90EA
:102DF000FC901797EBEFFFEFEE0EFF1E57961C921D
:102E0000C9DFD801ED91FC91119755966D917C9198
:102E10005697660F672F661F770B71956F77048043
:102E2000F581E02DC8010995D801ED91FC9111972C
:102E300055966C916F770480F581E02DC801099556
:102E4000D801ED91FC91B701660F672F661F770BD4
:102E500071956F770480F581E02DC8010995D8013F
:102E6000ED91FC91BFE7EB220480F581E02DC801D4
:102E70006E2D0995D801ED91FC910480F581E02D2E
:102E8000C80167EF09951F910F91FF90EF9008958A
:102E90000F931F93CF93DF93EC018885998500975B
:102EA00011F400E002C0082F0F5F198618868F8981
:102EB000882381F030E00CC0EC81FD81E30FF11D2F
:102EC00020818D899E89820F911D9E8B8D8B3F5F06
:102ED000301790F38B859C85892BC1F010E011C0D1
:102EE0008B859C85FC01A081B181EC81FD81E10F86
:102EF000F11D14962D913C9115976081F90109956A
:102F00001F5F101768F38A819B8104C08C819D81AB
:102F1000800F911D9D838C832E813F81200F311D59
:102F20003F832E83C901DF91CF911F910F910895A7
:102F30000F931F93CF93DF93EC0188859985892B9D
:102F400019F4EC81FD811082EC81FD81462F441F34
:102F50004427441F50E086E090E028853985821B95
:102F6000930B02C0440F551F8A95E2F78081842B92
:102F70008083EC81FD8188859985E80FF91F6F7743
:102F8000618388859985019699878887079709F0D5
:102F90003FC08E819F8108969F838E838F8988236F
:102FA00091F040E050E0EC81FD81E40FF51F2081BD
:102FB0008D899E89820F911D9E8B8D8B4F5F5F4FF8
:102FC0004830510581F78B859C85892BD1F000E035
:102FD00010E08B859C85FC01A081B181EA81FB8199
:102FE000E00FF11F14962D913C9115976081F90126
:102FF00009950F5F1F4F0830110559F78A819B8192
:1030000003C08C819D8108969D838C8319861886C8
:10301000DF91CF911F910F910895CF93DF93EC0132
:103020008A85882319F0CE0183DF20C08F89882309
:1030300031F08D899E89860F911D9E8B8D8BAB857E
:10304000BC85109749F0ED91FC9111970480F581B2
:10305000E02DCD01099505C0EC81FD816193FD83D3
:10306000EC838E819F8101969F838E83DF91CF9128
:1030700008950F931F938C0112DEC80163DE1F9128
:103080000F910895CF93DF93DC01EB011F968C9194
:103090001F97882399F116962C911697822F90E00E
:1030A00087709070892B81F41496ED91FC9115979F
:1030B000819117968C9317971596FC93EE9314971E
:1030C0002F5F16962C93169717968C911797880F4B
:1030D00017968C93179780781496ED91FC9115971D
:1030E0009191892B88831596FC93EE9314971696ED
:1030F0008C9116978F5F16968C930AC01496ED915B
:10310000FC911597819188831596FC93EE93149703
:10311000DF91CF910895FC012481A62FB0E096E0C5
:10312000AA0FBB1F9A95E1F71696AE0FBF1F90E04E
:1031300006C08D918F3F11F080E008959F5F921738
:10314000C0F381E008950F931F93CF93DF93EC01B9
:10315000062F112707FD10958D8190E0081719079C
:10316000A4F590E0980146E0220F331F4A95E1F75D
:103170002C0F3D1F4FEF05C0F901E90FF11D4683EC
:103180009F5F8C819817C0F3FE01E00FF11FEA5F8B
:10319000FF4E6081E650F0416F3F69F0EA5BFF4E01
:1031A00040814F3F41F0E881F981068CF78DE02D99
:1031B000CE012FEF0995FE01E00FF11FEA5FFF4EF0
:1031C0008FEF8083E05CFF4F8083DF91CF911F9171
:1031D0000F910895CF93DF93EC01E881F981048C7E
:1031E000F58DE02D0995682F8F3F11F0CE01ABDFF3
:1031F000DF91CF9108950F931F93CF93DF93EC014D
:10320000062F10E005C0CE01602F412FE3DF1F5FC6
:103210008A811817C0F3DF91CF911F910F91089504
:10322000EF92FF920F931F93CF93DF93EC01F62E53
:10323000E42E022FE881F981048CF58DE02D422FD8
:103240000995182F8F3FE9F0E82FFF27E7FDF0954C
:1032500056E0EE0FFF1F5A95E1F7EC0FFD1FEE0D44
:10326000F11D8FEF8683E881F9810684F785E02DD3
:10327000CE016F2D402F0995882319F0CE01612FC3
:1032800062DFCDB7DEB7E6E00C94226BFC0125814E
:10329000EA5FFF4E90E00EC080818F3F49F4E05C12
:1032A000FF4F8081E054F0408F3F11F4892F089543
:1032B0009F5F3196921780F38FEF0895A0E0B0E002
:1032C000E4E6F9E10C94056BEC01F62ED42EE22E27
:1032D000E881F981048CF58DE02D422F0995182F96
:1032E0008F3F89F5CE01D2DF182F8F3F11F480E098
:1032F00039C0E881F981068CF78DE02DCE016F2D64
:103300004E2D212F0995812F992787FD9095FE013C
:10331000E80FF91FEA5FFF4EF082E05CFF4FE082AA
:1033200040E09C01E6E0220F331FEA95E1F72C0F05
:103330003D1F9FEF05C0F901E40FF11D96834F5F1C
:103340008C814817C0F3812F992787FD909576E0EF
:10335000880F991F7A95E1F7C80FD91FCD0DD11DA0
:103360000E8381E0CDB7DEB7E7E00C94216BA0E0DF
:10337000B0E0EDEBF9E10C94036B8C01EE24BB247F
:10338000BA942FC0CE2CDD24E801CC0DDD1DCA5F20
:10339000DF4EF880C650D0418FEFF816F1F0C8012B
:1033A0006E2DB9DE8823E1F0CA5BDF4E48814F3FC6
:1033B00051F0D801ED91FC91068CF78DE02DC801FC
:1033C0006F2D2FEF0995F801EC0DFD1DEA5FFF4E03
:1033D000B082E05CFF4FB08203C0CA5BDF4EF88270
:1033E000E394F8018581E81668F2CDB7DEB7E9E02D
:1033F0000C941F6BFC01608312828FEF8183089510
:10340000FC018081861719F4418381E0828308954D
:1034100021E0FC0122830895CF93DF93FC018FEF1D
:103420009FEF918380839383828397838683E35C7A
:10343000FA4F1082ED53F540AFE9B2E0EF01C3550A
:10344000DB4F8D91899382E0AF3AB807D1F7E5560B
:10345000FB4F1082EB59F4401086DF91CF91089515
:10346000FA01262F2F702F5F62956F706F5B60835C
:10347000822F6AE00E948A6A805D8183822F0E9487
:103480008A6A905D928380E2838314820895362F46
:10349000242FFC01E35CFA4FE081EF3751F0669591
:1034A00066956E0F3370345F87EC9DE2432F0C946A
:1034B000840908950F931F93CF93DF93EC018B0141
:1034C000B9019A0158A9583010F080E048C0FC01B9
:1034D00040E0D901A170B07018C08081918180173F
:1034E000910789F4828193818617970761F484811B
:1034F00095818217930791F16115710521F4109759
:1035000011F480FF2BC04F5F3696451730F3852F9F
:1035100090E0FC01EE0FFF1FE80FF91FEE0FFF1FF9
:10352000EC0FFD1F1183008388A990E0FC01EE0FD2
:10353000FF1FE80FF91FDF01AA0FBB1FAC0FBD1F54
:1035400015963C932E9314973196EE0FFF1FEC0FB8
:10355000FD1F7183608388A98F5F88AB81E0DF9155
:10356000CF911F910F91089585539F4FA3CF0F9334
:103570001F93CF93DF93EC018B01B9019A0158A9F6
:10358000583010F080E048C0FC0140E0D901A17043
:10359000B07018C0808191818017910789F4828171
:1035A00093818617970761F4848195818217930729
:1035B00091F16115710521F4109711F480FF2BC072
:1035C0004F5F3696451730F3852F90E0FC01EE0FE4
:1035D000FF1FE80FF91FEE0FFF1FEC0FFD1F1183F8
:1035E000008388A990E0FC01EE0FFF1FE80FF91F90
:1035F000DF01AA0FBB1FAC0FBD1F15963C932E9386
:1036000014973196EE0FFF1FEC0FFD1F718360833F
:1036100088A98F5F88AB81E0DF91CF911F910F91D7
:1036200008950796A4CF86569F4FA1CFC8969FCFE7
:1036300081EC91E2F1CEFF920F931F93CF93DF9332
:10364000EC018B01FFB6F8942CC0242F30E0F90177
:10365000EE0FFF1FE20FF31FEE0FFF1FEC0FFD1F1A
:103660008081918180179107F1F4C9010196BC0115
:10367000660F771F680F791F660F771F6C0F7D1F0E
:10368000852F90E00197821B930BAC01440F551FCF
:10369000480F591F440F551FCF010BDA88A98150DD
:1036A00088AB40E001C04F5F58A9451770F2FFBEDC
:1036B000CDB7DEB7E5E00C94236B0796BCCF8656FA
:1036C0009F4FB9CFC896B7CFFF920F931F93CF9359
:1036D000DF93EC018B01FFB6F8942CC0242F30E06F
:1036E000F901EE0FFF1FE20FF31FEE0FFF1FEC0FAC
:1036F000FD1F8081918180179107F1F4C901019626
:10370000BC01660F771F680F791F660F771F6C0F5C
:103710007D1F852F90E00197821B930BAC01440F16
:10372000551F480F591F440F551FCF01C2D988A9F3
:10373000815088AB40E001C04F5F58A9451770F237
:10374000FFBECDB7DEB7E5E00C94236B85539F4FEA
:10375000BBCFA0E0B0E0EFEAFBE10C94046B8B017F
:103760006A010EDA7C010CDAEC0180913220825081
:10377000823020F480E090E20E94FC050E94BF4C61
:1037800085E790E20E94E30EC701BE0102DA8C15C4
:103790009D0520F4F8018281882329F3F8018281B4
:1037A000CDB7DEB7E8E00C94206BDF92EF92FF928A
:1037B0000F931F938B01D42E37ECE32E3DE2F32EB3
:1037C000C70160EF0E945644C7016AE972E045E014
:1037D00050E00E946D06C701B8014D2D50E00E94D7
:1037E0006D06C70167EF0E9456441F910F91FF902D
:1037F000EF90DF900895A3E0B0E0E1E0FCE10C94ED
:103800000A6BFE01319683E0DF011D928A95E9F78C
:1038100081E789836F776A834F774B8381EC91E2ED
:10382000BF0143E0C2DF2396E2E00C94266B462FF3
:1038300064E0E1CF462F62E0DECFA2E0B0E0E3E259
:10384000FCE10C940A6B89E589836F776A8381ECCC
:1038500091E2BE016F5F7F4F42E0A7DF2296E2E078
:103860000C94266BA3E0B0E0E8E3FCE10C940A6B57
:10387000FE01319683E0DF011D928A95E9F78CE520
:1038800089836A834B8381EC91E2BF0143E08DDF42
:103890002396E2E00C94266BA1E0B0E0E2E5FCE1C7
:1038A0000C940A6B84E6898381EC91E2BE016F5F20
:1038B0007F4F41E07ADF2196E2E00C94266BA3E093
:1038C000B0E0E5E6FCE10C940A6BFE01319683E082
:1038D000DF011D928A95E9F729836A834B8381EC86
:1038E00091E2BF0143E061DF2396E2E00C94266B96
:1038F000EF92FF920F931F93162F042F57ECE52E94
:103900005DE2F52EC70160EF0E945644C7016AE9E7
:1039100072E045E050E00E946D06C701612F0E94F1
:103920005644C701602F0E945644C70167EF0E94AA
:1039300056441F910F91FF90EF900895A3E0B0E0DF
:10394000E4EAFCE10C94016B6C01962E5A018E01A5
:103950000F5F1F4FC8014EDD20E03AE140E050E02C
:103960006DE4E62E6BE2F62EC701B801FDDD81ECB9
:1039700091E260E7492DBCDFC601B801A501E9DE8F
:10398000C701B801E3DE8A812396EBE00C941D6B3E
:10399000AB0164E0D3DF8F3F21F08093C721109209
:1039A000C8210895AB0162E0C9DF8F3F21F0809309
:1039B000C3211092C4210895AB0162E2BFDF8F3FA3
:1039C00021F08093C5211092C6210895462F61E50C
:1039D0008FCF462F68E68CCFA3E0B0E0E2EFFCE1AA
:1039E0000C94016B7C01962E5A018E010F5F1F4FC4
:1039F000C80160E0FFDC28E03AE140E050E0EDE49F
:103A0000CE2EEBE2DE2EC601B8010DDE81EC91E296
:103A1000692DDFDFC701B801A5019BDEF82EC601C5
:103A2000B8014DDE8F2D2396EBE00C941D6B462FD5
:103A300063E55ECFA3E0B0E0E0E2FDE10C94016B52
:103A40007C01962E5A018E010F5F1F4FC80160E066
:103A5000D1DC28E03AE140E050E0FDE4CF2EFBE28B
:103A6000DF2EC601B801E2DD81EC91E2692DDFDFD6
:103A7000C701B801A5016DDEF82EC601B80122DE2E
:103A80008F2D2396EBE00C941D6BFC0110821182AC
:103A9000128213821482178216828FE7858308951B
:103AA00084E197E2F2CFFF920F931F938C01F62EE1
:103AB000672FDC01ED91FC910480F581E02D0995E3
:103AC000D801ED91FC910480F581E02DC8016F2DA6
:103AD00009951F910F91FF900895CF92DF92EF9279
:103AE000FF920F931F938C016A017B01DC01ED9122
:103AF000FC91272F3327442755270480F581E02D9B
:103B0000622F0995D801ED91FC9197014427552723
:103B10000480F581E02DC801622F0995D801ED914F
:103B2000FC9155274F2D3E2D2D2D0480F581E02D44
:103B3000C801622F0995D801ED91FC910480F581AF
:103B4000E02DC8016C2D09951F910F91FF90EF900A
:103B5000DF90CF900895A0E0B0E0E1EBFDE10C94A0
:103B6000046B6C017A018B01C0E0D0E009C0F80160
:103B700041915191619171918F01C601AEDF219602
:103B8000CE15DF05A0F3CDB7DEB7E8E00C94206BCF
:103B9000FC0186E294E09183808308950895A2E079
:103BA000B0E0E5EDFDE10C94066B8C017B01DC01DE
:103BB000ED91FC910480F581E02DBE016F5F7F4F98
:103BC0000995D801ED91FC910480F581E02DC801A3
:103BD000BE016E5F7F4F0995998180E02A8130E0B8
:103BE000822B932BF701918380832296E6E00C943D
:103BF000226BA4E0B0E0EFEFFDE10C94066B8C01CA
:103C00007B01BE016F5F7F4FCADFC801BE016D5FE0
:103C10007F4FC5DF89819A81A0E0B0E0DC01992760
:103C200088272B813C8140E050E0822B932BA42BF2
:103C3000B52BF70180839183A283B3832496E6E0BA
:103C40000C94226BA0E0B0E0E8E2FEE10C94046B7F
:103C50006C017A018B01C0E0D0E006C0C601B8015A
:103C6000C8DF21960C5F1F4FCE15DF05B8F3CDB727
:103C7000DEB7E8E00C94206BA0E0B0E0E2E4FEE107
:103C80000C94046B8C016B017A01C0E0D0E00CC095
:103C9000D801ED91FC91B6016C0F7D1F0480F58178
:103CA000E02DC80109952196CE15DF0588F3CE01D8
:103CB000CDB7DEB7E8E00C94206BFC0117860895C1
:103CC000A0E0B0E0E6E6FEE10C94026B7C01EB01C3
:103CD000CB0160D8E881F9810480F581E02DCE0127
:103CE00060EF0995DC2ECD2ECE016AE972E045E049
:103CF00050E00E94DF15E881F9810480F581E02D14
:103D0000CE0162E50995E881F9810480F581E02D15
:103D1000CE0164E00995E881F9810480F581E02D08
:103D2000CE0161E00995CE0155D8E881F981048082
:103D3000F581E02DCE01D7016D918D010995CE0160
:103D4000B80140E150E00E94DF15F701118AB70188
:103D50006E5E7F4FCE0140E851E00E94DF15B70153
:103D60006E567E4FCE0140E150E00E94DF15CE013D
:103D70000E94A716B7016E557E4FCE0140E150E07C
:103D8000EADECE0107D8CE010E94A71600E010E0BF
:103D900047E2A42EB12C0A9DB0010B9D700D1A9D17
:103DA000700D11246E517E4F6E0D7F1D8D2D9C2D3B
:103DB00045E050E00E94DF15B801645E784D8D2D1E
:103DC0009C2D4FE150E00E94DF150F5F1F4F003127
:103DD000110509F7CE010E94CA1682E594E0E80EAB
:103DE000F91E8D2D9C2DB70148E050E00E94DF1593
:103DF000A8E0B0E0EA0EFB1E8D2D9C2DB70148E037
:103E000050E00E94DF15E8E0F0E0EE0EFF1E8D2D81
:103E10009C2DB70148E050E00E94DF1588E090E05B
:103E2000E80EF91E8D2D9C2DB70148E050E00E9450
:103E3000DF15CE010E94A716A8E0B0E0EA0EFB1E37
:103E40008D2D9C2DB70140E150E00E94DF15E0E18F
:103E5000F0E0EE0EFF1E8D2D9C2DB70140E150E0ED
:103E60000E94DF15E881F9810680F781E02DCE01FF
:103E700009958C01CE010E94F0160B5F1F4FC801FF
:103E8000CDB7DEB7EAE00C941E6BA0E0B0E0EBE447
:103E9000FFE10C94046B7C01EB01CB010E94CA167C
:103EA000E881F9810480F581E02DCE0160EF09956C
:103EB000DC2ECD2ECE016AE972E045E050E00E9492
:103EC000DF15E881F9810480F581E02DCE0160E500
:103ED0000995E881F9810480F581E02DCE0165E046
:103EE0000995E881F9810480F581E02DCE0161E03A
:103EF0000995CE010E94EA16E881F9810480F581D6
:103F0000E02DCE01D7016D918D010995CE01B8014B
:103F100040E150E00E94DF15CE010E94A716E1E2C9
:103F2000F0E0EE0EFF1ECE01B70140E850E00E9427
:103F3000DF15CE010E94CA16E881F98120E830E041
:103F4000E20EF31E0480F581E02DCE01D7016D91C4
:103F50007D010995E881F9810480F581E02DCE018C
:103F6000D7016D917D010995F701619171917F01F3
:103F7000CE0199DDE881F9810280F381E02DCE0147
:103F8000D7016D917D010995F701608122E030E054
:103F9000E20EF31ED7018C91E8E5FFEFEE0EFF1E57
:103FA000882309F4606127EA30E0E20EF31ED701AE
:103FB0008C91E9E5FFEFEE0EFF1E8111606229EAA8
:103FC00030E0E20EF31ED7018C91E7E5FFEFEE0E35
:103FD000FF1E81116064E881F9810480F581E02D84
:103FE000CE010995E881F9812AEA30E0E20EF31E5C
:103FF0000280F381E02D8D2D9C2DD7016D917D01E7
:104000000995B7018D2D9C2D4CE050E00E94DF15E5
:10401000E881F9810680F781E02DCE0109958C01B8
:10402000CE010E94F0160B5F1F4FC801CDB7DEB75F
:10403000E8E00C94206BEF92FF920F931F938C019A
:104040007B01A6DD8AE094E0F80191838083C801BA
:10405000B7010FD81F910F91FF90EF900895A0E145
:10406000B0E0E5E3F0E20C94006B6C015B018A01C7
:1040700084E04A3C5807C1F085E790E264E071E0D3
:104080004EE051E028E532E00E94440E85E790E2E0
:1040900061E00E94310885E790E260E0A80128E530
:1040A00032E00E94B60E11C0CB016AEC74E00E94AF
:1040B0002616882361F485E790E26FE071E04EE018
:1040C00051E028E532E00E94440E80E0A2C0F501F4
:1040D0008381F60181937F0184E090E0A80EB91EF0
:1040E0008E010F5F1F4FC801B501A5DF85E790E284
:1040F00061E00E943108C801E0DDC801B70140E17C
:1041000050E0BADDF601118AB6016E5E7F4FC8013C
:1041100040E851E0B1DDB6016E567E4FC80140E186
:1041200050E0AADDC8010E94A216B6016E557E4F6E
:10413000C80140E150E086DDC801BFDDC8010E9432
:10414000A216AA24BB2477E2872E912CE12EA89CEC
:10415000B001A99C700DB89C700D11246E517E4F5A
:104160006C0D7D1D802F9E2D45E050E085DD802F5C
:104170009E2D6CE177E24FE150E07EDD0894A11CBA
:10418000B11CF0E1AF16B10411F7802F9E2D95DD23
:1041900082E594E0C80ED91E802F9E2DB60148E01E
:1041A00050E06ADDE8E0F0E0CE0EDF1E802F9E2DAD
:1041B000B60148E050E060DD88E090E0C80ED91E0E
:1041C000802F9E2DB60148E050E056DDE8E0F0E09B
:1041D000CE0EDF1E802F9E2DB60148E050E04CDD54
:1041E000802F9E2D0E94A21688E090E0C80ED91E56
:1041F000802F9E2DB60140E150E03EDDE0E1F0E091
:10420000CE0EDF1E802F9E2DB60140E150E034DD42
:1042100081E06096ECE00C941C6BA1E1B0E0E3E17E
:10422000F1E20C94026B6C015B014E3B510509F00D
:104230009FC0CB016EEB70E00E942616882309F424
:1042400097C0F5018381F60181938F0182E0E82E0A
:10425000F12CEC0EFD1E24E030E0A20EB31EC701CF
:10426000B501E9DEC70129DDC701B80140E150E031
:1042700003DDC7010E94A21681E290E0C80ED91E9C
:10428000C701B60140E850E0F7DCC70116DDE0E801
:10429000F0E0CE0EDF1EC701B6010E94421808945E
:1042A000C11CD11CC701B6010E9442180894C11C50
:1042B000D11CC701B60173DC22E030E0C20ED31E70
:1042C000C701B6010E9455161982C701BE016F5F72
:1042D0007F4F0E944218898190E00894C11CD11C34
:1042E0009C0121703070F601208322E030E0C20E84
:1042F000D31EB4E096958795BA95E1F7282F2170E3
:10430000F601208396958795282F217022936F01BF
:1043100022E030E0C20ED31E969587958170F6019B
:10432000808327E53FEFC20ED31EB60166557F4F4F
:10433000C7010E945516B60165557F4FC7014CE075
:1043400050E09ADC4C2DD601960120583F4F9196B3
:104350008C919197803130F4F601E80FF11D8A2F8E
:10436000841B818B1196A217B30789F781E001C0E6
:1043700080E06196EAE00C941E6BA0E0B0E0E3EC14
:10438000F1E20C94056B8C01D62E7A01C0E0D0E0EE
:104390000AC0D801ED91FC910480F581E02DC8019F
:1043A0006D2D09952196CE15DF0598F3CDB7DEB7B3
:1043B000E7E00C94216BA0E0B0E0E1EEF1E20C94B8
:1043C000046B6C017A018B01C0E0D0E00AC0F801F7
:1043D0004081518162817381C6017FDB2196085F34
:1043E0001F4FCE15DF0598F3CDB7DEB7E8E00C948C
:1043F000206BEF92FF920F931F937C01F901DA017A
:10440000CB019801AF01BD0100E20E946502FA01F3
:10441000C701A901BF0161DB1F910F91FF90EF90D0
:104420000895A0E0B0E0E7E1F2E20C94026B5C01D9
:104430006A01EB01EE24FF240EC0088119812A8154
:104440003B814C815D816E817F81C501D2DF089403
:10445000E11CF11C2896EC14FD0478F3CDB7DEB70F
:10446000EAE00C941E6BA4E0B0E0E9E3F2E20C9405
:10447000086B8B01BE016F5F7F4FBBDB29813A81E7
:104480004B815C81F8012083318342835383148202
:104490001582168217822496E4E00C94246BA0E027
:1044A000B0E0E5E5F2E20C94046B6C017A018B015B
:1044B000C0E0D0E006C0C601B801D5DF2196085F94
:1044C0001F4FCE15DF05B8F3CDB7DEB7E8E00C948B
:1044D000206BA4E0B0E0EFE6F2E20C94006B4B013D
:1044E000BE016F5F7F4F85DBA980BA80CB80DC8007
:1044F000EE24FF2487019501A60160E070E080E0D2
:1045000090E000E20E94E402D401EC91E22BEC93F3
:1045100011962C911197232B11962C93119712968B
:104520002C911297242B12962C93129713962C9160
:104530001397252B13962C93139714962C9114975D
:10454000262B14962C93149715962C911597272BA0
:1045500015962C93159716962C911697282B169630
:104560002C93169717968C911797892B17968C93E7
:104570002496ECE00C941C6BA0E0B0E0E2ECF2E2DC
:104580000C94046B6C017A018B01C0E0D0E006C092
:10459000C601B8019EDF2196085F1F4FCE15DF05CB
:1045A000B8F3CDB7DEB7E8E00C94206BA1E0B0E043
:1045B000ECEDF2E20C940A6BFC01A081B18114963F
:1045C0002D913C911597BE016F5F7F4FF9010995C1
:1045D00089812196E2E00C94266BFC01A081B181D7
:1045E00052962D913C915397F9010995089581E0D8
:1045F0000895FC01EA57FF4E80810895FC01EA57B7
:10460000FF4E60830895FC01E959FE4E80810895B4
:10461000FC01E959FE4E60830895FC01EC59FE4E01
:1046200080810895FC01EC59FE4E6083089570E08E
:10463000FB01EE0FFF1FE60FF71F53E0EE0FFF1F0A
:104640005A95E1F7E80FF91FE40FF11DEA50FD4E0E
:104650008081089570E0FB01EE0FFF1FE60FF71F4A
:10466000B3E0EE0FFF1FBA95E1F7E80FF91FE40F73
:10467000F11DEA50FD4E20830895EF92FF920F93B3
:104680001F93CF93DF93042FC62FD0E043E0CC0FCE
:10469000DD1F4A95E1F7C80FD91FC957DF4E21E04A
:1046A00030E040E050E060E070E080E090E00E94A8
:1046B000E402E881F981AA81BB811C810D81FE8021
:1046C000EF80E22BF32BA42BB52B162B072BF82A0C
:1046D000E92AE883F983AA83BB831C830D83FE82C6
:1046E000EF82CDB7DEB7E6E00C94226B0F93E62F96
:1046F000042FF0E053E0EE0FFF1F5A95E1F7E80FAB
:10470000F91FE957FF4E2081318142815381648135
:104710007581868197810E946502822F81700F9139
:104720000895A0E0B0E0E7E9F3E20C94FE6A7C01B2
:104730008C01095F1E4EC0E0D0E0E1E0AE2EB12C4E
:10474000C12CD12CD8011D921D921D921C92139741
:10475000FE01EE0FFF1FEC0FFD1F63E0EE0FFF1FCA
:104760006A95E1F7EA50FD4EEE0DFF1D60E070E046
:1047700080818F3FC9F0A6019501062E04C0220F4B
:10478000331F441F551F0A94D2F7D8016D907D90B6
:104790008D909C901397622A732A842A952A6D9291
:1047A0007D928D929C9213976F5F7F4F3196683107
:1047B0007105F1F621960C5F1F4FC031D10511F63E
:1047C000CDB7DEB7EEE00C941A6BDC0170E0FB01B4
:1047D00083E0EE0FFF1F8A95E1F7EA0FFB1FE95711
:1047E000FF4E80819181892B9281892B9381892B26
:1047F0009481892B9581892B9681892B9781892B8F
:1048000011F020E013C020E0660F771F660F771FBE
:10481000A60FB71FA95FBE4E8D919D910D90BC91C3
:10482000A02D0097A105B10509F421E0822F08957C
:10483000DF92EF92FF920F931F937C01162FD42EDD
:10484000022F20E00E945E19D701ED91FC910688AD
:10485000F789E02DC701612F4D2D09951F910F910B
:10486000FF90EF90DF900895A0E0B0E0EAE3F4E27B
:104870000C94006B5C01862E942EE62EFF2403E040
:10488000EE0CFF1C0A95E1F7E80EF91E87E890E1AF
:10489000E80EF91E21E030E040E050E060E070E01A
:1048A00080E090E0092D0E94E4022095309540952B
:1048B00050956095709580959095D701EC911196E3
:1048C000FC9111971296AC91E701BB811C810D817F
:1048D000DE80CF80E223F323A423B523162307230E
:1048E000D822C922E883F983AA83BB831C830D8362
:1048F000DE82CF820A2DAB2C10E0802F9A2D682DFE
:10490000492D212F0E9410191F5F1831B1F7CDB723
:10491000DEB7ECE00C941C6B0F931F93CF93DF93E7
:10492000EC01062F603188F410E0E881F981028CF7
:10493000F38DE02DCE01602F412F09951F5F1034BC
:10494000A1F7CE01602F0E94FB18DF91CF911F913C
:104950000F9108952F923F924F925F926F927F92A4
:104960009F92AF92BF92CF92DF92EF92FF920F93FE
:104970001F93DF93CF93CDB7DEB728970FB6F89488
:10498000DEBF0FBECDBF7C016B01FC01EA58FB4EC0
:1049900090E024E631E1E20EF31ED7018C912CE980
:1049A0003EEEE20EF31E813208F091E09083C701E3
:1049B0000E94B719D701ED91FC9100A0F1A1E02D63
:1049C000C7010995E6E7F4E1EE0EFF1ED7018C91D1
:1049D000EAE8FBEEEE0EFF1E882329F426EC3AE00F
:1049E0003A83298304C08DE195E19A838983C601C6
:1049F0000E94CA16D601ED91FC910480F581E02D4C
:104A0000C60160EF0995AC2C9D2CC6016AE972E0E5
:104A100045E050E00E94DF15D601ED91FC91048045
:104A2000F581E02DC60167E60995D601ED91FC916F
:104A30000480F581E02DC60163E00995D601ED9172
:104A4000FC910480F581E02DC60161E00995C60165
:104A50000E94EA16D601ED91FC91D701AA57BF4EEC
:104A60000480F581E02DC6016C910995C6010E9474
:104A7000A716F701E957FF4EFE83ED83C601BF017C
:104A800040E150E098DCC6010E94DB1627E031E1EE
:104A9000E20EF31EC601B70140E150E05CD8C6014A
:104AA0000E94DB1680E490E0E80EF91ED7014D91DC
:104AB0005D916D917C91C60110D8E8E0F0E0EE0EBA
:104AC000FF1ED7014D915D916D917C91C60105D876
:104AD000E8E0F0E0EE0EFF1ED7014D915D916D9183
:104AE0007C91C6010E946D1DE8E0F0E0EE0EFF1E15
:104AF000D7014D915D916D917C91E1EAFEEEEE0E54
:104B0000FF1EC6010E946D1DC6010E94CA16D60175
:104B1000ED91FC91D701AD59BE4E0480F581E02D99
:104B2000C6016C910995D601ED91FC91D701AC5964
:104B3000BE4E0480F581E02DC6016C910995D60129
:104B4000ED91FC91D701AB59BE4E0480F581E02D6B
:104B5000C6016C910995D601ED91FC91D701AA5936
:104B6000BE4E0480F581E02DC6016C910995D601F9
:104B7000ED91FC91D701A959BE4E0480F581E02D3D
:104B8000C6016C910995D601ED91FC91D701A85908
:104B9000BE4E0480F581E02DC6016C910995C601D9
:104BA0000E94A7164EE0442E43E1542E4E0C5F1C8B
:104BB0003201BB2400E010E02AC0F10160816F3FA8
:104BC000B1F0FFE3FB1598F0772767FD709536E0AD
:104BD000660F771F3A95E1F76A5F7F4F6E0D7F1D75
:104BE0008A2D992D40E250E00E94DF15B39408947D
:104BF000211C311C2614370401F70F5F1F4F28E1D9
:104C0000622E712C620C731C0031110589F01801A1
:104C1000220C331C200E311E83E0220C331C8A959B
:104C2000E1F726EF32E1220E331E2E0C3F1CC5CFDA
:104C300040E450E04B195109B5E0440F551FBA95B7
:104C4000E1F78A2D992D6FEF98DBC6010E94DB16E4
:104C500089E691E1E80EF91ED7014D915D916D91C4
:104C60007D917D018A2D992D0E946D1DF701419145
:104C70005191619171917F018A2D992D0E946D1D35
:104C8000D7014D915D916D917C91EFE8FEEEEE0EB6
:104C9000FF1E8A2D992D0E946D1D97012B583E4EA7
:104CA0003C832B838A2D992DB90140E150E083DBB1
:104CB000A5EF2A2EA1E13A2E2E0C3F1C8A2D992D0C
:104CC000B10140E150E077DBF5E76F2EF2E17F2E96
:104CD0006E0C7F1C8A2D992DB30140E150E06BDBF7
:104CE000D601ED91FC910680F781E02DC601099572
:104CF000E6E7F4E1EE0EFF1ED7018C91EAE8FBEE49
:104D0000EE0EFF1E882309F49EC0C6010E94A7165E
:104D10008A2D992D6D817E8140E150E082DBF70183
:104D2000E95BFE4E008111812281338144815581EE
:104D3000668177818A2D992D5CDBF701E15BFE4E60
:104D4000008111812281338144815581668177817F
:104D50008A2D992D4EDBF701E95AFE4E0081118113
:104D60002281338144815581668177818A2D992DF5
:104D700040DBBB2400E010E02DC0AF81B8856C9112
:104D80006F3FB1F0BFE3BB1598F0772767FD7095D3
:104D9000E6E0660F771FEA95E1F76E0D7F1D6A5D0D
:104DA0007F4F8A2D992D40E250E00E94DF15B39489
:104DB000EF81F8853196F887EF83E415F505E9F67C
:104DC0000F5F1F4F58E1452E512C4E0E5F1E0031D4
:104DD000110589F09801220F331F200F311F93E036
:104DE000220F331F9A95E1F72A503D4E2E0D3F1D9D
:104DF00038872F83C2CF40E450E04B19510985E03A
:104E0000440F551F8A95E1F78A2D992D6FEFB5DA7A
:104E10008A2D992D6B817C8140E150E002DB8A2D47
:104E2000992DB10140E150E0FCDA8A2D992DB301B2
:104E300040E150E0F6DAD601ED91FC910680F78171
:104E4000E02DC6010995C6010E94F01629813A811C
:104E50002B5F3F4FC90128960FB6F894DEBF0FBEF7
:104E6000CDBFCF91DF911F910F91FF90EF90DF9019
:104E7000CF90BF90AF909F907F906F905F904F903A
:104E80003F902F900895A6E1B0E0E9E4F7E20C949A
:104E9000FA6A7C016B018A01A0DB2AE0043C12075C
:104EA00071F035E10B31130751F085E790E26BE1CA
:104EB00071E048E552E00E943F0E80E071C1F701C9
:104EC000EA58FB4E108285E10B31180711F481E09E
:104ED0008083C601B8010E942616882309F460C1A8
:104EE000E6E8F0E1EE0EFF1EF6018381F701808314
:104EF0002AE73FEEE20EF31E84E090E0C80ED91ED2
:104F00008E010F5F1F4FC801B60195D8F701E95711
:104F1000FF4EFE8BED8BC801BF0140E150E0BFDAD0
:104F2000C8010E94A21637E0432E31E1532E4E0CE9
:104F30005F1CC801B20140E150E00E94221EC8017E
:104F40000E94A2169701295B3E4E3C8B2B8BC80119
:104F5000B90189DAC701815B9E4E9A8B898BC801A2
:104F600069897A8980DA27E5222E21E1322E2E0CFA
:104F70003F1CC801B10177DAEFE5F1E1EE0EFF1E4B
:104F8000C801B7010E94F91DC8010E945D1EC80139
:104F90000DDB24E030E0E20EF31EF70181937F0188
:104FA000C80104DBF70181937F01C801FFDAF70133
:104FB00081937F01C801FADAF70181937F01C8016B
:104FC000F5DAF70181937F01C801F0DAF7018083F8
:104FD00028E93EEEE20EF31EC8010E94A216CC2480
:104FE000DD24B60196E0660F771F9A95E1F76A5FB8
:104FF0007F4F6E0D7F1DC80140E250E00E943C1EB5
:105000000894C11CD11C30E4C316D10451F7C80167
:105010000E94A216B70167597E4EC8010E94F91D71
:10502000B70163597E4EC8010E94F91DB7016F5840
:105030007E4EC8010E94F91D85E7682E81E1782E19
:105040006E0C7F1CC801B30140E150E028DAB5EFD7
:105050008B2EB1E19B2E8E0C9F1CC801B40140E148
:1050600050E01DDAA5E7AA2EA2E1BA2EAE0CBF1CB5
:10507000C801B50140E150E012DAF701EB50FD4EF6
:105080001082820160E070E06F012DC0F801808124
:105090009181A281B381042E04C0B695A7959795FE
:1050A00087950A94D2F780FF10C0F6018081F9013C
:1050B0008083F701E80FF11DEA5FFF4E6083E05C3B
:1050C000FF4F40838F5FF60180834F5F5F4F2F5FFD
:1050D0003F4F48315105D1F66F5F7F4F0C5F1F4F37
:1050E0006031710589F09B01220F331F260F371F96
:1050F000E3E0220F331FEA95E1F72A503D4E2E0DD3
:105100003F1D40E050E0C2CF26E734E1E20EF31E3F
:10511000F70180812AE83BEEE20EF31E882309F4B2
:105120003EC08E010F5F1F4FC8010E94A216C8012A
:105130006D897E8940E150E01FDAC8016B897C8966
:10514000C8D9C80169897A89C4D9C801B101C1D94E
:10515000CC24DD24B60156E0660F771F5A95E1F79F
:105160006E0D7F1D6A5D7F4FC80140E250E00E94D6
:105170003C1E0894C11CD11C30E4C316D10451F765
:10518000C801B30140E150E0F7D9C801B40140E1E2
:1051900050E0F2D9C801B50140E150E0EDD981E01D
:1051A0006696E2E10C94166B0F931F938C010B50E3
:1051B0001D4EF8011082055F1241C80189579F4EAC
:1051C00066EE70E00E949D15C8018B589E4E61E806
:1051D00071E00E949D15C8018A509D4E60E871E003
:1051E0004FEF0E94A615C8018A5F9F4E60E470E0F1
:1051F0004FEF0E94A615C8018A5B9F4E60E470E0E5
:105200004FEF0E94A615C801069660E070E14FEFCF
:105210000E94A61507591E4E81E090E0A0E0B0E084
:10522000F80180839183A283B383085F1F4FF80145
:1052300080839183A283B383B293A2939293829348
:105240008F010950104080E1F80180830550104023
:1052500080E090E8AFEFBFEFF80180839183A283F5
:10526000B3831F910F910895FC018CE594E0918325
:1052700080831282138214821582089580E008953B
:10528000089580E00895089580E00895089581E0EC
:10529000089580E008950895089508950895089563
:1052A0008FEF08950895089580E008950F931F9358
:1052B0008C01DADF84E394E0F8019183808390E449
:1052C000948388E1828380E1838395830A581B4E0F
:1052D000F801108206571441C8017FD91F910F9120
:1052E0000895EF92FF920F931F938C017B010E9410
:1052F000151688E194E0F80191838083C80160E08D
:1053000070E0A7010E94AD161F910F91FF90EF90E2
:1053100008950F931F93CF93DF93EC018B01B90195
:105320009A0158A9583010F080E048C0FC0140E0D4
:10533000D901A170B07018C0808191818017910748
:1053400089F4828193818617970761F4848195811E
:105350008217930791F16115710521F4109711F4EB
:1053600080FF2BC04F5F3696451730F3852F90E0B6
:10537000FC01EE0FFF1FE80FF91FEE0FFF1FEC0FF0
:10538000FD1F1183008388A990E0FC01EE0FFF1F31
:10539000E80FF91FDF01AA0FBB1FAC0FBD1F159649
:1053A0003C932E9314973196EE0FFF1FEC0FFD1FC9
:1053B0007183608388A98F5F88AB81E0DF91CF9193
:1053C0001F910F91089583569F4FA3CFFC01118227
:1053D00010820895AC01DC01E0E0F0E020E030E074
:1053E00017961C921E92169715961C921E92149751
:1053F000309771F0C90173E0880F991F7A95E1F732
:10540000840F951F958384831796FC93EE931697CC
:10541000C901019618968038910551F0F90163E0B1
:10542000EE0FFF1F6A95E1F7E40FF51F9C01D8CF3F
:10543000FA01E050FC4F5183408308950F931F936E
:105440008C01C4DFC8010296C5DF1F910F9108953A
:105450000F931F938C010C96F1DFF80114821186D3
:105460001182005F1B4FF80111821082005114401D
:1054700081E0F8018583128613861F910F910895AC
:105480008BE397E2E5CFCF93DF93EB01DC01E0E024
:10549000F0E052962D913C9153972115310519F06A
:1054A0002C173D0759F43996EE0FFF1FE80FF91F2F
:1054B000D183C0839E838D8381E006C0319612968E
:1054C000E430F10531F780E0DF91CF910895FC01E0
:1054D000E350FF4F8FEF808312920895FC012091DB
:1054E00041F7309142F72330310549F4E450FF4F42
:1054F000623019F481E08083089510820895E450A9
:10550000FF4F8081EC5FF040882331F0253031057A
:1055100019F4E350FF4F60830895BC0181E397EFD6
:10552000B2CFFC0110AA0895FC0110AA0895FCCF87
:1055300008950F931F938C0160E070E00E94750640
:1055400084E894E0F80191838083C8010796E9DF3D
:10555000C801C896E6DFC80187599F4FE2DFC8013E
:1055600086569F4FDEDFC80185539F4FE0DFF8016D
:10557000128280E283838CE384831F910F910895CC
:10558000FF920F931F93CF93DF93EC01F62E042F1E
:1055900010E043C0412F50E0CA01880F991F840FCB
:1055A000951FFC01EE0FFF1FEC0FFD1F24813581BD
:1055B000DC01119620FF16C0C901959587950190D1
:1055C000F081E02DE80FF91FAA0FBB1FAC0FBD1F24
:1055D0000190F081E02D8D919C91E80FF91FA08141
:1055E000B18107C0AA0FBB1FAC0FBD1F0D90BC91AE
:1055F000A02DFA01EE0FFF1FE40FF51FEE0FFF1FA6
:10560000EC0FFD1F3595279580819181820F931FA7
:105610006F2D402FFD0109951F5F88A9181708F409
:10562000B9CFCDB7DEB7E5E00C94236B1F93CF93D2
:10563000DF93EC0110E040C0412F50E0CA01880F19
:10564000991F840F951FFC01EE0FFF1FEC0FFD1F2C
:1056500024813581DC01119620FF16C0C901959582
:1056600087950190F081E02DE80FF91FAA0FBB1F6D
:10567000AC0FBD1F0190F081E02D8D919C91E80F42
:10568000F91F6081718106C0AA0FBB1FAC0FBD1F3F
:105690006D917C91FA01EE0FFF1FE40FF51FEE0FE5
:1056A000FF1FEC0FFD1F3595279580819181820F9B
:1056B000931FFB0109951F5F88A9181708F4BCCF39
:1056C000DF91CF911F910895DC01A450BF4F8C91C1
:1056D000AC5FB040882351F1A350BF4F8C91AD5FB8
:1056E000B0408736D9F0883628F4803589F0823585
:1056F000E9F411C08936B1F08237C1F4E0913BF78B
:10570000F0913CF7CD0185539F4F6681478138CF9B
:10571000CD01079606C0CD01C89603C0CD018656BF
:105720009F4F84CFCD0187599F4F80CF08958DE43F
:105730009BE2FFCEFC0188E994E091838083738330
:105740006283158214825087478381E0868308959F
:10575000DC011796ED91FC911897309709F00995A7
:105760000895089508950F931F938C0140E050E031
:10577000E1DF80E994E0F80191838083C8010F960E
:10578000D0DEC801805C9F4FCCDEC8018F589F4F90
:10579000C8DEF80115861386118681E0828714869B
:1057A00086871F910F9108958BE49CE268EB7BE064
:1057B000DACFEF92FF920F931F93182F092FEDE48A
:1057C000EE2EEBE2FE2EC701612F702F0E94A61B6A
:1057D000C701612F702F0E945D1BC701612F702FC1
:1057E0000E94621B1F910F91FF90EF9008950F93FD
:1057F0001F938C0160E070E00E9475068DEA94E0D2
:10580000F801918380838FEF8283138214821F912A
:105810000F910895FF920F931F938C01F62E01961E
:10582000E6DFC8016F2D0E94A3401F910F91FF90EA
:1058300008958DEE9CE260E0EDCFFC01009711F041
:10584000118210820895A6E0B0E0E9E2FCE20C9437
:10585000086BDC01009709F488C0423051056105EE
:10586000710508F482C0ED91FC9111978085169620
:105870000D911D912D913C9119970190F081E02D92
:105880008B30D9F592E0440F551F661F771F9A950C
:10589000D1F7040F151F261F371FC901B801AE012C
:1058A0004D5F5F4F24E030E00995882309F45DC027
:1058B0002B813C814D815E812115310541055105CA
:1058C00009F457C0273F8FEF38078FEF48078FE065
:1058D000580709F44AC0DA01C901805F9F4FAF4FF2
:1058E000BF400797A105B10508F43FC0DA01C9011F
:1058F000885F9F4FAF4FBF4034C0440F551F661F96
:10590000771F040F151F261F371FC901B801AE01ED
:105910004F5F5F4F22E030E00995882331F18981A4
:105920009A819C0140E050E0211531054105510567
:1059300001F1273F8FEF380780E0480780E05807E4
:10594000A1F0DA01C901805F9F4FA040B0400797E6
:10595000A105B10550F0DA01C901885F9F4FA04051
:10596000B0400897A105B10520F420E030E040E008
:1059700050E0B901CA012696E4E00C94246BA6E03D
:10598000B0E0E5ECFCE20C94FA6A4C01009709F4F3
:10599000B2C0423051056105710508F4ACC0DC01AC
:1059A00016964D905D906D907C901997ED91FC91BD
:1059B00080858B3009F05CC0E3E02E2E312C2C0E5C
:1059C0003D1E5A016B0132E0AA0CBB1CCC1CDD1C35
:1059D0003A95D1F7A40CB51CC61CD71CD401ED9187
:1059E000FC910190F081E02DC601B501A10124E0F8
:1059F00030E00995882309F47EC0EB80FC800D819E
:105A00001E81E114F1040105110509F476C0D801E5
:105A1000C701805F9F4FAF4FBF400897A105B105F9
:105A200008F469C0D801C701885F9F4FAF4FBF40DE
:105A30000897A105B10518F4EE24FF2487011B8205
:105A40001C821D821E82D401ED91FC910480F5819F
:105A5000E02DC601B501A10124E030E00995B801AF
:105A6000A701E114F1040105110509F0AACF45C011
:105A70005E010894A11CB11C7A018B01EE0CFF1C85
:105A8000001F111FE40CF51C061D171DD401ED911C
:105A9000FC910190F081E02DC801B701A50122E041
:105AA00030E00995882339F1C980DA80C114D10426
:105AB00021F1C60140960897F0F0B8EFCB16BFEF82
:105AC000DB0610F0CC24DD241A821982D401ED917A
:105AD000FC910480F581E02DC801B701A50122E009
