:1000000060C000008BC0000089C0000087C00000F5
:1000100085C0000083C0000081C000007FC00000D8
:100020007DC000007BC000000C94452277C000001A
:1000300075C0000073C000000C943C216FC000002C
:100040006DC000006BC000000C94AE1F0C94681FC4
:1000500065C0000063C0000061C000005FC0000018
:100060005DC000005BC0000059C0000057C0000028
:1000700055C0000053C000000C94441F4FC0000046
:100080004DC000004BC0000049C0000053454C4526
:10009000435420504147453A0020202020002103AE
:1000A000A00474054307840C600E2311BC11761262
:1000B000C913061447147619AA19511C181DA41E39
:1000C000AF2111241FBECFEFD0E1DEBFCDBFB89A64
:1000D000C09885B7806885BF12E0A0E0B1E0ECE78A
:1000E000F8E402C005900D92AA3EB107D9F713EAD1
:1000F000A0E0B0E201C01D92A233B107E1F710E029
:10010000C2ECD0E004C02297FE010E943824CE3910
:10011000D107C9F70E94E1220C943C2471CFFB0166
:10012000DC0102C001900D9241505040D8F7089573
:10013000FB01DC018D91019080190110D9F3990B1D
:100140000895DF92EF92FF920F931F93D72E7A01BB
:100150008C01FA010995C80101966D2DF7010995E9
:100160001F910F91FF90EF90DF900895FC0173872E
:10017000628757834683118A108A108211821586FE
:1001800014861786168615820895FC011282118244
:1001900084E080830895FC0110AA0895FCCF08959F
:1001A000A0E0B0E0E6EDF0E00C940524EC014B019A
:1001B0006A0159018AE0E82EF12CEC0EFD1E00E0E8
:1001C00010E0C701800F911FE9DF0F5C1F4F81E036
:1001D00007351807B1F7CE018E599E4FB601A5011C
:1001E000C5DFC358DE4FC992D992B982A8826E97F3
:1001F00081E08883C156D14098868F82C458DE4FF3
:100200008FEF8883CC57D140CE01BFDFCDB7DEB7AB
:10021000ECE00C942124EF92FF921F93CF93DF9395
:10022000EC017B0110E042C0412F50E0CA01880F71
:10023000991F840F951FFC01EE0FFF1FEC0FFD1F90
:1002400024813581DC01119620FF16C0C9019595E6
:1002500087950190F081E02DE80FF91FAA0FBB1FD1
:10026000AC0FBD1F0190F081E02D8D919C91E80FA6
:10027000F91FA081B18107C0AA0FBB1FAC0FBD1F22
:100280000D90BC91A02DFA01EE0FFF1FE40FF51F9A
:10029000EE0FFF1FEC0FFD1F359527958081918193
:1002A000820F931FB701FD0109951F5F88A91817D9
:1002B00008F4BACFDF91CF911F91FF90EF9008958E
:1002C000A0E0B0E0E6E6F1E00C940924EC01162F82
:1002D000683F40F06E3F09F0A9C0EF81F8851286B3
:1002E0001186A4C082E6E82E81E0F82EEC0EFD1EF9
:1002F00001E6C02E01E0D02ECC0EDD1E01E0F6019D
:100300008081882309F492C08881823009F456C024
:10031000833030F48823E1F0813009F087C07DC05C
:10032000833039F0843009F081C017FF7FC0188214
:10033000E6CF17FF09C0173F21F01882C70101D28D
:10034000DECFC7014DD272C0C701612F8ED26EC001
:10035000103F39F483E08883C701BED11A82198225
:1003600065C017FF03C019831A8205C089818823DD
:1003700009F45CC00A839981903F08F4907F20E0E3
:1003800009C0891731F48181888389818C830B832B
:100390000BC02F5FE22FF0E0EE0FFF1FEC5EFE4F71
:1003A0008081882371F790E02987992311F484E0F4
:1003B0003CC08A81882309F0A2CF38C018828B8183
:1003C000FE01E80FF11D14838F5F8B83E985F0E058
:1003D000EE0FFF1FEC5EFE4F8081803921F48E818D
:1003E000882309F419869985973060F481E3989FF2
:1003F000C00111240A96BE016C5F7F4F8C0F9D1FB8
:100400000ADF09C08981823F31F4BE016C5F7F4FF2
:1004100080E090E2C1D0188209C08B81FE01E80F14
:10042000F11D14838F5F8B8382E08883CDB7DEB7A5
:10043000E8E00C9425241C9808951C9A0895DC018A
:10044000ED91FC910480F581E02D09950895FC0162
:1004500011AA80E197E291A380A315A214A284A11E
:1004600095A197A386A31482158216821782108203
:1004700011821282138280819181A281B38180874F
:100480009187A287B387148A158A168A178A848966
:100490009589A689B78984879587A687B787108E9F
:1004A000118E128E138E808D918DA28DB38D808BC7
:1004B000918BA28BB38B158E858D848F88EC90E009
:1004C00094A783A710AA0895CF93DF93EC018FA57B
:1004D000882321F088EA9DE26AEFB1DFCE01B7DF21
:1004E00081E089ABDF91CF910895CF93DF93EC0149
:1004F00019AA8FA5882321F088EA9DE26CEF9FDF7F
:10050000CE01A5DFDF91CF910895CF93DF93EC016A
:100510008FA5882321F088EA9DE26BEF90DF81E0D0
:1005200089AB80E197E299A388A31DA21CA28CA1AC
:100530009DA19FA38EA318AADF91CF910895FF924A
:100540000F931F938C01FFB6F894FC0176A765A763
:100550009B0140E050E06AE572E682E090E00E9494
:10056000DD2320513040F801378F268FFFBE1F91C9
:100570000F91FF9008950F931F938C0168DFF8018E
:1005800012AAC80168E770E0DADFF80117A681E077
:1005900081A71F910F9108950895FC0181A50895E9
:1005A000FC0181A98130B1F582A9813019F081A5C2
:1005B000882381F182E081AB089580859185A285B1
:1005C000B3850196A11DB11D80879187A287B3874E
:1005D000848D8F5F848F848D863069F4148E80893A
:1005E0009189A289B3890196A11DB11D808B918B40
:1005F000A28BB38B03C0848D833079F48485958579
:10060000A685B7850196A11DB11D84879587A6870C
:10061000B787089581A9823081F20895FC0181A9EC
:10062000823071F480899189A289B3898370907036
:10063000A070B0700097A105B10509F4FCCEFDCE05
:10064000089580E090E297CFCF93DF93EC018C8DFB
:100650008FA5882329F088EA9DE268EF0E944E1D4D
:10066000CE019EDFCE01DADFDF91CF910895FC014C
:1006700081A5882311F0CF01E7CF0895FC018CE319
:1006800091E0918380837683658312821382148242
:1006900008950895089508950895FC016115710560
:1006A00049F482859385958784878681978197878A
:1006B000868704C0758764875787468711821186AD
:1006C000108608950F931F938C01E7DF81E0F801F6
:1006D00081831F910F910895FC01118A108A108265
:1006E000118211861086158212821382148260E0B4
:1006F00070E040E050E0E6CFFC01DB0161157105E0
:10070000E9F012969C9112979F3FB1F0858132815A
:10071000882379F0391791F4938113968C9113976C
:10072000981761F420E0948114968C91981739F40D
:1007300003C020E0391719F421E001C020E0822F26
:100740000895A0E0B0E0E7EAF3E00C9409247C010E
:1007500081E0F7018083870188E0C82ED12CCE0C80
:10076000DF1CF801C289D389C701BE01C5DF882318
:1007700039F0E881F9810280F381E02DCE010995FD
:100780000E5F1F4F0C151D0561F7CDB7DEB7E8E012
:100790000C942524A0E0B0E0E0EDF3E00C940924F3
:1007A0007C018C0198E0C92ED12CCE0CDF1CF80105
:1007B000C289D389C701BE019FDF882339F0E88150
:1007C000F9810190F081E02DCE0109950E5F1F4F58
:1007D0000C151D0561F7CDB7DEB7E8E00C942524B4
:1007E000A0E0B0E0E6EFF3E00C9409247C018C017A
:1007F00028E0C22ED12CC80ED91EF801C289D38997
:10080000C701BE0179DF882339F0E881F9810480CE
:10081000F581E02DCE0109950E5F1F4F0C151D05CA
:1008200061F7CDB7DEB7E8E00C942524DC0118961B
:100830002D913C9119971E968D919C911F97281789
:10084000390788F41C96ED91FC911D97309759F06B
:10085000E20FF31F60832F5F3F4F19963C932E9357
:10086000189781E0089580E00895A0E0B0E0EBE300
:10087000F4E00C940824EC01B62E8881882309F05A
:1008800047C088899989892B49F46A83662319F4BA
:1008900081E08D8303C01D82CE017CDF8D818823A2
:1008A00061F0888999898130910511F4BB8205C076
:1008B000029719F4BC82CE016DDF7E0138E0C32EB1
:1008C000D12CCC0EDD1ED70152960D911C91539761
:1008D000CE01B80111DF882349F0D801ED91FC91D8
:1008E0000680F781E02DC8016B2D0995E2E0F0E06C
:1008F000EE0EFF1EEC14FD0431F7888999890196EC
:10090000998B888B8981882319F0CE016B2D8EDF1E
:10091000CDB7DEB7E9E00C9424240F931F938C012C
:1009200060E070E0ABDE80E391E0F80191838083CA
:10093000128283E1838381E484831F910F91089560
:1009400083E390E2EACFDC011596ED91FC911697D6
:1009500080899189039721F4653011F40C94C222A7
:1009600008951F93CF93DF93EC01162F603F50F053
:10097000E881F981683F10F41A8215C00680F7817A
:10098000E02D14C08C81882361F08A81861739F0AC
:10099000E881F9810480F581E02DCE0109951A8363
:1009A00008C0E881F9810480F581E02DCE01612F36
:1009B0000995DF91CF911F910895EF92FF920F93C8
:1009C0001F93CF93DF938C017B01EA010CC0D70109
:1009D0006D917D01D801ED91FC910480F581E02DB0
:1009E000C80109952197209791F7CDB7DEB7E6E0CA
:1009F0000C942724FC01E05BFF4F60830895FC0109
:100A0000178208950F931F938C0160E070E036DE2B
:100A100088E491E0F80191838083128280E28383ED
:100A20008CE38483108617861F910F910895FC0133
:100A30008091999D90919A9D039731F4662319F4C2
:100A400081E08783089517820895FC0187818823B8
:100A500009F449C0A091939DB091949D15968C91F5
:100A60001597833181F1843118F48131E1F505C0A6
:100A7000853171F18731B9F531C08785813099F5BC
:100A800017968C91179790E09695982F88279795B1
:100A9000879516962C91169730E0822B932B94878E
:100AA000838719968C91199790E09695982F8827AF
:100AB0009795879518962C9130E0822B932B9687EB
:100AC000858782E009C08785833069F484E004C0AB
:100AD0008785853041F486E087870895878587304C
:100AE00011F488E0878708958AE390E28BCF9C0118
:100AF0002A5F3F4FC9010895FC01848195810895C3
:100B0000FC01828193810895A0E0B0E0EAE8F5E07D
:100B10000C940524EC015B016A01982E8D2EE8816E
:100B2000F9810280F381E02DB9010995FD86EC86FB
:100B3000AC14BD042CF4B88AAF86DA8AC98A04C022
:100B4000D88ACF86BA8AA98AE881F9810684F7858E
:100B5000E02D892D982DB80140E00995CDB7DEB77D
:100B6000ECE00C942124CF93DF93EC012C813D81A8
:100B70008A819B812817390731F0EC85FD853097F4
:100B800011F0CE0109958C819D819B838A83DF9131
:100B9000CF910895CF93DF93EC01442349F07D83F7
:100BA0006C83E881F9810680F781E02D099504C006
:100BB0007D836C837B836A8381E08E87DF91CF9115
:100BC0000895FC0140E022813381848195812817BA
:100BD000390709F041E0842F0895FC011382128245
:100BE000158214820895FC01DB01448155812C910A
:100BF0008385882319F060E070E00DC0828511962E
:100C00006C91882329F085E06802B001112403C0AB
:100C1000772767FD7095332727FD3095240F351F03
:100C2000260F371F35832483C9010895FC01A08155
:100C3000B1811A962D913C911B97F9010995882352
:100C400011F480E208958B3110F4805C08958B5E7E
:100C50000895DC01862F81548A3138F4ED91FC919E
:100C6000119770E0605470400AC0862F8053ED9158
:100C7000FC9111978A3040F470E065517040068411
:100C8000F785E02DCD0106C00684F785E02DCD0166
:100C900060E070E040E009950895A3E0B0E0E3E58E
:100CA000F6E00C940D248C016031F8F447FD1DC072
:100CB00027FD1BC0FE01319683E0DF011D928A955E
:100CC000E9F7606B69834A832B83C80182599F4F80
:100CD000BF01A1DAD801ED91FC910088F189E02DE6
:100CE000C80169814A812B8109952396E4E00C941F
:100CF0002924FF920F931F938C01F62EDC01ED91B6
:100D0000FC910284F385E02D0995AC0185E790E222
:100D10006F2DB9D1F80116861F910F91FF9008959C
:100D2000CF93DF93EC01FB0190818B85882319F031
:100D300060E070E00CC08A856181882329F085E03D
:100D40006802B001112403C0772767FD7095892FD1
:100D5000992787FD9095680F791F4F8558892989B4
:100D60003A898C819D810E94F3108C839D83DF9151
:100D7000CF910895CF93DF93EC016115710529F0B0
:100D8000069644E050E00E94BC101986DF91CF9196
:100D90000895EF92FF920F931F938C017A018AE6D8
:100DA00091E0F8019183808313821282158214826C
:100DB0001686C801DFDFF801F586E48681E08287C8
:100DC00013861F910F91FF90EF9008956F927F927D
:100DD0008F929F92AF92BF92CF92DF92EF92FF924B
:100DE0000F931F936C014B013A015901B901A701FF
:100DF000D0DF84E591E0F60191838083C601B401E0
:100E0000A301950181DE1F910F91FF90EF90DF907C
:100E1000CF90BF90AF909F908F907F906F900895EC
:100E2000CF92DF92EF92FF920F931F936C0160E0DD
:100E300070E045E250E020E030E000E010E0EE2419
:100E4000FF24C4DF80E891E0F601918380831F9145
:100E50000F91FF90EF90DF90CF900895FC011082EA
:100E60001182128A0895FC012FB7F8948181308194
:100E70002FBF20E090E0019687709070381709F43A
:100E800021E0822F08958AE490E2E8CF0F931F9328
:100E9000CF93DF93EC018B01E6DF882329F08A8969
:100EA0008F5F8A8B80E013C0898190E00196880F64
:100EB000991F8C0F9D1FB80142E050E00E94A210C4
:100EC000898190E0019687709070898381E0DF913D
:100ED000CF911F910F910895A2E0B0E0E2E7F7E013
:100EE0000C9408240EE71DE2FF24BB24B3946E018A
:100EF0000894C11CD11C32E0E32EFA82F8018081F3
:100F000081FF07C080FD05C0B9828AE490E2B60186
:100F1000BDDFF801808181FD07C080FF05C0E98247
:100F20008AE490E2B601B2DFF3940B5F1F4FF8E062
:100F3000FF1619F72296E9E00C94242480E0089526
:100F4000DC0157966C935797662321F081E0569603
:100F50008C935697ED91FC9111970680F781E02DC7
:100F6000CD0109950895089580E008950F931F938A
:100F7000CF93DF93EC018B01E881F9810280F3814B
:100F8000E02D0995DC01009759F0ED91FC91068464
:100F9000F785E02DB8010995882311F081E008C09C
:100FA000E881F9810084F185E02DCE01B801099531
:100FB000DF91CF911F910F9108950895089508959D
:100FC00008950895FC01662321F0868991E0892720
:100FD000868B089580E090E00895FB01DA0110828D
:100FE0001C920895FC01E359FF4FA081B181109735
:100FF00019F420E030E009C0ED91FC9111970280D6
:10100000F381E02DCD0109959C01C90108950F934D
:101010001F93FC018A01E05BFF4F8081E055F040A7
:1010200090E027E230E0AC01429FC001439F900D69
:10103000529F900D1124E80FF91F81E0828BE60F7B
:10104000F11DC80168EE73E00E94CA2364E670E0F7
:101050000E94CA23605D6283C80164E670E00E945A
:10106000CA236AE070E00E94CA23605D6383C801FE
:101070006AE070E00E94CA23805D848380E28583F9
:101080001F910F910895660F660FC1CF1F93AC019A
:1010900020E030E0DC01A05BBF4F67E270E010E2CF
:1010A0008C9190E0869FF001879FF00D969FF00D48
:1010B0001124E40FF51FE20FF31F12832F5F3F4F40
:1010C0002031310569F78C9190E027E230E0829F72
:1010D000F001839FF00D929FF00D1124E40FF51F96
:1010E00081E0828B1F9108951F93AC0120E030E0D6
:1010F000DC01A05BBF4F67E270E010E28C9190E0F2
:10110000869FF001879FF00D969FF00D1124E40F4C
:10111000F51FE20FF31F138B2F5F3F4F2031310577
:1011200069F71F910895FC011182818180830895E0
:10113000FC01108211820895FC018AEB91E08193F9
:101140009193CF01F5CFEF92FF920F931F938C01F4
:101150007B01F2DF8CE991E0F80191838083F58ACD
:10116000E48A168A178A1F910F91FF90EF900895D5
:10117000FC0184E090E091878087118210821382C5
:10118000128215821482178216820895DC0188E08B
:1011900090E051969C938E93509780E090E0FD01F3
:1011A000E80FF91F11821082029680319105B9F77C
:1011B0000895FC019FB7F894208181819FBF90E042
:1011C000281709F491E0892F0895FC01908181810D
:1011D00020E0981709F421E0822F0895FC01918105
:1011E0008081891720F420818181285F02C02081BD
:1011F0008181281B822F0895F1DF90E0873009F468
:1012000091E0892F08950F931F93CF93DF93EC0103
:101210008B01DBDF882311F080E01DC00115110573
:10122000C9F08881882319F467E070E004C08881E0
:101230008150682F70E08981680F711D677070E0C0
:101240006F5F7F4F660F771F6C0F7D1FC80142E0F5
:1012500050E078D781E0DF91CF911F910F910895F1
:10126000A2E0B0E0E6E3F9E00C940F241A821982C0
:101270000296BE016F5F7F4FC6DF89819A812296F9
:10128000E2E00C942B240F931F93CF93DF93EC0198
:101290008B018FDF882311F080E013C0688170E03C
:1012A0006F5F7F4F660F771F6C0F7D1FC80142E095
:1012B00050E048D7888190E00196877090708883CD
:1012C00081E0DF91CF911F910F9108950F931F93AC
:1012D000CF93DF93EC018B018FDF882331F089817D
:1012E00090E0019687709070898388812981280F0A
:1012F00030E0277030702F5F3F4F220F331FCE0139
:10130000820F931FB80142E050E01CD7888190E023
:10131000019687709070888381E0DF91CF911F9153
:101320000F910895A2E0B0E0E8E9F9E00C940F24F1
:101330007A836983BE016F5F7F4FC8DF2296E2E048
:101340000C942B24EF92FF920F931F938C01FA01C0
:1013500070E0B0E5EB2EF12CE80EF91ED7018C9170
:1013600027E2829FC0011124860F971F029640E159
:1013700050E0461B570B800F911FBF0117D7F70195
:10138000808190E027E230E0829FF001839FF00DA2
:10139000929FF00D1124E00FF11F81E0828B1F91CD
:1013A0000F91FF90EF900895660F660FCBCFEF92ED
:1013B000FF920F931F938C01FA0170E080E5E82EF5
:1013C000F12CE00EF11ED7018C9127E2829FC00123
:1013D0001124860F971F029640E150E0461B570BE1
:1013E000800F911FBF01C8D6F701808190E027E2EE
:1013F00030E0829FF001839FF00D929FF00D112449
:10140000E00FF11F81E0828B1F910F91FF90EF9011
:101410000895AB0160E0CBCFEF92FF920F931F9343
:101420008C01FA0170E020E5E22EF12CE80EF91EA5
:10143000D7018C9127E2829FC0011124860F971F4C
:10144000029640E150E0461B570B800F911FBF01F1
:1014500084D6F701808190E027E230E0829FF0019E
:10146000839FF00D929FF00D1124E00FF11F81E09A
:10147000828B1F910F91FF90EF900895660F660F7A
:10148000CBCF0F931F93CF93DF93EC019FD68C01AB
:101490008C819D81B801A3D62A813B812817390709
:1014A00018F08E81882351F0E881F9810190F08154
:1014B000E02DCE0109951D830C831E82DF91CF9113
:1014C0001F910F910895662319F0613019F401C03E
:1014D00041C24BC20895A0E0B0E0E1E7FAE00C940D
:1014E00004247C018DE690E0E80EF91EF701A0814E
:1014F000B18183E99FEFE80EF91E109791F0ED910D
:10150000FC9111970280F381E02DCD010995EC014A
:10151000009739F0E881F9810480F581E02D099583
:101520001F8A87010E5E1F4FCC24DD2467E2862EC2
:10153000912C50E2A52E77247394BC2CF80182895B
:10154000882399F143D6BC01F8018389948947D651
:10155000F801258936892817390710F47082128A14
:10156000F8018189882309F1C89CE001C99CD00D4C
:10157000D89CD00D11246396CE0DDF1DFE0120E016
:1015800030E08081882309F4A0822F5F3F4F31969D
:1015900020313105B1F786EA9DE26B2D94DF86EAB2
:1015A0009DE2BE01B9D1F801118AF801808188233A
:1015B00021F18289882309F5C89CE001C99CD00DDE
:1015C000D89CD00D11242296CE0DDF1DFE0120E007
:1015D00030E08081882309F4A0822F5F3F4F31964D
:1015E00020313105B1F786EA9DE26B2D6CDF86EA8A
:1015F0009DE2BE0191D1F80110820894C11CD11C5A
:10160000095D1F4FF2E0CF16D10409F096CF85E7B0
:1016100090E260E0EFD985E790E266DD85E790E251
:1016200061E0E8D985E790E25FDDCDB7DEB7EDE0B8
:101630000C942024A2E0B0E0E0E2FBE00C94012452
:101640007C01BBE5CB2ED12CC80ED91E00E010E0EA
:10165000ABE6AA2EB12CA80EB91E0CC0D6018D91F6
:101660009C91009709F00DDF0F5F1F4FE2E0F0E063
:10167000CE0EDF1ED5018D919C910817190774F3CA
:101680002AC08AE490E2B501FEDD620100E010E0CC
:101690000DC0D601ED91FC91309711F0C50109956F
:1016A0000F5F1F4FE2E0F0E0CE0EDF1ED3018D9101
:1016B0009C91081719076CF3F401A081B181109770
:1016C000E9F0ED91FC9111970190F081E02DCD01B1
:1016D000B501099513C05E010894A11CB11CF1E588
:1016E0004F2E512C4E0C5F1CE9E56E2E712C6E0CAA
:1016F0007F1C7DE6872E912C8E0C9F1C8AE490E245
:1017000058DD882309F4BDCF8DE690E0E80EF91E80
:10171000F701A081B18183E99FEFE80EF91E1097D0
:10172000D1F0ED91FC9111970280F381E02DCD0174
:1017300009958C01009779F0DC01ED91FC91019005
:10174000F081E02D0995D801ED91FC910280F381A3
:10175000E02DC8010995EDE6F0E0EE0EFF1EF70161
:10176000A081B18183E99FEFE80EF91E109741F047
:10177000ED91FC9111970284F385E02DCD0109953F
:101780000E94D21FC701A7DEADE6B0E0EA0EFB1E45
:10179000F701A081B181109789F0ED91FC9111972B
:1017A0000280F381E02DCD010995DC01009731F035
:1017B000ED91FC910680F781E02D09952296E0E1FC
:1017C0000C941D240F931F93CF93DF938C01EB0197
:1017D000DC01ED91FC910280F381E02D0995C817A1
:1017E000D907D9F0198F088F8A8D882349F4E881A9
:1017F000F9810088F189E02DCE01099581E08A8F79
:10180000CE01B4D3E881F9810284F385E02DCE01C5
:101810000995C8010296BE0185DDDF91CF911F9128
:101820000F910895EF92FF920F931F938C017B010C
:10183000029679DCC801B701C5DF1F910F91FF90B7
:10184000EF900895FC01E359FF4F8081918100974B
:1018500009F0E8CF08950F931F93CF93DF93EC0126
:101860008B01C359DF4FA881B981CD56D040109765
:1018700041F0ED91FC9111970088F189E02DCD01A7
:101880000995C359DF4F19830883CD56D040011500
:10189000110541F0D801ED91FC910684F785E02D0A
:1018A000C8010995CE019EDB892B19F0CE019ADB88
:1018B0005DD3DF91CF911F910F910895CF93DF9367
:1018C000EC0186E991E099838883CE018F5A9F4F7E
:1018D0004FDCCE01855A9F4F59DCC05BDF4F188229
:1018E000C055D040FE0180E090E2928391A78F5FC7
:1018F00031968031D1F71A8A19AECE016DE570E2CA
:10190000AADFDF91CF9108958DE590E260E071E06C
:101910001ADC85E790E2D2CFEF92FF921F93CF932C
:10192000DF937C01EB0110E06881662369F01031E0
:1019300059F01F5FD701ED91FC910680F781E02DF2
:10194000C70109952196F0CFDF91CF911F91FF90AC
:10195000EF900895FC01A081B18114962D913C91E6
:10196000159760E8F90109950895FC01A081B181FE
:1019700014962D913C91159760ECF9010995089505
:10198000DC01ED91FC911197662329F00480F5812B
:10199000E02D6FE004C00480F581E02D6CE0099536
:1019A0000895DC01ED91FC916295660F660F607CF5
:1019B000640F60680480F581E02D0995089508950D
:1019C000089508950895089508950F931F93FC01B5
:1019D000748F638F568F458F30A3278F12A301A377
:1019E0001F910F910895AF92BF92DF92EF92FF92F5
:1019F0000F931F93CF93DF93FC01DB0140E050E096
:101A000001E010E0BC01615C7F4FDD24D39481E4F0
:101A1000A82EB12CAE0EBF1EEE24EA94FE2C8C91A3
:101A200080FF18C011968C91119790E0841795074C
:101A300089F4C801042E02C0880F991F0A94E2F7A6
:101A4000EB012881398182239323892B19F056AF2A
:101A500045AFD3AE8C9181FF18C011968C91119730
:101A600090E08417950789F4C801042E02C0880FFE
:101A7000991F0A94E2F7E501288139818223932393
:101A8000892B19F0F6AEE5AED3AE4F5F5F4F48300D
:101A9000510529F681E0DF91CF911F910F91FF90C1
:101AA000EF90DF90BF90AF900895FC01362F242F68
:101AB0006381432FF2C8CF93DF93EC018F89882392
:101AC000A1F085E790E260E00E94FA046B9685E75A
:101AD00090E2BE019EDC85E790E261E00E94FA049C
:101AE000609685E790E2BE0194DCDF91CF91089586
:101AF000CF93DF93EC018F89882311F041E008C078
:101B0000C75BDF4F8881C954D040882301F140E092
:101B100088EA9DE260E0C9DFC75BDF4F88EA9DE2AB
:101B200061E04881C2DF85E790E260E00E94FA044C
:101B3000A69785E790E2BE016CDC85E790E261E064
:101B40000E94FA04609685E790E2BE0162DCDF91B4
:101B5000CF910895FC016115710521F0029641E1D4
:101B600050E0FBC212820895FC016115710521F05D
:101B7000439644E050E0F1C2138A0895EF92FF9239
:101B80000F931F938C017A0184E092E0F801918316
:101B90008083118E108E178AC801DCDFC801B7015F
:101BA000E3DFF801128E1F910F91FF90EF900895DF
:101BB0000F931F938C0160E070E040E050E0DEDFA7
:101BC00082EC91E0F8019183808313AE16AE15AEDE
:101BD000138E13A61F910F9108958F929F92AF922B
:101BE000BF92CF92DF92EF92FF920F931F937C01EF
:101BF0006B015A01490160E070E040E050E0BEDF57
:101C00008EEE91E0F70191838083C701B601A501B3
:101C10009401DBDE1F910F91FF90EF90DF90CF904A
:101C2000BF90AF909F908F900895CF92DF92EF92E8
:101C3000FF920F931F937C0160E070E040E050E062
:101C400020E030E000E010E0C8DF88ED91E0F7012F
:101C500091838083FAE4CF2ED12CCE0CDF1CC601F9
:101C6000DFD88701035A1F4FC801DAD8C80143964D
:101C7000D7D8C8018696D4D884E490E0E80EF91E3F
:101C8000F70111927F01118210828BEB9FEFE80E1A
:101C9000F91EF70113A2D48EC38E168F058FC701CC
:101CA00080599F4F90A3878FC7018D579F4F92A355
:101CB00081A31F910F91FF90EF90DF90CF90089537
:101CC00084EE90E275DF87E291E2AFCFA0E0B0E072
:101CD000ECE6FEE00C9407247C0177FF03C060E093
:101CE00070E005C06D30710514F06CE070E08701A4
:101CF000095B1F4FD8016D937C93C0E0D0E0A3E156
:101D0000AA2EB12C6801CA9DC001CB9D900DDA9D11
:101D1000900D1124865B9F4FF701EC0FFD1FD6013C
:101D20002D913C91E20FF31F8E0D9F1D63A90E9420
:101D300029062196C430D10531F786EA9DE261E09B
:101D4000F80140812EDECDB7DEB7EAE00C94232403
:101D50000F931F93CF93DF93EC018B01FB018081E5
:101D600080FF0DC08181853051F4C95BDF4F6881F0
:101D70007981C754D04064507040CE01A7DFF8018C
:101D8000808180FF0DC08181863051F4C95BDF4FB7
:101D900068817981C754D0406C5F7F4FCE0196DF58
:101DA000F801808180FF0BC08181843041F4CC5BDD
:101DB000DF4F81E0899319821882C554D040F80121
:101DC000808180FF0BC08181873041F4CC5BDF4F85
:101DD00081E0899381E090E09983888381E0DF91BD
:101DE000CF911F910F9108950F931F9306EA1DE263
:101DF000FC01E95BFF4FC80161E04081D2DDC80111
:101E000060E0BEDD80E49CE90197F1F71F910F913E
:101E10000895EF92FF920F931F938C0160E070E0A2
:101E200055DFB6EAEB2EBDE2FB2EC70161E0A8DD6F
:101E3000095B1F4FC70161E0F8014081B2DD1F91CE
:101E40000F91FF90EF9008950F931F93CF93DF931F
:101E5000EC0173D08E01075B1F4FF801808188234E
:101E600069F086EA9DE261E08BDDC95BDF4F86EABF
:101E70009DE261E0488195DDF8011082DF91CF910C
:101E80001F910F910895A0E0B0E0E9E4FFE00C9409
:101E900000246C013AE4A32EB12CA80EB91EEE2446
:101EA000FF2423E1422E512C97E4692E712C6C0CF7
:101EB0007D1C89E4882E912C8C0C9D1C332433943A
:101EC000E49CE001E59CD00DF49CD00D1124C65B90
:101ED000DF4FCC0DDD1DD501ED91FC910084F18526
:101EE000E02DCE0109958823A1F088EA9DE262E009
:101EF0004E2DDBDDF301008111810E0D1F1DCE0182
:101F00000E9416060C0D1D1DD801D3968C93F4016A
:101F100030820894E11CF11C83E190E0A80EB91E08
:101F200094E0E916F10461F6CDB7DEB7E1E10C9477
:101F30001C24089580E0089508951F93CF93DF93A4
:101F4000EC0110E0AB8DBC8D109741F0ED91FC9150
:101F500011970680F781E02DCD0109951F5F22962C
:101F6000143081F7DF91CF911F910895EF92FF9286
:101F70000F931F938C0165E7E62E60E2F62EC701F2
:101F800060E00E94FA04C70181D8C70161E00E94A5
:101F9000FA04C7017BD881E0F801878B1F910F916C
:101FA000FF90EF9008950F931F93CF93DF93182F17
:101FB000092F85E790E260E00E94FA04212F302F7C
:101FC000C901EC0110E0AB8DBC8D109771F0ED9163
:101FD000FC9111970190F081E02DCD010995AC01A4
:101FE00085E790E2612F4ADA06C085E790E2612F2B
:101FF00049E950E0D9D91F5F2296143021F7DF91CB
:10200000CF911F910F910895A0E0B0E0EAE0F0E1D8
:102010000C9409247C01DC0157968C91882311F0E3
:10202000C701C1DF85E790E261E00E94FA04870101
:10203000C0E0D0E0DC2ECD2EF801A38DB48D10973A
:1020400039F1ED91FC9111970084F185E02DCD01DE
:102050000995882369F4D70157968C91882341F418
:10206000D8015B96ED91FC915C978685882381F081
:10207000D8015B96ED91FC915C97A081B18150965F
:102080002D913C915197CF016D2D7C2DF901099532
:1020900021960E5F1F4FC430D10561F6CDB7DEB774
:1020A000E8E00C9425241F93CF93DF93EC0110E01C
:1020B0008B8D9C8D009711F00E94ED051F5F22967D
:1020C0001430B1F7DF91CF911F910895A8E0B0E0EF
:1020D000ECE6F0E10C940924E82ED92EFFB6F89432
:1020E0008E010F5F1F4FC80166E77DE248E050E0B8
:1020F00029D080E79DE20E94741BFFBE2E2D3D2D4E
:10210000C9017C0139E0C32ED12CCC0EDD1EF701B4
:10211000A38DB48D109749F0ED91FC911197048037
:10212000F581E02DCD01B801099582E090E0E80E3F
:10213000F91E0E5F1F4F0C151D0549F72896E8E0A4
:102140000C942524DC01FB0104C081918D93415046
:10215000504041155105C9F70895DC01FB0104C049
:102160008D933196415050404115510521F08081A9
:102170008823B1F71C920895DC01FB0104C08D9304
:102180003196415050404115510541F080818823DE
:10219000B1F704C0415050408D9301C080E24230FD
:1021A0005105C0F7452B09F01C920895DC01FB0195
:1021B00009C08491882311F41C9208958D9331965F
:1021C0004150504041155105A1F708958FB7F8943B
:1021D0002091BD213091BE218FBFC9010895681B98
:1021E000790BCB010895680F791F641775072CF0E0
:1021F000A901621773070CF4AB01CA010895CF93CC
:10220000DF93FC018FEF9FEF918380839383828321
:1022100097838683E35CFA4F1082ED53F540A4E088
:10222000B1E0EF01C355DB4F8D91899381E0A4317B
:10223000B807D1F7E556FB4F1082EB59F4401086F2
:10224000DF91CF91089581EC91E2D9CFFF920F9366
:102250001F93CF93DF93EC018B01FFB6F8942CC052
:10226000242F30E0F901EE0FFF1FE20FF31FEE0FF6
:10227000FF1FEC0FFD1F8081918180179107F1F402
:10228000C9010196BC01660F771F680F791F660FA1
:10229000771F6C0F7D1F852F90E00197821B930B9A
:1022A000AC01440F551F480F591F440F551FCF0154
:1022B00049DF88A9815088AB40E001C04F5F58A931
:1022C000451770F2FFBECDB7DEB7E5E00C942824C9
:1022D0000796BCCFC896BACFFF920F931F93CF93A8
:1022E000DF93EC018B01FFB6F8942CC0242F30E073
:1022F000F901EE0FFF1FE20FF31FEE0FFF1FEC0FB0
:10230000FD1F8081918180179107F1F4C901019629
:10231000BC01660F771F680F791F660F771F6C0F60
:102320007D1F852F90E00197821B930BAC01440F1A
:10233000551F480F591F440F551FCF0103DF88A9B0
:10234000815088AB40E001C04F5F58A9451770F23B
:10235000FFBECDB7DEB7E5E00C94282485539F4F30
:10236000BBCFFC0110821182128213821482178269
:1023700016828FE78583089584E197E2F2CF0F9369
:102380001F93CF93DF93EC018B01B9019A0158A9F8
:10239000583010F080E048C0FC0140E0D901A17045
:1023A000B07018C0808191818017910789F4828173
:1023B00093818617970761F484819581821793072B
:1023C00091F16115710521F4109711F480FF2BC074
:1023D0004F5F3696451730F3852F90E0FC01EE0FE6
:1023E000FF1FE80FF91FEE0FFF1FEC0FFD1F1183FA
:1023F000008388A990E0FC01EE0FFF1FE80FF91F92
:10240000DF01AA0FBB1FAC0FBD1F15963C932E9387
:1024100014973196EE0FFF1FEC0FFD1F7183608341
:1024200088A98F5F88AB81E0DF91CF911F910F91D9
:10243000089583569F4FA3CFFC0111821082089507
:10244000AC01DC01E0E0F0E020E030E017961C9207
:102450001E92169715961C921E921497309771F043
:10246000C90173E0880F991F7A95E1F7840F951FD2
:10247000958384831796FC93EE931697C901019672
:1024800018968038910551F0F90163E0EE0FFF1FB7
:102490006A95E1F7E40FF51F9C01D8CFFA01E050EF
:1024A000FC4F5183408308950F931F938C01C4DF29
:1024B000C8010296C5DF1F910F9108950F931F93D6
:1024C0008C010C96F1DFF801148211861182005FF5
:1024D0001B4FF801118210820051144081E0F80175
:1024E0008583128613861F910F9108958CE197E2E0
:1024F000E5CFCF93DF93EB01DC01E0E0F0E0529613
:102500002D913C9153972115310519F02C173D075A
:1025100059F43996EE0FFF1FE80FF91FD183C083DE
:102520009E838D8381E006C031961296E430F105DA
:1025300031F780E0DF91CF910895FC01E350FF4F28
:102540008FEF808312920895FC012091999D309124
:102550009A9D2330310549F4E450FF4F623019F45D
:1025600081E08083089510820895E450FF4F8081B8
:10257000EC5FF040882331F02530310519F4E35049
:10258000FF4F60830895FC0110AA0895FC0110AA72
:102590000895FCCF08950F931F938C0160E070E0C5
:1025A0000E943E038AE192E0F80191838083C80192
:1025B0000796E9DFC801C896E6DFC80187599F4F33
:1025C000E2DFC80186569F4FDEDFC80185539F4F6B
:1025D000E0DFF801128280E283838CE384831F9121
:1025E0000F910895FF920F931F93CF93DF93EC0108
:1025F000F62E042F10E043C0412F50E0CA01880F8F
:10260000991F840F951FFC01EE0FFF1FEC0FFD1F9C
:1026100024813581DC01119620FF16C0C9019595F2
:1026200087950190F081E02DE80FF91FAA0FBB1FDD
:10263000AC0FBD1F0190F081E02D8D919C91E80FB2
:10264000F91FA081B18107C0AA0FBB1FAC0FBD1F2E
:102650000D90BC91A02DFA01EE0FFF1FE40FF51FA6
:10266000EE0FFF1FEC0FFD1F35952795808191819F
:10267000820F931F6F2D402FFD0109951F5F88A9C1
:10268000181708F4B9CFCDB7DEB7E5E00C942824CD
:102690001F93CF93DF93EC0110E040C0412F50E037
:1026A000CA01880F991F840F951FFC01EE0FFF1FB1
:1026B000EC0FFD1F24813581DC01119620FF16C02F
:1026C000C901959587950190F081E02DE80FF91FDC
:1026D000AA0FBB1FAC0FBD1F0190F081E02D8D91A3
:1026E0009C91E80FF91F6081718106C0AA0FBB1F82
:1026F000AC0FBD1F6D917C91FA01EE0FFF1FE40F2F
:10270000F51FEE0FFF1FEC0FFD1F359527958081FC
:102710009181820F931FFB0109951F5F88A91817EC
:1027200008F4BCCFDF91CF911F910895DC01A45034
:10273000BF4F8C91AC5FB040882351F1A350BF4F85
:102740008C91AD5FB0408736D9F0883628F480355B
:1027500089F08235E9F411C08936B1F08237C1F4CD
:10276000E091939DF091949DCD0185539F4F66819B
:10277000478138CFCD01079606C0CD01C89603C06A
:10278000CD0186569F4F84CFCD0187599F4F80CF73
:1027900008958EE29BE2FFCEFC018EE292E09183EF
:1027A000808373836283158214825087478381E01C
:1027B00086830895DC011796ED91FC911897309768
:1027C00009F009950895089508950F931F938C01BA
:1027D00040E050E0E1DF86E292E0F80191838083FF
:1027E000C8010F96D0DEC801805C9F4FCCDEC801C7
:1027F0008F589F4FC8DEF80115861386118681E039
:102800008287148686871F910F9108958CE29CE23F
:1028100068EB7BE0DACFEF92FF920F931F93182FB4
:10282000092FEEE2EE2EEBE2FE2EC701612F702F94
:1028300095DDC701612F702F4BDDC701612F702F10
:1028400049DD1F910F91FF90EF9008950F931F9313
:102850008C0160E070E00E943E0384E592E0F801A4
:10286000918380838FEF8283138214821F910F9153
:102870000895FF920F931F938C01F62E0196E6DFC9
:10288000C8016F2D4AD61F910F91FF9008958EECCD
:102890009CE260E0EECF1D9808951D9A0895CF93B5
:1028A000DF93EC01E881F9810480F581E02D099541
:1028B0008A818A3A11F020E005C020E08B818436BD
:1028C00008F021E0822FDF91CF910895FF920F93BE
:1028D0001F93CF93DF93EC018AEA8A831D821C82C7
:1028E00084E68B8388A599A5AAA5BBA580509241B3
:1028F000A040B0408E839F83A887B9871A861B8625
:102900001C861D86FF2400E010E0C80169E170E02C
:102910000E94CA23892B41F4FF2021F4BCDFFF244D
:10292000F39402C0BADFFF24E881F9810484F585BD
:10293000E02DCE01B80109950F5F1F4F87E20031EE
:10294000180719F7AADFE881F9810280F381E02DE9
:10295000CE010995CDB7DEB7E5E00C942824A9E1B6
:10296000B0E0E5EBF4E10C9409248C016B01DC018F
:10297000ED91FC910288F389E02D7E010894E11C21
:10298000F11CA70109951982D801ED91FC910088ED
:10299000F189E02DC801B601A70109956996E8E023
:1029A0000C942524A9E1B0E0E8EDF4E10C940924AD
:1029B0008C016B01DC01ED91FC910288F389E02D23
:1029C0007E010894E11CF11CA701099583E089832D
:1029D000D801ED91FC910088F189E02DC801B60184
:1029E000A7010995F80186859785A089B1892E8967
:1029F0003F89488D598D821B930BA40BB50B86879D
:102A00009787A08BB18B0190F081E02D0280F3813C
:102A1000E02DC80109956996E8E00C942524A0E012
:102A2000B0E0E5E1F5E10C9405245C014B0169019E
:102A30007A01DC0156968C91813019F0C0E0D0E02B
:102A400038C02030B0E03B07B4E04B07B0E05B0794
:102A500028F4C12CD12C94E0E92EF12CD501ED9174
:102A6000FC910688F789E02DC501B4010995C92FAD
:102A7000DD27C7FDD095CC27DD0FCC1FDD27D50185
:102A8000ED91FC91209749F0008CF18DE02DC5016E
:102A9000B401A7019601099508C00288F389E02DC9
:102AA000C50160E070E0A8010995882311F4CFEF1B
:102AB000DFEFCE01CDB7DEB7ECE00C942124A4E328
:102AC000B0E0E5E6F5E10C94FF237C011B01390140
:102AD0004A011CAB0BABDC0156968C91813009F09E
:102AE00024C100E010E0AA24AA94BA2CCC24DD244E
:102AF0002E010894411C511CF70184819581C81650
:102B0000D90688F50190F081E02D0288F389E02D47
:102B1000C701B801A20109958981882321F1833079
:102B2000E1F40894C11CD11C2E893F89488D598D30
:102B3000261537054805590580F0C501AA2797FDD8
:102B4000A095BA2F281739074A075B0728F0FFEF2F
:102B5000AF16FFEFBF0609F458010F5F1F4F87E262
:102B60000031180749F6AFEFAA16AFEFBA0691F198
:102B7000D701ED91FC910288F389E02DC701B801DE
:102B80008E010F5F1F4FA8010995CE010296B1017A
:102B900040E150E0E2DA8AE0898B6E8A7F8A888E93
:102BA000998E81E08983D701ED91FC910088F189AC
:102BB000E02DC701B501A8010995D701ED91FC9160
:102BC0000288F389E02DC701B5014BA95CA90995DD
:102BD000F7018AC000E010E06E010894C11CD11C0E
:102BE000D701ED91FC910288F389E02DC701B8016E
:102BF000A60109958981882309F090C06E8A7F8A91
:102C0000888E998E81E089830115110529F480E071
:102C100094E1A0E0B0E020C0D701ED91FC91B801B3
:102C2000615070400288F389E02DC701AE01465E15
:102C30005F4F09958FA598A9A9A9BAA92BA53CA56D
:102C40004DA55EA5820F931FA41FB51F80709E7FA8
:102C500080509E4FAF4FBF4F8A8B9B8BAC8BBD8BF1
:102C60008A899B89AC89BD89860D971DA81DB91DD0
:102C7000F70120A531A542A553A582179307A40704
:102C8000B50708F052C0CE010296B10140E150E014
:102C900064DA8AE0898BD701ED91FC910088F18993
:102CA000E02DC701B801AE014F5F5F4F0995D70115
:102CB000ED91FC910288F389E02DC701B8014BA981
:102CC0005CA90995F70182859385A485B585860D54
:102CD000971DA81DB91D82879387A487B587848116
:102CE000958101969583848386859785A089B1898E
:102CF0002E893F89488D598D820F931FA41FB51FC0
:102D000086879787A08BB18B0190F081E02D0280A0
:102D1000F381E02DC701099581E008C00F5F1F4FC7
:102D2000F7E200311F0709F05BCF80E0E496E2E1B3
:102D30000C941B24A9E1B0E0E0EAF6E10C940D2428
:102D4000DC018B0156968C915697813071F560E0CD
:102D500070E01416150614F514968D919C91159734
:102D6000892BE1F0ED91FC9111970288F389E02D18
:102D7000CD01AE014F5F5F4F0995F80180819181D0
:102D8000BE016E5F7F4F40E150E0E7D920E030E0C8
:102D90008981882361F021E030E009C06F5F7F4FB7
:102DA000F7E260317F07A9F603C020E030E0C901F7
:102DB0006996E4E00C942924A9E1B0E0E2EEF6E1A2
:102DC0000C9403247C015B01DC0156968C918130CC
:102DD00079F5CC24DD2400E010E03E010894611C6C
:102DE000711C22E0822E912C8C0E9D1EF701848195
:102DF0009581C816D906E0F4D701ED91FC910288BF
:102E0000F389E02DC701B801A301099589818823C1
:102E100049F0C401B5010E949800009759F0089448
:102E2000C11CD11C0F5F1F4FB7E200311B07F1F629
:102E30000FEF1FEFC8016996EEE00C941F246E5F40
:102E40007F4F762F6627882777FD8095982F20E083
:102E500031E046D190E0813009F491E0892F089566
:102E6000FC018689813011F090E00DC0329660E05F
:102E700070E080E090E0AF0120E032E031D190E0FE
:102E8000813009F491E0892F08956E5F7F4F762F8E
:102E90006627882777FD8095982F20E031E073D052
:102EA00090E0813009F491E0892F0895FC01868932
:102EB000813011F090E00DC0329660E070E080E06B
:102EC00090E0AF0120E032E05ED090E0813009F484
:102ED00091E0892F0895CF93DF93EC011E8A7AD178
:102EE000E881F9810680F781E02DCE0109958823DC
:102EF00011F081E08E8BDF91CF91089581E00895EC
:102F000080E008958FB9779BFECF779808958FEF73
:102F10008FB9779BFECF77988FB10895DF92EF92AC
:102F2000FF920F931F93D82E7A018B01F0DF8D2D26
:102F30008064E8DF812F9927AA27BB27E3DFC80138
:102F4000AA27BB27DFDFBB27A12F902F8F2DDADF2A
:102F50008E2DD8DFDD2021F088E0D81629F402C0BC
:102F600085E903C087E801C08FEFCCDF10E0CFDF39
:102F70008F3F19F41F5F1A30D0F31F910F91FF900C
:102F8000EF90DF900895A0E0B0E0E9ECF7E10C9459
:102F9000FF234B015C012A013901B2DF882309F4C8
:102FA00076C07DC0E401D170CE01A0E0B0E0850123
:102FB0007401E81AF90A0A0B1B0B6101CC1ADD0A2D
:102FC0006C147D0408F4630180912EA190912FA1CF
:102FD000A09130A1B09131A1E816F9060A071B07AC
:102FE000E9F065D0882309F45AC0209729F480E0DD
:102FF000C81682E0D80650F4C801B70142E351EA8E
:1030000020E032E06DD0882309F449C0E0922EA17F
:10301000F0922FA1009330A1109331A182E34816C2
:1030200081EA580669F09E012E5C3E45C901B20155
:10303000A6010E948F0010922DA16C147D0489F1CD
:1030400088E1B801A7016ADF882349F58EEF5ADFCE
:10305000C2E3D1EA899156DF83EAC233D807D1F7B8
:103060008FEF50DF8FEF4EDF52DF8F3FE9F74FDFFB
:103070004C0C5D1CC601A0E0B0E0880E991EAA1E93
:10308000BB1E6C187D0881E080932DA103C0212C0C
:10309000F2E03F2E6114710409F084CF02C080E099
:1030A00001C081E0CDB7DEB7E2E10C941B24809132
:1030B0002DA1882311F081E0089560912EA17091D7
:1030C0002FA1809130A1909131A142E351EA20E0FB
:1030D00032E059DF882319F081E080932DA1089513
:1030E000A0E0B0E0E6E7F8E10C94FF232B013C01FF
:1030F0005A01190163C0AFEF8A2EA1E09A2E8420F5
:103100009520C401A0E0B0E073016201C81AD90A99
:10311000EA0AFB0A00E012E0081919092016310634
:1031200008F4810180912EA190912FA1A09130A14E
:10313000B09131A1C816D906EA06FB0661F1B7DFE6
:10314000882309F441C081E1B701A601E7DE8823A5
:1031500009F03AC0DCDE8E3FE9F7C2E3D1EAD7DE00
:10316000899383EAC233D807D1F7C0922EA1D092B7
:103170002FA1E09230A1F09231A194012E5C3E4546
:10318000C501B901A8010E948F00A00EB11EBFDECB
:10319000BEDEBDDE0AC094012E5C3E45C501B9010C
:1031A000A8010E948F00A00EB11E201A310AC8018A
:1031B000A0E0B0E0480E591E6A1E7B1E21143104A7
:1031C00009F099CF81E001C080E0CDB7DEB7E2E140
:1031D0000C941B241F93CF93DF93BA9AB99AB89A91
:1031E000BB9883E58DB9709810922CA187DE882357
:1031F00009F470C010E08BDE1F5F1A30E1F7C0E009
:10320000D0E080E040E050E060E070E087DE8130B8
:1032100039F081E0CF3FD80709F45CC02196F1CFA7
:1032200087E340E050E060E070E078DE89E240E073
:1032300050E060E070E072DE82FD05C080912CA15C
:10324000816080932CA1C0E0D0E080912CA190E01F
:1032500083709070892B41F087E340E050E060E09C
:1032600070E05CDE89E201C081E040E050E060E0B7
:1032700070E054DE80FF06C08FE7CF3FD80751F1E2
:103280002196E3CF80E140E052E060E070E046DE6E
:10329000882301F58DB18C7F8DB9709A8FEF9FEFE8
:1032A000AFEFBFEF80932EA190932FA1A09330A1F9
:1032B000B09331A181E080932DA160E070E080E0C7
:1032C00090E042E351EA20E032E00ADF882319F07F
:1032D00081E001C080E0DF91CF911F910895FC0152
:1032E00011821082138212821482089586ED9CE26C
:1032F000F6CFCB9644C80A9642C8FC011182818160
:1033000080830895DC01A058BF4F80E490E01196BF
:103310009C938E93A058B04080E090E0FD01E80FB0
:10332000F91F11821082029680389105B9F708952D
:103330000F931F938C01E1DFC8014096E3DFF80192
:10334000178616860E561F4FF801118210821F91A4
:103350000F9108958BED9CE2EBCFEF92FF920F93CC
:103360001F938C01F42EE22E0E94B104D801ED913E
:10337000FC910480F581E02DC8016F2D0995D801DD
:10338000ED91FC910480F581E02DC8016E2D099529
:103390001F910F91FF90EF900895FF920F931F934D
:1033A0008C01F42E0E94B104D801ED91FC910480AF
:1033B000F581E02DC8016F2D09951F910F91FF90A8
:1033C0000895FC01828993898617970711F4138A5F
:1033D000128A848995898617970711F4158A148AA9
:1033E000868997898617970711F4178A168A808D20
:1033F000918D8617970711F4118E108E0895FB0199
:1034000088EA9DE260814181C8CFFB0188EA9DE2A4
:10341000608141812281A1CF84599F4F0C94BF11BB
:1034200082539F4F0C94BF1181509F4F0C94BF113A
:10343000805D9E4F0C94BF11A0E0B0E0E2E2FAE1A3
:103440000C940A24EC017B01B9019A01DFB6F894CF
:1034500008A9FC01A0E0B0E04170507041C080813B
:1034600091818E159F05D1F58281938186179707EB
:10347000A9F5848195818217930741F06115710543
:1034800069F54115510551F580FD28C0812F90E067
:103490009C01220F331F280F391F220F331F019663
:1034A000BC01660F771F680F791F660F771F6C0FBF
:1034B0007D1F802F90E08A1B9B0B0197AC01440F6E
:1034C000551F480F591F440F551FCE01820F931FE0
:1034D0000E94A21088A9815088AB06C0119636962A
:1034E0001A2FA01708F4BBCFDFBECDB7DEB7E7E0D9
:1034F0000C94262483569F4F9FCFCB969DCF0A9640
:103500009BCF84599F4F98CF82539F4F95CF815027
:103510009F4F92CF805D9E4F8FCFCF93DF93EC0173
:10352000688360FF0AC025E03AE140E050E088EAA5
:103530009FE9BE010E94191208C025E03AE140E06F
:1035400050E088EA9FE9BE01D5DF888181FF11C084
:1035500025E03AE140E050E088EA9FE9BE01C9DE9B
:1035600025E03AE140E050E088EA9FE9BE01C3DE91
:1035700010C025E03AE140E050E088EA9FE9BE0152
:10358000BCDF25E03AE140E050E088EA9FE9BE0177
:10359000B6DF888183FF09C025E03AE140E050E0D2
:1035A00088EA9FE9BE0138DF08C025E03AE140E043
:1035B00050E088EA9FE9BE01A4DF888184FF09C04A
:1035C0002FEF39E140E050E088EA9FE9BE0128DFB3
:1035D00008C02FEF39E140E050E088EA9FE9BE01E2
:1035E00093DF888185FF09C02FEF39E140E050E08B
:1035F00088EA9FE9BE0118DF08C02FEF39E140E0FB
:1036000050E088EA9FE9BE0182DF888186FF09C019
:1036100025E03AE140E050E088EA9FE9BE0108DF9A
:1036200008C025E03AE140E050E088EA9FE9BE01A9
:1036300071DFFE01819182FF06C08AE091EABF013D
:103640000E94791204C08AE091EABF01BADEDF91DC
:10365000CF9108950F931F9308EA1DE2C80160EF10
:103660000E94B104609114A1709115A1409112A122
:10367000509113A1C8010E94DD04C80167EFFAD27E
:103680001F910F9108959798979A08959698969AF2
:10369000089581B3806C81BB8D989598979A969A7E
:1036A0000895EF92FF921F93CF93DF937C01EEDF9B
:1036B000C0E0D0E010E0CC0FDD1F80B390E045E02B
:1036C000969587954A95E1F781709070C82BD92B14
:1036D000C701D9DF1F5F103171F7CE01DF91CF91A4
:1036E0001F91FF90EF9008954FB7F894FC0180E090
:1036F000178216828F5F32968430D1F74FBF0895BC
:103700000F931F938C01F0DFF80112821382148251
:103710001582118210821F910F910895A0E0B0E0F0
:10372000E4E9FBE10C940724EC01D62EC72E8C01B2
:103730008EE7E82E8DE2F82E862F972F9C0160E011
:1037400070E0A880B980C9018A259B25837090709C
:10375000892B09F460C0D7018C9180FF05C0FB0163
:103760003396EE0FFF1F04C0FB01EE0FFF1F3796CD
:10377000EC0FFD1FD80112968C91482F50E043703A
:1037800050704115510559F4C5018370907001972F
:1037900031F4C901837090700397B9F40DC04330C0
:1037A000510581F4C501837090700297D9F4C90165
:1037B00083709070892BC9F48081803444F58081B6
:1037C0008F5F24C04115510569F4B3E0AB22BB24DF
:1037D00082E0A816B104D9F4C901837090700397F0
:1037E000B1F40FC04330510591F493E0A922BB24FA
:1037F000A1E0AA16B10459F4C90183709070892B15
:1038000031F48081813C1CF08081815080838881EB
:103810008370F80182838881998196958795969522
:103820008795998388836F5F7F4F0F5F1F4F85E078
:1038300090E0E80EF91E6430710529F03695279561
:10384000369527957ECFD882C982CDB7DEB7EAE01C
:10385000FAC7EEE7FDE29081892F877C808380FFA5
:1038600003C08260808302C0957C908335968DE290
:10387000E63AF80781F70895ECCF0895EEE7FDE208
:1038800070E0808160FF02C0816001C08E7F808314
:1038900035968DE2E63AF80719F075956795F0CF01
:1038A00008958FE69DE2F5DE80E79DE229DF8EE751
:1038B0009DE2E2CF08950895089508951E9A1E98F6
:1038C0000895DC01E2E6F0E080816F70807F862B56
:1038D0008083ED91FC9111970190F081E02DCD0155
:1038E00009950895FF920F931F938C01F62EDC012A
:1038F000ED91FC9170E084E0759567958A95E1F70C
:103900000280F381E02DC8010995D801ED91FC9169
:10391000BFE0FB220280F381E02DC8016F2D0995E5
:103920001F910F91FF900895DC011A98ED91FC9181
:103930000084F185E02D099588EC90E00197F1F77E
:103940000895DC011A9AED91FC910084F185E02D37
:10395000099588EC90E00197F1F70895FC018EE657
:1039600092E09183808308950F931F938C01DC0173
:10397000ED91FC910280F381E02D63E00995D8017F
:10398000ED91FC910280F381E02DC80162E0099580
:1039900080E293E00197F1F7D801ED91FC9104806A
:1039A000F581E02DC80168E20995D801ED91FC91FF
:1039B0000480F581E02DC8016CE00995D801ED91F6
:1039C000FC910480F581E02DC80164E00995D801DF
:1039D000ED91FC910480F581E02DC80161E009952D
:1039E000D801ED91FC910480F581E02DC80162E0E1
:1039F000099580E29EE40197F1F71F910F910895D8
:103A00000F931F938C01AADF80E692E0F801918367
:103A10008083E1E6F0E080818F6080831092620015
:103A200082B1846482B9C8019FDF1F910F9108950C
:103A300086EA9DE2E5CFFC01128208950895DC013B
:103A4000ED91FC910480F581E02D0995089580E0C9
:103A5000089580E008950C94B1040895DF92EF92E8
:103A6000FF920F931F938C017B01D42E60EF0E9475
:103A7000B104D801ED91FC910280F381E02DC801E1
:103A8000B7014D2D50E00995C80167EF0E94B104C0
:103A90001F910F91FF90EF90DF9008950FB607FEF2
:103AA0000FC02FB7F8945D9BFECF8091AF2D909102
:103AB000B02D9093AE2D8093AD2D6CB92FBF08958E
:103AC0005D9BFECF8091AF2D9091B02D9093AE2D48
:103AD0008093AD2D6CB90895FC011282109298006C
:103AE0008FE18093990086E080939D0080E9809328
:103AF0009A0008950F931F938C018AEA92E0F801CF
:103B000091838083C8010C960E94CE00C801CD9697
:103B10000E94CE00C80182599F4F0E94CE00F8013A
:103B200014821282138213861286118616821582DF
:103B30001F910F910895FC01208131818281938131
:103B400040E02817390709F441E0842F0895815691
:103B50009F4FF1DF91E08927089581569F4FEBDF5A
:103B600091E089270895EF92FF920F931F93CF93CF
:103B7000DF937A018B01EC01CC5ED74ECE01DBDF07
:103B80008823E1F360E472E48FE090E0A8019701FC
:103B900014D6C901DA010197A109B109292F3A2FD9
:103BA0004B2F55272093900089B9CDB7DEB7E6E0BB
:103BB0004EC6FC01128242E15AE760E070E0D3DFBA
:103BC00086E08093950088E98AB90895FC014FB793
:103BD000F89482819381208131814FBF40E001962A
:103BE00060E777E1C3D58217930709F441E0842F9A
:103BF0000895CF93DF93EC019EDF882311F040E01E
:103C00000DC0E881F981EC0FFD1F44818881998105
:103C1000019660E777E1AAD599838883842FDF91A5
:103C2000CF91089581569F4FE4CF81569F4FE1CFAA
:103C30001F93CF93DF93EC01162FC8DF882341F049
:103C4000FE01EC58F84E80818F5F808380E00EC0CB
:103C5000EA81FB81EC0FFD1F14838A819B81019611
:103C600060E777E183D59B838A8381E0DF91CF9101
:103C70001F9108951F93CF93DF93162FEC01CC5E15
:103C8000D74ECE0158DFCE01A1DF8823D9F41FC063
:103C90000FB607FC16C00E944B145D9BFECF8CEB49
:103CA00095E449DF882371F48091AF2D9091B02D78
:103CB0009093AE2D8093AD2D8CEB95E49ADF8CB96B
:103CC00001C0559ACE0182DF8823D9F2E1CF0E944C
:103CD0004D14CE01612FACDF559ADF91CF911F912A
:103CE0000895FC011182108213821282EC58F84E62
:103CF00010820895F6CF08950F931F938C01FADE7A
:103D00008AE792E0F80191838083C80181569F4F32
:103D1000F1DFC801E1DE1F910F9108950F931F930A
:103D20008C01E8DE82E992E0F80191838083C8018A
:103D300081569F4FDFDFC8018C5E974EDBDFC801E5
:103D400038DF1F910F91089588EA9DE2E7DF81E354
:103D50009DE5D2CF1F93182F48C06CB16E3F51F133
:103D6000683F28F180913220823009F56A3F79F06E
:103D70006B3F18F4683FD9F405C06B3F91F06C3F7E
:103D8000B1F40AC080E090E20E94370313C080E0E3
:103D900090E20E94640209C080E090E20E947502F5
:103DA00009C080E090E20E94850229D203C087E426
:103DB0009EE23EDF5D9B11C08CEB95E4BCDE882368
:103DC00061F48091AF2D9091B02D9093AE2D8093A2
:103DD000AD2D8CEB95E40DDF8CB980919B0087FFB6
:103DE00004C0112311F480E004D05F99B6CF1F9175
:103DF00008951F93182F60919C006E3F09F442C0F4
:103E0000683F38F180913220833019F56A3F79F0AC
:103E10006B3F18F4683FD1F405C06B3F69F06C3F0D
:103E2000A9F40FC080E090E20E94370312C080E046
:103E300090E20E9464020DC080E090E20E94850240
:103E400008C080E090E20E94750203C080ED9DE50D
:103E5000EFDE5D9B11C08CEB95E46DDE882361F491
:103E60008091AF2D9091B02D9093AE2D8093AD2D7C
:103E70008CEB95E4BEDE8CB95F9B04C0113011F46D
:103E800081E068DF1F9108951F920F920FB60F9285
:103E900011242F933F934F935F936F937F938F934F
:103EA0009F93AF93BF93EF93FF9381E0A2DFFF91C6
:103EB000EF91BF91AF919F918F917F916F915F91A2
:103EC0004F913F912F910F900FBE0F901F9018951B
:103ED0001F920F920FB60F9211242F933F934F937F
:103EE0005F936F937F938F939F93AF93BF93EF9362
:103EF000FF938CEB95E41FDE882371F45D9BFECF6E
:103F00008091AF2D9091B02D9093AE2D8093AD2DDB
:103F10008CEB95E46EDE8CB98CEB95E40CDE8111B4
:103F200055980E944D145F9B02C083E013DF80917F
:103F30009B0087FF02C083E05CDFFF91EF91BF91A0
:103F4000AF919F918F917F916F915F914F913F9131
:103F50002F910F900FBE0F901F9018951F920F92E8
:103F60000FB60F9211242F933F934F935F936F934C
:103F70007F938F939F93AF93BF93EF93FF9380E0D3
:103F8000E9DEFF91EF91BF91AF919F918F917F916A
:103F90006F915F914F913F912F910F900FBE0F90B6
:103FA0001F90189508950895089508950895089507
:103FB0000895CB01F8CFCB01F7CFCB01F6CFCB01E2
:103FC000F5CFCB01F4CFCB01F3CFEF92FF920F935C
:103FD0001F93F82EE92E29ED3FE140E050E007E283
:103FE0001CE9C8016F2D7E2D84D92BED3FE140E007
:103FF00050E0C8016F2D7E2D7ED92DED3FE140E0D0
:1040000050E0C8016F2D7E2D0E9419122FED3FE167
:1040100040E050E008EA1FE9C8016F2D7E2D69D904
:1040200021EE3FE140E050E0C8016F2D7E2D63D9C5
:1040300023EE3FE140E050E0C8016F2D7E2D0E944D
:1040400019121F910F91FF90EF90089585E495E765
:10405000BCCFDC01E0E0F0E02D913C9111972115FF
:10406000310519F02617370741F4EE0FFF1FE80F4F
:10407000F91F7183608381E0089531961296E430D0
:10408000F10551F780E008958F5A9F4FE2CF85E701
:1040900090E260E071E2F8CFCF93DF93EC01898585
:1040A0009A852FEF8F3F920719F001969A8789879B
:1040B0008B85882391F08D819E81009759F4E8814A
:1040C000F9810480F581E02DCE016EEF09958F8195
:1040D000988501C001979E838D83DF91CF910895CC
:1040E000FC0112820895A0E0B0E0E8E7F0E28DC3A1
:1040F000EC015B016A01982E8D2EE881F981028026
:10410000F381E02DB9010995FD86EC86AC14BD0460
:104110002CF4B88AAF86DA8AC98A04C0D88ACF86D6
:10412000BA8AA98AE881F9810684F785E02D892D6C
:10413000982DB80140E00995CDB7DEB7ECE081C31A
:104140000F931F93FC01748F638F568F458F30A39D
:10415000278F12A301A31F910F9108951F93CF934F
:10416000DF93EC0110E0AB8DBC8D109741F0ED9129
:10417000FC9111970680F781E02DCD0109951F5F15
:104180002296143081F7DF91CF911F910895AF925D
:10419000BF92CF92DF92EF92FF920F931F936C0129
:1041A000DC015B96ED90FC905C97D701ED91FC9162
:1041B000A088B1880284F385E02DC70109958C01A0
:1041C000F601A58DB68DED91FC9111970284F385D2
:1041D000E02DCD01099534E0000F111F3A95E1F76C
:1041E000080F191FC701B801F50109951F910F911B
:1041F000FF90EF90DF90CF90BF90AF90089508951B
:1042000008959C01E199FECF3FBB2EBB6DBB0FB65D
:10421000F894E29AE19A0FBE089582E083BF81E0AC
:104220008FBD8EB589608EBD87B7846087BF8BE4F4
:1042300085BD87B7806487BF089588E10FB6F8947D
:1042400081BD11BC0FBE8FEF84BB15BA81E085BF65
:1042500080E885BF8C9A949A89E080938A0081E8EF
:1042600080938B0080EA90E0909387008093860093
:1042700082B1806382B9D1CF1F920F920FB60F9295
:1042800011248F939F938091BF219091C02101961B
:104290009093C0218093BF219F918F910F900FBE6B
:1042A0000F901F9018956F927F928F929F92AF926E
:1042B000BF92CF92DF92EF92FF920F931F936C0108
:1042C0004B013A015901B901A7010E94C90682ECCC
:1042D00092E0F60191838083C601B401A3019501A8
:1042E00002DF1F910F91FF90EF90DF90CF90BF9072
:1042F000AF909F908F907F906F9008958F929F9234
:10430000AF92BF92CF92DF92EF92FF920F931F93E3
:104310007C016B015A01490160E070E040E050E02F
:104320000E94BE0D88ED92E0F70191838083C70162
:10433000B601A501940104DF1F910F91FF90EF904A
:10434000DF90CF90BF90AF909F908F900895FC0129
:1043500086E392E091838083CF010C946B176F9278
:104360007F928F929F92AF92BF92CF92DF92EF9205
:10437000FF920F931F9376E4672E75E7772EC301A4
:1043800060E070E043E650E020E030E000E010E064
:10439000EE24FF2488DF69E5862E65E7962EC401AA
:1043A00060E070E04FE050E020E030E07CDF5CE671
:1043B000A52E55E7B52EC50160E070E040E450E061
:1043C00020E030E070DF4FE7C42E45E7D42EC60171
:1043D00060E070E04BE050E020E030E064DF82E934
:1043E00095E7B301A4019501860188DF85EF9BE77E
:1043F000AEDF87E29CE968EA7DE247E25CE720E025
:1044000030E20E94D00088EA9FE961E37DE548EA56
:104410005DE920E032E00E94D0001F910F91FF90F3
:10442000EF90DF90CF90BF90AF909F908F907F9054
:104430006F900895CF93DF9380912BA1882311F57E
:1044400081E080932BA178948FE69DE22AD9EC013C
:10445000809129A190912AA1C817D90789F08EE7E8
:104460009DE2F7D98EE79DE26D2F08DA80E79DE2A5
:10447000BE0154D9D0932AA1C09329A10E946C07F0
:1044800010922BA1DF91CF9108951F920F920FB63A
:104490000F9211242F933F934F935F936F937F93CA
:1044A0008F939F93AF93BF93EF93FF938091BD2121
:1044B0009091BE2101969093BE218093BD212091C1
:1044C000BD213091BE218091257C9091267C281BB6
:1044D000390B37FF03C0309521953F4F295B3B4097
:1044E0005CF088EA9DE2FCDD8091BD219091BE21C7
:1044F0009093267C8093257C88EA9DE2CDDD9ADF2F
:10450000FF91EF91BF91AF919F918F917F916F91AB
:104510005F914F913F912F910F900FBE0F901F9081
:10452000189508C088EA9DE280DB682F87E29CE945
:104530000E94600188EA9DE210DB882399F708C099
:1045400081E39DE56FDB682F88EA9FE90E946001A7
:1045500081E39DE5FCDA882399F708951F93182FCE
:10456000809132208250823020F480E090E20E94DC
:10457000CD02D7DF112321F085E790E20E941A0BCC
:104580001F910895F89484E090E060E070E041E0CD
:1045900051E20E94A10029E088E190E00FB6F89472
:1045A000A89581BD0FBE21BDFFCF0E941D0285EFE2
:1045B0009BE70E94661485E790E262E975E70C9438
:1045C000220C0F931F9388EE93E020E931E0F9016C
:1045D0003197F1F70197D9F730DE0E941D020E9452
:1045E0004D148FE69DE25DD88C018EE79DE231D9B6
:1045F0008EE79DE2612F42D980E79DE2B8018ED817
:10460000009329A110932AA189E89DE963E370E250
:104610000E947912889AC9DF3ADD18DD789481E02A
:104620009DDFFDCFEF92FF920F931F93A5E7EA2E38
:10463000A0E2FA2EC70160E00E94FA0440914A7598
:1046400050914B75F4E0440F551FFA95E1F705EBD7
:1046500015E7400F511FC70160E00E940C0A8091CE
:104660004A7590914B750196E4E0880F991FEA9581
:10467000E1F7080F191FC70160E0A8010E940C0AAA
:104680001F910F91FF90EF900895CF93DF93EC016E
:10469000FB0190818A85882319F060E070E005C0F5
:1046A0008181682F772767FD7095892F992787FD6E
:1046B0009095680F791F4F85588929893A898C818F
:1046C0009D810E94F3108C839D83DF91CF9108958B
:1046D0001F93CF93DF93EC0110E08B8D9C8D00979F
:1046E00011F00E94ED051F5F22961430B1F7DF91A3
:1046F000CF911F910895A8E0B0E0E0E8F3E289C00F
:10470000E82ED92EFFB6F8948E010F5F1F4FC80117
:1047100066E77DE248E050E00E94A21080E79DE25B
:104720000E94741BFFBE2E2D3D2DC9017C01B9E0F6
:10473000CB2ED12CCC0EDD1EF701A38DB48D10979E
:1047400049F0ED91FC9111970480F581E02DCD01A8
:10475000B801099582E090E0E80EF91E0E5F1F4F48
:104760000C151D0549F72896E8E06FC0AA1BBB1B76
:1047700051E107C0AA1FBB1FA617B70710F0A61B61
:10478000B70B881F991F5A95A9F780959095BC0182
:10479000CD01089597FB092E07260AD077FD04D096
:1047A000E5DF06D000201AF4709561957F4F0895DB
:1047B000F6F7909581959F4F0895A1E21A2EAA1BB6
:1047C000BB1BFD010DC0AA1FBB1FEE1FFF1FA217C1
:1047D000B307E407F50720F0A21BB30BE40BF50BBE
:1047E000661F771F881F991F1A9469F76095709547
:1047F000809590959B01AC01BD01CF0108952F924A
:104800003F924F925F926F927F928F929F92AF9260
:10481000BF92CF92DF92EF92FF920F931F93CF93AD
:10482000DF93CDB7DEB7CA1BDB0B0FB6F894DEBF44
:104830000FBECDBF09942A88398848885F846E846A
:104840007D848C849B84AA84B984C884DF80EE80B4
:10485000FD800C811B81AA81B981CE0FD11D0FB6BD
:10486000F894DEBF0FBECDBFED010895EE0FFF1F20
:0C4870000590F491E02D0994F894FFCF1E
:10487C0044465400242628292B2D2F30323435372A
:10488C00393B3C3E80019001A001B001C002D00236
:10489C00E001F102F201F302F60000040000000056
:1048AC0049034A034B03A3040000000049034A03D5
:1048BC004B034C0300000000FF044A0325051705B9
:1048CC00000000007705BA069006B305E1057C05EB
:1048DC008005CA057906000000007705BA06F305C5
:1048EC00B305E1057C058005CA05790600000000CA
:1048FC007705BA069006B305E1057C058005CA0567
:10490C007906000000001A0B00000000B607300901
:10491C00A007B307B407DD07DE07DF07E007E107F1
:10492C00E207EA07ED07000000009E0730090000CF
:10493C0000009C0FDF0C5B0DE00CE10CE20CE30CB7
:10494C00F30CE40C000000006610430F780D240FEC
:10495C005310090FF40EA80EE40C000000006610B2
:10496C00DF0C04109D0F5310E20CE30C9A0FE40CB7
:10497C00000000009C0FDF0C990FE00CE10CE20C26
:10498C00E30C9A0FE40C000000009D124A039613EE
:10499C00A41200000000E4130B1400000000DA1352
:1049AC00E313000000006B17561730174F146614F2
:1049BC00D214AF149A1645171F170F15DC165F1576
:1049CC000000000049034A032A1B4C0300000000AE
:1049DC005E1C611C941CA11C721C000000005A1C63
:1049EC005B1C5C1C5D1C000000006C1DDD041E1DAE
:1049FC001F1DA71D121E2B1DCD19AD192E1D00003C
:104A0C000000D91DDD043A1E4E1DAD1D151E2B1DBB
:104A1C00CD19AD192E1D000000001B1DDD041E1D3F
:104A2C001F1D271D291D2B1DCD19AD192E1D000075
:104A3C0000007705BA064523B305E1057C05800522
:104A4C00CA051223000000007B23DF0CC720AE2018
:0A4A5C006823E20CE30C9A0FE40C4F
:00000001FF
