:1000000068C0000093C0000091C000008FC00000D5
:100010008DC000008BC0000089C0000087C00000B8
:1000200085C0000083C000000C9460237FC00000E6
:100030007DC000007BC000000C94E02377C000006E
:1000400075C0000073C000000C9435200C94B21EE3
:100050006DC000006BC0000069C0000067C00000F8
:1000600065C0000063C0000061C000005FC0000008
:100070005DC000005BC000000C94E41F57C000008E
:1000800055C0000053C0000051C000007008BE08F9
:1000900073080909A8080B09B2080D0953454C4516
:1000A000435420504147453A002020202000BB0403
:1000B0004C070008DF0ADE10BA12B216A817621841
:1000C000B519F219331A3E1A721A131DDA1DDE1F02
:1000D000CA2211241FBECFEFD0E1DEBFCDBFB89A38
:1000E000C09885B7806885BF13E0A0E0B1E0EAE979
:1000F000FCE402C005900D92AE3AB107D9F71BE8B7
:10010000A0E0B0E201C01D92AB30B107E1F710E012
:10011000C2EDD0E004C02297FE010E944726CE3AED
:10012000D107C9F70E94B0240C944B2669CFDF9207
:10013000EF92FF920F931F93D72E7A018C01FA0151
:100140000995C80101966D2DF70109951F910F9131
:10015000FF90EF90DF900895FC01738762875783CB
:100160004683118A108A108211821586148617869A
:10017000168615820895FC011282118284E0808324
:100180000895FC0110AA0895FCCF0895A0E0B0E006
:10019000ECECF0E00C941426EC014B016A015901DF
:1001A0008AE0E82EF12CEC0EFD1E00E010E0C70105
:1001B000800F911FE9DF0F5C1F4F81E007351807A3
:1001C000B1F7CE018E599E4FB601A501C5DFC358C8
:1001D000DE4FC992D992B982A8826E9781E0888356
:1001E000C156D14098868F82C458DE4F8FEF8883E6
:1001F000CC57D140CE01BFDFCDB7DEB7ECE00C94D9
:100200003026EF92FF921F93CF93DF93EC017B0197
:1002100010E042C0412F50E0CA01880F991F840F9F
:10022000951FFC01EE0FFF1FEC0FFD1F2481358190
:10023000DC01119620FF16C0C901959587950190A4
:10024000F081E02DE80FF91FAA0FBB1FAC0FBD1FF7
:100250000190F081E02D8D919C91E80FF91FA08114
:10026000B18107C0AA0FBB1FAC0FBD1F0D90BC9181
:10027000A02DFA01EE0FFF1FE40FF51FEE0FFF1F79
:10028000EC0FFD1F3595279580819181820F931F7B
:10029000B701FD0109951F5F88A9181708F4BACFA7
:1002A000DF91CF911F91FF90EF900895A0E0B0E013
:1002B000ECE5F1E00C941826EC01162F683F40F0B5
:1002C0006E3F09F0A9C0EF81F88512861186A4C09F
:1002D00082E6E82E81E0F82EEC0EFD1E01E6C02E2F
:1002E00001E0D02ECC0EDD1E01E0F60180818823D6
:1002F00009F492C08881823009F456C0833030F40A
:100300008823E1F0813009F087C07DC0833039F067
:10031000843009F081C017FF7FC01882E6CF17FF35
:1003200009C0173F21F01882C701B7D4DECFC7013B
:1003300003D572C0C701612F44D56EC0103F39F498
:1003400083E08883C70174D41A82198265C017FFBD
:1003500003C019831A8205C08981882309F45CC00F
:100360000A839981903F08F4907F20E009C08917A3
:1003700031F48181888389818C830B830BC02F5F4B
:10038000E22FF0E0EE0FFF1FE951FE4F808188233E
:1003900071F790E02987992311F484E03CC08A81A9
:1003A000882309F0A2CF38C018828B81FE01E80FA4
:1003B000F11D14838F5F8B83E985F0E0EE0FFF1F43
:1003C000E951FE4F8081803921F48E81882309F420
:1003D00019869985973060F481E3989FC0011124B4
:1003E0000A96BE016C5F7F4F8C0F9D1F0ADF09C00C
:1003F0008981823F31F4BE016C5F7F4F80E090E2E3
:10040000A0D2188209C08B81FE01E80FF11D148370
:100410008F5F8B8382E08883CDB7DEB7E8E00C94F2
:1004200034261C9808951C9A0895DC01ED91FC91E6
:100430000280F381E02D09950895DC01ED91FC9196
:100440000480F581E02D09950895FC0111AA80E151
:1004500097E291A380A315A214A284A195A197A3CA
:1004600086A314821582168217821082118212824C
:10047000138280819181A281B38180879187A28735
:10048000B387148A158A168A178A84899589A6895A
:10049000B78984879587A687B787108E118E128EAD
:1004A000138E808D918DA28DB38D808B918BA28BBD
:1004B000B38B158E858D848F88EC90E094A783A7ED
:1004C00010AA08956817790720F09B01281B390BA3
:1004D00005C09C0120953095260F371FC90108954E
:1004E000CF93DF93EC018FA5882321F08DE39EE26B
:1004F0006AEFA3DFCE01A9DF81E089ABDF91CF9165
:100500000895FC0111AA87A5882321F08DE39EE2BE
:100510006CEF93CF0895CF93DF93EC018FA58823E1
:1005200021F08DE39EE26BEF88DF81E089AB80E113
:1005300097E299A388A31DA21CA28CA19DA19FA3B1
:100540008EA318AADF91CF910895FF920F931F9366
:100550008C01FFB6F894FC0176A765A79B0140E0EB
:1005600050E06AE572E682E090E00E94EC252051BE
:100570003040F801378F268FFFBE1F910F91FF90FB
:100580000895A0E0B0E0E7ECF2E00C941426EC0152
:1005900089A5882309F04BC089A9823009F047C09A
:1005A0002FB7F8948E8C9F8C6EA17FA18CA19DA1FA
:1005B0002FBF88DFBC018038910510F460E870E03F
:1005C00088A9882319F481E088AB20C0ABA4BCA41F
:1005D00080E090E020E031E02A193B0940E050E063
:1005E0000E949A257B018C01CC24DD24940140E0FB
:1005F00050E0C601B5010E949A25E60EF71E081FBD
:10060000191FEF2CF02E012F1127B70180E5603064
:10061000780718F06FEF7FE405C06038710510F4BB
:1006200060E870E08FB7F8947F8F6E8F8FBFCDB783
:10063000DEB7ECE00C943026FC0181A98130B1F5E5
:1006400082A9813019F081A5882381F182E081ABF4
:10065000089580859185A285B3850196A11DB11D60
:1006600080879187A287B387848D8F5F848F848DE5
:10067000863069F4148E80899189A289B3890196A4
:10068000A11DB11D808B918BA28BB38B03C0848D78
:10069000833079F484859585A685B7850196A11D5B
:1006A000B11D84879587A687B787089581A9823071
:1006B00081F20895FC0110AA0895FCCF08950F93CC
:1006C0001F938C01C396F9DFC8018C599F4FF5DF4A
:1006D000C8018B569F4FF1DFC801B7DEF80112AA9F
:1006E000C80168E770E031DFF80117A611A61F9175
:1006F0000F910895CF92DF92EF92FF921F93CF93C5
:10070000DF93EC016A017B0110E043C0412F50E010
:10071000CA01880F991F840F951FFC01EE0FFF1F60
:10072000EC0FFD1F24813581DC01119620FF16C0DE
:10073000C901959587950190F081E02DE80FF91F8B
:10074000AA0FBB1FAC0FBD1F0190F081E02D8D9152
:100750009C91E80FF91FA081B18107C0AA0FBB1FB0
:10076000AC0FBD1F0D90BC91A02DFA01EE0FFF1F25
:10077000E40FF51FEE0FFF1FEC0FFD1F35952795BA
:1007800080819181820F931FB701A601FD01099518
:100790001F5F88A9181708F4B9CFDF91CF911F9177
:1007A000FF90EF90DF90CF900895CF93DF93EC010F
:1007B00089A98230B9F588899989AA89BB8983700A
:1007C0009070A070B0700097A105B10511F429DEFA
:1007D00001C029DE8091C720882321F581E0809324
:1007E000C72078948C8D882381F4488959896A8937
:1007F0007B89CE018B569F4F7DDF4C855D856E8555
:100800007F85CE018C599F4F75DF8C8D833041F4ED
:100810004C855D856E857F85CE018C599F4F6ADF43
:100820001092C720DF91CF910895CF92DF92EF927F
:10083000FF921F93DF93CF9300D00F92CDB7DEB717
:100840007C016B01FC0187A58823E1F0DE01119694
:10085000EFEFF1E083E001900D928150E1F78C2DF4
:100860008F778A83C601880F892F881F990B9195EE
:100870008F778B838DE39EE2BE016F5F7F4F43E0F6
:1008800050E0D3DD1FB7F8949601220F331FC90142
:100890008C0D9D1D880F991FA0E0B0E0F7018083AB
:1008A0009183A283B38380819181A281B381808768
:1008B0009187A287B38780859185A285B38584833C
:1008C0009583A683B78340E050E0248B358B468B1D
:1008D000578B84899589A689B78984879587A68748
:1008E000B787C601A0E0B0E0808F918FA28FB38F51
:1008F000808D918DA28DB38D808B918BA28BB38BCC
:100900004089518962897389C7018B569F4FF2DEF6
:10091000F7014485558566857785C7018C599F4FBA
:10092000E9DEF701158E858D848F1FBF0F900F9024
:100930000F90CF91DF911F91FF90EF90DF90CF90BC
:100940000895DC01FB01D2968C91D29782508230BF
:1009500088F4628170E06F7770707695762F6627E5
:1009600077956795818190E08F779070682B792BD0
:10097000CD015BCF089580E090E2A1CEEF92FF928F
:100980000F931F93CF93DF93EC0189A5882309F080
:1009900083C088A199A1892B09F079C08E8D9F8D84
:1009A00099A388A378948091C620882309F074C005
:1009B00081E08093C620CE013FDE89A9823009F014
:1009C0006BC08FA5882319F1288539854A855B85F9
:1009D0008C819D81AE81BF817901E81AF90A00E01E
:1009E00010E012C08DE39EE268EF0E94121E8C811F
:1009F0009D81AE81BF810196A11DB11D8C839D8318
:100A0000AE83BF830F5F1F4F0E151F055CF38AA9CE
:100A100082508230B8F5288539854A855B85888182
:100A20009981AA81BB81281739074A075B0780F0A3
:100A3000288539854A855B8588819981AA81BB8112
:100A40000196A11DB11D82179307A407B507D0F425
:100A500088819981AA81BB8188879987AA87BB876A
:100A60008C899D89AE89BF898C879D87AE87BF871A
:100A7000888D998DAA8DBB8D888B998BAA8BBB8B0A
:100A80008D8D8C8FCE0191DE1092C62005C088A17D
:100A900099A1019799A388A3CDB7DEB7E6E00C949E
:100AA0003626CF93DF93EC018C8D8FA5882329F018
:100AB0008DE39EE268EF0E94121ECE01BDDDCE01E5
:100AC00074DEDF91CF910895FC0181A5882311F098
:100AD000CF01E7CF80A191A193A382A320915422BB
:100AE0003091552286A197A195A384A337A326A36D
:100AF00081A9813029F411A210A282E081AB2CC01F
:100B000080819181A281B3810196A11DB11D808355
:100B10009183A283B383858D8F5F858F858D86308A
:100B200069F4158E808D918DA28DB38D0196A11DD6
:100B3000B11D808F918FA28FB38F03C0858D8330BD
:100B400059F484899589A689B7890196A11DB11D9B
:100B5000848B958BA68BB78B82A982508230C8F587
:100B6000208531854285538580819181A281B38121
:100B7000281739074A075B07A0F481E082A722A162
:100B800033A1369527953695279580A191A12817F1
:100B90003907F8F480A191A1821B930B91A380A344
:100BA000089512A6268D378D82A193A182179307EF
:100BB00080F4868D978D22A133A140A151A1821B83
:100BC000930B9695879596958795840F951F91A37E
:100BD00080A30895FC0182E192E091838083768373
:100BE00065831282138214820895089508950895EA
:100BF0000895FC016115710549F4828593859587F7
:100C00008487868197819787868704C075876487E4
:100C10005787468711821186108608950F931F9378
:100C20008C01E7DF81E0F80181831F910F91089526
:100C3000FC01118A108A1082118211861086158299
:100C400012821382148260E070E040E050E0E6CF50
:100C5000FC01DB0161157105E9F012969C91129778
:100C60009F3FB1F085813281882379F0391791F463
:100C7000938113968C911397981761F420E09481D7
:100C800014968C91981739F403C020E0391719F4A1
:100C900021E001C020E0822F0895A0E0B0E0E3E56C
:100CA000F6E00C9418267C0181E0F701808387012F
:100CB00088E0C82ED12CCE0CDF1CF801C289D38964
:100CC000C701BE01C5DF882339F0E881F9810280C0
:100CD000F381E02DCE0109950E5F1F4F0C151D0508
:100CE00061F7CDB7DEB7E8E00C943426A0E0B0E0C1
:100CF000ECE7F6E00C9418267C018C0198E0C92EF4
:100D0000D12CCE0CDF1CF801C289D389C701BE01EA
:100D10009FDF882339F0E881F9810190F081E02D8F
:100D2000CE0109950E5F1F4F0C151D0561F7CDB75C
:100D3000DEB7E8E00C943426A0E0B0E0E2EAF6E0AA
:100D40000C9418267C018C0128E0C22ED12CC80EF0
:100D5000D91EF801C289D389C701BE0179DF882372
:100D600039F0E881F9810480F581E02DCE01099503
:100D70000E5F1F4F0C151D0561F7CDB7DEB7E8E01C
:100D80000C943426DC0118962D913C9119971E96EF
:100D90008D919C911F972817390788F41C96ED9127
:100DA000FC911D97309759F0E20FF31F60832F5F7E
:100DB0003F4F19963C932E93189781E0089580E059
:100DC0000895A0E0B0E0E7EEF6E00C941726EC0101
:100DD000B62E8881882309F047C088899989892B94
:100DE00049F46A83662319F481E08D8303C01D8270
:100DF000CE017CDF8D81882361F0888999898130DB
:100E0000910511F4BB8205C0029719F4BC82CE0192
:100E10006DDF7E0138E0C32ED12CCC0EDD1ED70154
:100E200052960D911C915397CE01B80111DF882382
:100E300049F0D801ED91FC910680F781E02DC801C1
:100E40006B2D0995E2E0F0E0EE0EFF1EEC14FD04C0
:100E500031F7888999890196998B888B89818823B4
:100E600019F0CE016B2D8EDFCDB7DEB7E9E00C9423
:100E700033260F931F938C0160E070E0ABDE86E0B9
:100E800092E0F80191838083128283E1838381E47D
:100E900084831F910F91089588EC90E2EACFDC01E2
:100EA0001596ED91FC91169780899189039721F40D
:100EB000653011F40C94132408951F93CF93DF939E
:100EC000EC01162F603F50F0E881F981683F10F483
:100ED0001A8215C00680F781E02D14C08C8188230A
:100EE00061F08A81861739F0E881F9810480F58103
:100EF000E02DCE0109951A8308C0E881F9810480AC
:100F0000F581E02DCE01612F0995DF91CF911F91E1
:100F100008951D980895EF92FF920F931F93CF931A
:100F2000DF938C017B01EA010CC0D7016D917D013B
:100F3000D801ED91FC910480F581E02DC80109955F
:100F40002197209791F7CDB7DEB7E6E00C943626CF
:100F5000FC01E05BFF4F60830895FC011782089558
:100F60000F931F938C0160E070E034DE8EE192E01D
:100F7000F80191838083128280E283838CE38483EF
:100F8000108617861F910F910895FC018091788734
:100F900090917987039731F4662319F481E0878370
:100FA000089517820895E62FDC0118966C9362303D
:100FB00030F0599A60E874E88EE190E007C08BB198
:100FC0008D6F8BB960E472E48FE090E0F0E0EE0F9B
:100FD000FF1FEE0FFF1FEB59FE4F20813181428131
:100FE00053810E94EC25C901DA010197A109B109D9
:100FF000292F3A2F4B2F55272093900089B9089518
:101000008FEC90E2ADCFFF920F931F93F82E0DE37C
:101010001EE2C80165E971E046E050E07CDFC801EE
:101020006F2D0E94031F1F910F91FF9008950F9342
:101030001F930DE31EE2C80165E50E94031FC8016E
:1010400065E50E94031FC80165E50E94031FC801F2
:1010500065E50E94031FC80160E00E94031FC801EC
:1010600060E00E94031FC80160E00E94031FC801E6
:1010700060E00E94031F1F910F9108950F931F932B
:1010800081E1C1DF0DE31EE2C80160E20E94031F9F
:10109000C80160E00E94031FC80160E20E94031FB4
:1010A000C80160E00E94031FC80167EF0E94031F90
:1010B0001F910F910895CF93DF93EC0120917287D8
:1010C00030917387D90115968C9190E0FC0170974F
:1010D000E830F10508F0A3C0EA5BFF4F0C94452609
:1010E000CE01CCDF9CC0F9018681898787818A8700
:1010F00083E189DF8DE39EE267EF0E94031F8DB7D6
:101100009EB708970FB6F8949EBF0FBE8DBFEDB780
:10111000FEB731968AE091E2ADB7BEB712969C93C6
:101120008E9311978CE091E09383828389858483E9
:1011300015828A8586831782E2D5EDB7FEB7389689
:101140000FB6F894FEBF0FBEEDBFCE01698514C087
:1011500068D985E158DF6BDF8DE39EE267EF0E947F
:10116000031F5DC0D6DE87E14EDF8DE39EE267EFB1
:101170000E94031FCE016A8516DF51C08DB79EB74E
:1011800008970FB6F8949EBF0FBE8DBFEDB7FEB7A0
:1011900031968AE091E2ADB7BEB712969C938E93DA
:1011A000119782E591E093838283D90116968C9101
:1011B00016978483158217968C91868317829FD504
:1011C000E0917287F0917387878190E09695982FD0
:1011D000882797958795268130E0822B932B9C87D3
:1011E0008B87818590E09695982F8827979587958E
:1011F000208530E0822B932B9E878D8782E08F871E
:10120000EDB7FEB738960FB6F894FEBF0FBEEDBF30
:1012100006C084E003C086E001C088E08F87DF91CC
:10122000CF9108959C012A5F3F4FC9010895FC01A9
:10123000848195810895FC01828193810895A0E0C5
:10124000B0E0E5E2F9E00C941426EC015B016A01E0
:10125000982E8D2EE881F9810280F381E02DB9016D
:101260000995FD86EC86AC14BD042CF4B88AAF86D3
:10127000DA8AC98A04C0D88ACF86BA8AA98AE8815C
:10128000F9810684F785E02D892D982DB80140E07D
:101290000995CDB7DEB7ECE00C943026CF93DF9301
:1012A000EC012C813D818A819B812817390731F01F
:1012B000EC85FD85309711F0CE0109958C819D81DB
:1012C0009B838A83DF91CF910895CF93DF93EC01C5
:1012D000442349F07D836C83E881F9810680F7819E
:1012E000E02D099504C07D836C837B836A8381E054
:1012F0008E87DF91CF910895FC0140E022813381F8
:10130000848195812817390709F041E0842F0895D9
:10131000FC0113821282158214820895FC01DB0104
:10132000448155812C918385882319F060E070E019
:101330000DC0828511966C91882329F085E06802A2
:10134000B001112403C0772767FD7095332727FD6F
:101350003095240F351F260F371F35832483C9018D
:101360000895FC01A081B1811A962D913C911B97A3
:10137000F9010995882311F480E208958B3110F466
:10138000805C08958B5E0895DC01862F81548A313C
:1013900038F4ED91FC91119770E0605470400AC0F0
:1013A000862F8053ED91FC9111978A3040F470E0C4
:1013B000655170400684F785E02DCD0106C0068496
:1013C000F785E02DCD0160E070E040E009950895DB
:1013D000A3E0B0E0EEEEF9E00C941C268C01603145
:1013E00000F547FD1EC027FD1CC0FE01319683E0BD
:1013F000DF011D928A95E9F7606B69834A832B832D
:10140000C80182599F4FBF010E940101D801ED918F
:10141000FC910088F189E02DC80169814A812B8106
:1014200009952396E4E00C943826FF920F931F93BE
:101430008C01F62EDC01ED91FC910284F385E02D08
:101440000995AC018AE091E26F2DBFD1F8011686B3
:101450001F910F91FF900895CF93DF93EC01FB0153
:1014600090818B85882319F060E070E00CC08A853C
:101470006181882329F085E06802B001112403C04E
:10148000772767FD7095892F992787FD9095680FBD
:10149000791F4F85588929893A898C819D810E94BD
:1014A00082168C839D83DF91CF910895CF93DF9334
:1014B000EC016115710529F0069644E050E00E94A8
:1014C0004B161986DF91CF910895EF92FF920F93FB
:1014D0001F938C017A0180E492E0F801918380836C
:1014E00013821282158214821686C801DFDFF8018A
:1014F000F586E48681E0828713861F910F91FF9025
:10150000EF9008956F927F928F929F92AF92BF92C9
:10151000CF92DF92EF92FF920F931F936C014B01DA
:101520003A015901B901A701D0DF8AE292E0F60140
:1015300091838083C601B401A301950180DE1F91D0
:101540000F91FF90EF90DF90CF90BF90AF909F9062
:101550008F907F906F900895CF92DF92EF92FF92DD
:101560000F931F936C0160E070E045E250E020E0D3
:1015700030E000E010E0EE24FF24C4DF86E592E0D6
:10158000F601918380831F910F91FF90EF90DF9080
:10159000CF900895FC0110821182128A0895FC01F7
:1015A0002FB7F894818130812FBF20E090E0019621
:1015B00087709070381709F421E0822F08958FED1D
:1015C00090E2E8CF0F931F93CF93DF93EC018B0151
:1015D000E6DF882329F08A898F5F8A8B80E013C039
:1015E000898190E00196880F991F8C0F9D1FB8018B
:1015F00042E050E00E94FD14898190E001968770DE
:101600009070898381E0DF91CF911F910F910895B0
:10161000A2E0B0E0EEE0FBE00C94172603E11EE24E
:10162000FF24BB24B3946E010894C11CD11C32E08A
:10163000E32EFA82F801808181FF07C080FD05C09A
:10164000B9828FED90E2B601BDDFF801808181FDA6
:1016500007C080FF05C0E9828FED90E2B601B2DFDE
:10166000F3940B5F1F4FF8E0FF1619F72296E9E09D
:101670000C94332680E00895DC0157966C935797BD
:10168000662321F081E056968C935697ED91FC915C
:1016900011970680F781E02DCD01099508950895F1
:1016A00080E008950F931F93CF93DF93EC018B019C
:1016B000E881F9810280F381E02D0995DC01009732
:1016C00059F0ED91FC910684F785E02DB80109955C
:1016D000882311F081E008C0E881F9810084F18558
:1016E000E02DCE01B8010995DF91CF911F910F91A7
:1016F000089508950895089508950895FC016623B6
:1017000021F0868991E08927868B089580E090E01A
:101710000895FB01DA0110821C920895FC01E3593F
:10172000FF4FA081B181109719F420E030E009C08B
:10173000ED91FC9111970280F381E02DCD01099587
:101740009C01C90108958A3010F4805D0895895A7A
:1017500008950F931F93FC018A01E05BFF4F808186
:10176000E055F04090E027E230E0AC01429FC0013C
:10177000439F900D529F900D1124E80FF91F81E0B7
:10178000828BE60FF11DC80168EE73E00E94D92537
:1017900064E670E00E94D925605D6283C80164E65A
:1017A00070E00E94D9256AE070E00E94D925605D52
:1017B0006383C8016AE070E00E94D925805D84835C
:1017C00080E285831F910F910895660F660FC1CF48
:1017D000FF920F931F93CF93DF938C01F42E005B46
:1017E0001F4FF80180810055104090E027E230E063
:1017F000AC01429FC001439F900D529F900D112458
:10180000080F191F81E0F801828BC62FD0E08F2DC1
:1018100082958F7098DFC00FD11F8A838F2D8F70B4
:1018200092DF8B83CDB7DEB7E5E00C9437261F93AC
:10183000AC0120E030E0DC01A05BBF4F67E270E06C
:1018400010E28C9190E0869FF001879FF00D969FAB
:10185000F00D1124E40FF51FE20FF31F12832F5F29
:101860003F4F2031310569F78C9190E027E230E05D
:10187000829FF001839FF00D929FF00D1124E40FE1
:10188000F51F81E0828B1F9108951F93AC0120E02A
:1018900030E0DC01A05BBF4F67E270E010E28C91AA
:1018A00090E0869FF001879FF00D969FF00D112428
:1018B000E40FF51FE20FF31F138B2F5F3F4F203113
:1018C000310569F71F910895FC01118281818083A0
:1018D0000895FC01108211820895FC0180E992E0D4
:1018E00081939193CF01F5CFEF92FF920F931F93C6
:1018F0008C017B01F2DF82E792E0F8019183808323
:10190000F58AE48A168A178A1F910F91FF90EF904B
:101910000895FC0184E090E0918780871182108215
:101920001382128215821482178216820895DC01B6
:1019300088E090E051969C938E93509780E090E0E1
:10194000FD01E80FF91F1182108202968031910586
:10195000B9F70895FC019FB7F894208181819FBF5A
:1019600090E0281709F491E0892F0895FC019081F7
:10197000818120E0981709F421E0822F0895FC016D
:1019800091818081891720F420818181285F02C0A4
:1019900020818181281B822F0895F1DF90E087301C
:1019A00009F491E0892F08950F931F93CF93DF934C
:1019B000EC018B01DBDF882311F080E01EC00115F4
:1019C0001105D1F08881882319F467E070E004C024
:1019D00088818150682F70E08981680F711D677060
:1019E00070E06F5F7F4F660F771F6C0F7D1FC80120
:1019F00042E050E00E94FD1481E0DF91CF911F9101
:101A00000F910895A2E0B0E0E8E0FDE00C941E26FE
:101A10001A8219820296BE016F5F7F4FC5DF8981EE
:101A20009A812296E2E00C943A260F931F93CF936B
:101A3000DF93EC018B018EDF882311F080E013C06F
:101A4000688170E06F5F7F4F660F771F6C0F7D1F9F
:101A5000C80142E050E0D1D7888190E001968770BC
:101A60009070888381E0DF91CF911F910F9108954D
:101A70000F931F93CF93DF93EC018B018EDF8823AD
:101A800031F0898190E00196877090708983888118
:101A90002981280F30E0277030702F5F3F4F220FD1
:101AA000331FCE01820F931FB80142E050E0A5D74B
:101AB000888190E0019687709070888381E0DF9143
:101AC000CF911F910F910895A2E0B0E0EAE6FDE00A
:101AD0000C941E267A836983BE016F5F7F4FC8DF37
:101AE0002296E2E00C943A26EF92FF920F931F9316
:101AF0008C01FA0170E0B0E5EB2EF12CE80EF91E36
:101B0000D7018C9127E2829FC0011124860F971F75
:101B1000029640E150E0461B570B800F911FBF011A
:101B20000E946516F701808190E027E230E0829FF5
:101B3000F001839FF00D929FF00D1124E00FF11F33
:101B400081E0828B1F910F91FF90EF900895660FB7
:101B5000660FCACFEF92FF920F931F938C01FA0189
:101B600070E080E5E82EF12CE00EF11ED7018C919B
:101B700027E2829FC0011124860F971F029640E141
:101B800050E0461B570B800F911FBF010E944B1660
:101B9000F701808190E027E230E0829FF001839F8F
:101BA000F00D929FF00D1124E00FF11F81E0828B68
:101BB0001F910F91FF90EF900895AB0160E0CACFA5
:101BC000EF92FF920F931F938C01FA0170E020E5D2
:101BD000E22EF12CE80EF91ED7018C9127E2829FAC
:101BE000C0011124860F971F029640E150E0461B6A
:101BF000570B800F911FBF010E943C16F701808197
:101C000090E027E230E0829FF001839FF00D929FE9
:101C1000F00D1124E00FF11F81E0828B1F910F91D5
:101C2000FF90EF900895660F660FCACFCF92DF92B4
:101C3000EF92FF920F931F936C01DC01A05BBF4FEB
:101C40008C9190E037E2E32EF12C8E9DF0018F9D78
:101C5000F00D9E9DF00D1124EC0DFD1D81E084A37F
:101C600083A38C9190E001968E9DF0018F9DF00DE5
:101C70009E9DF00D1124EC0DFD1D718360830C9170
:101C800010E00E9475160E9DF0010F9DF00D1E9D37
:101C9000F00D1124EC0DFD1D96A385A31F910F914E
:101CA000FF90EF90DF90CF900895EF92FF920F9307
:101CB0001F938C01FA01790170E0005B1F4FD8017E
:101CC0008C910055104027E2829FC0011124860F9D
:101CD000971F439640E150E0461B570B800F911F22
:101CE000BF01CAD7C801B701A1DF1F910F91FF90B3
:101CF000EF900895FB019A0160E0AF01D6CFA1E11A
:101D0000B0E0E5E8FEE00C941C26FE017C968E0116
:101D10000F5F1F4FC80161E170E04A8D5B8D9F012D
:101D20007DD6888D998DB80148E552E0E3DF619654
:101D3000E4E00C9438260F931F93CF93DF93EC01CC
:101D4000D4D78C018C819D81B801D8D72A813B8161
:101D50002817390718F08E81882351F0E881F9811E
:101D60000190F081E02DCE0109951D830C831E8228
:101D7000DF91CF911F910F910895662319F0613083
:101D800019F401C041C24BC20895A0E0B0E0EBECF1
:101D9000FEE00C9413267C018DE690E0E80EF91E1F
:101DA000F701A081B18183E99FEFE80EF91E10973A
:101DB00091F0ED91FC9111970280F381E02DCD011E
:101DC0000995EC01009739F0E881F9810480F581EB
:101DD000E02D09951F8A87010E5E1F4FCC24DD245C
:101DE00067E2862E912C50E2A52E77247394BC2CAA
:101DF000F8018289882399F178D7BC01F801838999
:101E000094897CD7F801258936892817390710F479
:101E10007082128AF8018189882309F1C89CE00147
:101E2000C99CD00DD89CD00D11246396CE0DDF1D1A
:101E3000FE0120E030E08081882309F4A0822F5F3A
:101E40003F4F319620313105B1F78BE39EE26B2D88
:101E500094DF8BE39EE2BE01B9D1F801118AF8014B
:101E60008081882321F18289882309F5C89CE001BB
:101E7000C99CD00DD89CD00D11242296CE0DDF1D0B
:101E8000FE0120E030E08081882309F4A0822F5FEA
:101E90003F4F319620313105B1F78BE39EE26B2D38
:101EA0006CDF8BE39EE2BE0191D1F80110820894B1
:101EB000C11CD11C095D1F4FF2E0CF16D10409F0FF
:101EC00096CF8AE091E260E043D88AE091E2DDDCDF
:101ED0008AE091E261E03CD88AE091E2D6DCCDB7BD
:101EE000DEB7EDE00C942F26A2E0B0E0EAE7FFE0D9
:101EF0000C9410267C01BBE5CB2ED12CC80ED91E2C
:101F000000E010E0ABE6AA2EB12CA80EB91E0CC062
:101F1000D6018D919C91009709F00DDF0F5F1F4F47
:101F2000E2E0F0E0CE0EDF1ED5018D919C91081706
:101F3000190774F32AC08FED90E2B50176DD6201D6
:101F400000E010E00DC0D601ED91FC91309711F04A
:101F5000C50109950F5F1F4FE2E0F0E0CE0EDF1ED6
:101F6000D3018D919C91081719076CF3F401A0819E
:101F7000B1811097E9F0ED91FC9111970190F081FA
:101F8000E02DCD01B501099513C05E010894A11C97
:101F9000B11CF1E54F2E512C4E0C5F1CE9E56E2E65
:101FA000712C6E0C7F1C7DE6872E912C8E0C9F1C55
:101FB0008FED90E2CFDC882309F4BDCF8DE690E071
:101FC000E80EF91EF701A081B18183E99FEFE80EC9
:101FD000F91E1097D1F0ED91FC9111970280F381D9
:101FE000E02DCD0109958C01009779F0DC01ED9190
:101FF000FC910190F081E02D0995D801ED91FC91C3
:102000000280F381E02DC8010995EDE6F0E0EE0EC7
:10201000FF1EF701A081B18183E99FEFE80EF91E51
:10202000109741F0ED91FC9111970284F385E02D1A
:10203000CD0109950E948820C701A7DEADE6B0E07A
:10204000EA0EFB1EF701A081B181109789F0ED9196
:10205000FC9111970280F381E02DCD010995DC01FF
:10206000009731F0ED91FC910680F781E02D099504
:102070002296E0E10C942C260F931F93CF93DF93CD
:102080008C01EB01DC01ED91FC910280F381E02DEC
:102090000995C817D907D9F0198F088F8A8D882319
:1020A00049F4E881F9810088F189E02DCE01099594
:1020B00081E08A8FCE01B4D3E881F9810284F3856F
:1020C000E02DCE010995C8010296BE01FDDCDF912D
:1020D000CF911F910F910895EF92FF920F931F934D
:1020E0008C017B010296F0DBC801B701C5DF1F91AF
:1020F0000F91FF90EF900895FC01E359FF4F80810D
:102100009181009709F0E8CF08950F931F93CF9323
:10211000DF93EC018B01C359DF4FA881B981CD5604
:10212000D040109741F0ED91FC9111970088F18912
:10213000E02DCD010995C359DF4F19830883CD5692
:10214000D0400115110541F0D801ED91FC910684B4
:10215000F785E02DC8010995CE01E0DA892B19F049
:10216000CE01DCDA5DD3DF91CF911F910F910895FD
:10217000CF93DF93EC018CE692E099838883CE01C4
:102180008F5A9F4FC6DBCE01855A9F4FD0DBC05B75
:10219000DF4F1882C055D040FE0180E090E292836C
:1021A00091A78F5F31968031D1F71A8A19AECE018F
:1021B00062EF70E2AADFDF91CF91089582EF90E2A3
:1021C00061E671E091DB8AE091E2D2CFEF92FF927B
:1021D0001F93CF93DF937C01EB0110E068816623AE
:1021E00069F0103159F01F5FD701ED91FC91068025
:1021F000F781E02DC70109952196F0CFDF91CF91AE
:102200001F91FF90EF900895FC01A081B181149679
:102210002D913C91159760E8F90109950895FC010D
:10222000A081B18114962D913C91159760ECF90134
:1022300009950895DC01ED91FC911197662329F031
:102240000480F581E02D6FE004C00480F581E02D6D
:102250006CE009950895DC01ED91FC916295660FA3
:10226000660F607C640F60680480F581E02D09953D
:1022700008950895089508950895089508950F9371
:102280001F93FC01748F638F568F458F30A3278F68
:1022900012A301A31F910F910895AF92BF92DF92F5
:1022A000EF92FF920F931F93CF93DF93FC01DB011B
:1022B00040E050E001E010E0BC01615C7F4FDD24B4
:1022C000D39481E4A82EB12CAE0EBF1EEE24EA9466
:1022D000FE2C8C9180FF18C011968C91119790E084
:1022E0008417950789F4C801042E02C0880F991F2E
:1022F0000A94E2F7EB012881398182239323892B09
:1023000019F056AF45AFD3AE8C9181FF18C011962E
:102310008C91119790E08417950789F4C801042ED9
:1023200002C0880F991F0A94E2F7E50128813981DC
:1023300082239323892B19F0F6AEE5AED3AE4F5F1F
:102340005F4F4830510529F681E0DF91CF911F9111
:102350000F91FF90EF90DF90BF90AF900895FC0138
:10236000362F242F6381432F33C8CF93DF93EC01A3
:102370008F898823A1F08AE091E260E00E94A8079B
:102380006B968AE091E2BE0118DC8AE091E261E09E
:102390000E94A80760968AE091E2BE010EDCDF9100
:1023A000CF910895CF93DF93EC018F89882311F0AB
:1023B00041E008C0C75BDF4F8881C954D040882303
:1023C00001F140E08DE39EE260E0C9DFC75BDF4FD3
:1023D0008DE39EE261E04881C2DF8AE091E260E045
:1023E0000E94A807A6978AE091E2BE01E6DB8AE098
:1023F00091E261E00E94A80760968AE091E2BE0146
:10240000DCDBDF91CF910895FC016115710521F0AE
:10241000029641E150E030C412820895FC0161153A
:10242000710521F0439644E050E026C4138A0895D4
:10243000EF92FF920F931F938C017A018AED92E045
:10244000F80191838083118E108E178AC801DCDF1A
:10245000C801B701E3DFF801128E1F910F91FF90C1
:10246000EF9008950F931F938C0160E070E040E0BF
:1024700050E0DEDF88E992E0F8019183808313AEBB
:1024800016AE15AE138E13A61F910F9108958F925D
:102490009F92AF92BF92CF92DF92EF92FF920F93F3
:1024A0001F937C016B015A01490160E070E040E03C
:1024B00050E0BEDF84EC92E0F70191838083C70196
:1024C000B601A5019401DBDE1F910F91FF90EF9003
:1024D000DF90CF90BF90AF909F908F900895CF9254
:1024E000DF92EF92FF920F931F937C0160E070E008
:1024F00040E050E020E030E000E010E0C8DF8EEA8D
:1025000092E0F70191838083FAE4CF2ED12CCE0C98
:10251000DF1CC60121D88701035A1F4FC8011CD8F0
:10252000C801439619D8C801869616D884E490E06D
:10253000E80EF91EF70111927F01118210828BEBD8
:102540009FEFE80EF91EF70113A2D48EC38E168FEB
:10255000058FC70180599F4F90A3878FC7018D5763
:102560009F4F92A381A31F910F91FF90EF90DF9057
:10257000CF90089589E791E275DF8CEB91E2AFCFC0
:10258000A0E0B0E0E6ECF2E10C9416267C0177FFC7
:1025900003C060E070E005C06D30710514F06CE0C0
:1025A00070E08701095B1F4FD8016D937C93C0E0F9
:1025B000D0E0A3E1AA2EB12C6801CA9DC001CB9D39
:1025C000900DDA9D900D1124865B9F4FF701EC0F63
:1025D000FD1FD6012D913C91E20FF31F8E0D9F1D23
:1025E00063A90E94C4092196C430D10531F78BE359
:1025F0009EE261E0F80140812EDECDB7DEB7EAE071
:102600000C9432260F931F93CF93DF93EC018B0131
:10261000FB01808180FF0DC08181853051F4C95B51
:10262000DF4F68817981C754D04064507040CE013B
:10263000A7DFF801808180FF0DC08181863051F4D1
:10264000C95BDF4F68817981C754D0406C5F7F4F91
:10265000CE0196DFF801808180FF0BC0818184303C
:1026600041F4CC5BDF4F81E0899319821882C55415
:10267000D040F801808180FF0BC08181873041F418
:10268000CC5BDF4F81E0899381E090E09983888380
:1026900081E0DF91CF911F910F9108950F931F93C8
:1026A0000BE31EE2FC01E95BFF4FC80161E04081E2
:1026B000D2DDC80160E0BEDD80E49CE90197F1F75E
:1026C0001F910F910895EF92FF920F931F938C012A
:1026D00060E070E055DFBBE3EB2EBEE2FB2EC701EE
:1026E00061E0A8DD095B1F4FC70161E0F80140818F
:1026F000B2DD1F910F91FF90EF9008950F931F93FC
:10270000CF93DF93EC0173D08E01075B1F4FF8016D
:102710008081882369F08BE39EE261E08BDDC95BF9
:10272000DF4F8BE39EE261E0488195DDF801108286
:10273000DF91CF911F910F910895A0E0B0E0E3EAFF
:10274000F3E10C940F266C013AE4A32EB12CA80EF1
:10275000B91EEE24FF2423E1422E512C97E4692E6A
:10276000712C6C0C7D1C89E4882E912C8C0C9D1C8A
:1027700033243394E49CE001E59CD00DF49CD00D0F
:102780001124C65BDF4FCC0DDD1DD501ED91FC9111
:102790000084F185E02DCE0109958823A1F08DE319
:1027A0009EE262E04E2DDBDDF301008111810E0D12
:1027B0001F1DCE010E94B1090C0D1D1DD801D3961D
:1027C0008C93F40130820894E11CF11C83E190E0C9
:1027D000A80EB91E94E0E916F10461F6CDB7DEB794
:1027E000E1E10C942B26089580E0089508951F934D
:1027F000CF93DF93EC0110E0AB8DBC8D109741F0CF
:10280000ED91FC9111970680F781E02DCD0109959E
:102810001F5F2296143081F7DF91CF911F910895A9
:10282000EF92FF920F931F938C016AE0E62E61E214
:10283000F62EC70160E00E94A807C7010E94170C8E
:10284000C70161E00E94A807C7010E94170C81E040
:10285000F801878B1F910F91FF90EF9008950F93D0
:102860001F93CF93DF93182F092F8AE091E260E046
:102870000E94A807212F302FC901EC0110E0AB8D79
:10288000BC8D109771F0ED91FC9111970190F08142
:10289000E02DCD010995AC018AE091E2612FC3D909
:1028A00006C08AE091E2612F49EA50E050D91F5FEB
:1028B0002296143021F7DF91CF911F910F91089547
:1028C000A0E0B0E0E6E6F4E10C9418267C01DC011F
:1028D00057968C91882311F0C701C1DF8AE091E2FD
:1028E00061E00E94A8078701C0E0D0E0DC2ECD2E79
:1028F000F801A38DB48D109739F1ED91FC911197EA
:102900000084F185E02DCD010995882369F4D70174
:1029100057968C91882341F4D8015B96ED91FC91F8
:102920005C978685882381F0D8015B96ED91FC91B8
:102930005C97A081B18150962D913C915197CF0128
:102940006D2D7C2DF901099521960E5F1F4FC43026
:10295000D10561F6CDB7DEB7E8E00C9434261F93BD
:10296000CF93DF93EC0110E08B8D9C8D009711F0DD
:102970000E9488091F5F22961430B1F7DF91CF9132
:102980001F910895A8E0B0E0E8ECF4E10C9418265B
:10299000E82ED92EFFB6F8948E010F5F1F4FC801A5
:1029A0006BE07EE248E050E028D085E09EE25DD713
:1029B000FFBE2E2D3D2DC9017C0139E0C32ED12C47
:1029C000CC0EDD1EF701A38DB48D109749F0ED916B
:1029D000FC9111970480F581E02DCD01B801099596
:1029E00082E090E0E80EF91E0E5F1F4F0C151D05EA
:1029F00049F72896E8E00C943426DC01FB0104C07A
:102A000081918D934150504041155105C9F708956A
:102A10008A3010F4805D0895895A08952F923F926C
:102A20004F925F927F928F929F92AF92BF92CF927E
:102A3000DF92EF92FF920F931F93CF93DF931C01CE
:102A40004B012A016901089481089108880E991E9A
:102A5000EC01F3C0853209F0E6C00894411C511C1A
:102A6000D2018C91823691F0833648F4823499F108
:102A7000883509F496C0882309F4E8C0D9C08337A3
:102A800009F4C1C0883709F0D3C072C0F6012081B3
:102A900063E0A62EB12CAC0EBD1EA814B90408F03C
:102AA000D5C082E090E0C80ED91E822F64E60E9455
:102AB000B925805DFE018193822F0E94B925892F5F
:102AC0006AE00E94B925805D8983822F0E94B92522
:102AD000905D9183AEC0D6014C9111960C9155E05A
:102AE000A52EB12CAC0EBD1EA814B90408F0AEC0C2
:102AF000E2E0F0E0CE0EDF1E842F902F60E177E25F
:102B00000E94C525605DFE016193842F902F60E1D6
:102B100077E20E94C52568EE73E00E94C525605DDE
:102B200069839F012F5F3F4F842F902F68EE73E0E2
:102B30000E94C52564E670E00E94C525605D618342
:102B4000842F902F64E670E00E94C5256AE070E053
:102B50000E94C525605DD90111966C93842F902F3A
:102B60006AE070E00E94C525805DF901828361C042
:102B7000D6010C9142E0A42EB12CAC0EBD1EA814BF
:102B8000B90408F063C0E2E0F0E0CE0EDF1E802F53
:102B900082958F703DDF8883802F8F7039DF898326
:102BA00048C0D6018C9111967C9034E0A32EB12CB4
:102BB000AC0EBD1EA814B90408F048C0E2E0F0E075
:102BC000CE0EDF1E082F172D872D82958F7020DFE8
:102BD000DE018D937D01872D8F701ADF8983C801F7
:102BE00024E0969587952A95E1F78F7011DFF7011C
:102BF0008183802F8F700CDF0894E11CF11CD701BA
:102C000011968C9316C096012E5F3F4FD601ED9121
:102C1000FC9105C08993C815D90548F43196808187
:102C20008823C1F704C0FE0181935F0102C06901DE
:102C30005E010894411C511CE501D2018C9188234E
:102C400021F0C815D90508F405CF19929E01221963
:102C50003309C901DF91CF911F910F91FF90EF9040
:102C6000DF90CF90BF90AF909F908F907F905F90BC
:102C70004F903F902F900895DC01FB0104C08D938D
:102C80003196415050404115510521F080818823F3
:102C9000B1F71C920895DC01FB0104C08D933196BD
:102CA000415050404115510541F080818823B1F7D2
:102CB00004C0415050408D9301C080E24230510524
:102CC000C0F7452B09F01C920895DC01FB0109C0F7
:102CD0008491882311F41C9208958D93319641506C
:102CE000504041155105A1F708958FB7F8942091F0
:102CF0005222309153228FBFC9010895681B790B6E
:102D0000CB010895680F791F641775072CF0A9018E
:102D1000621773070CF4AB01CA010895CF93DF93D8
:102D2000FC018FEF9FEF918380839383828397834E
:102D30008683E35CFA4F1082ED53F540ABE9B1E0D6
:102D4000EF01C355DB4F8D91899381E0AB3AB80712
:102D5000D1F7E556FB4F1082EB59F4401086DF9116
:102D6000CF91089586E592E2D9CFFF920F931F93FA
:102D7000CF93DF93EC018B01FFB6F8942CC0242F86
:102D800030E0F901EE0FFF1FE20FF31FEE0FFF1F00
:102D9000EC0FFD1F8081918180179107F1F4C9012B
:102DA0000196BC01660F771F680F791F660F771FAA
:102DB0006C0F7D1F852F90E00197821B930BAC0158
:102DC000440F551F480F591F440F551FCF0115DEE3
:102DD00088A9815088AB40E001C04F5F58A94517D2
:102DE00070F2FFBECDB7DEB7E5E00C94372607964C
:102DF000BCCFC896BACFFF920F931F93CF93DF93A8
:102E0000EC018B01FFB6F8942CC0242F30E0F901BF
:102E1000EE0FFF1FE20FF31FEE0FFF1FEC0FFD1F62
:102E20008081918180179107F1F4C9010196BC015D
:102E3000660F771F680F791F660F771F6C0F7D1F56
:102E4000852F90E00197821B930BAC01440F551F17
:102E5000480F591F440F551FCF01CFDD88A981505E
:102E600088AB40E001C04F5F58A9451770F2FFBE24
:102E7000CDB7DEB7E5E00C94372685539F4FBBCF27
:102E80000F931F93CF93DF93EC018B01B9019A014C
:102E900058A9583010F080E048C0FC0140E0D9014A
:102EA000A170B07018C0808191818017910789F45A
:102EB000828193818617970761F4848195818217B7
:102EC000930791F16115710521F4109711F480FFBA
:102ED0002BC04F5F3696451730F3852F90E0FC01ED
:102EE000EE0FFF1FE80FF91FEE0FFF1FEC0FFD1F86
:102EF0001183008388A990E0FC01EE0FFF1FE80F0B
:102F0000F91FDF01AA0FBB1FAC0FBD1F15963C9325
:102F10002E9314973196EE0FFF1FEC0FFD1F718358
:102F2000608388A98F5F88AB81E0DF91CF911F918B
:102F30000F9108958B569F4FA3CFFC0110821182F1
:102F4000128213821482178216828FE78583089576
:102F500089EA97E2F2CF0F931F93CF93DF93EC01AF
:102F60008B01B9019A0158A9583010F080E048C08F
:102F7000FC0140E0D901A170B07018C0808191813E
:102F80008017910789F4828193818617970761F4EE
:102F9000848195818217930791F16115710521F460
:102FA000109711F480FF2BC04F5F3696451730F312
:102FB000852F90E0FC01EE0FFF1FE80FF91FEE0FC9
:102FC000FF1FEC0FFD1F1183008388A990E0FC0117
:102FD000EE0FFF1FE80FF91FDF01AA0FBB1FAC0F99
:102FE000BD1F15963C932E9314973196EE0FFF1F3D
:102FF000EC0FFD1F7183608388A98F5F88AB81E030
:10300000DF91CF911F910F91089583569F4FA3CFCA
:10301000FC01118210820895AC01DC01E0E0F0E0D7
:1030200020E030E017961C921E92169715961C927F
:103030001E921497309771F0C90173E0880F991FA1
:103040007A95E1F7840F951F958384831796FC93F7
:10305000EE931697C901019618968038910551F0A4
:10306000F90163E0EE0FFF1F6A95E1F7E40FF51F2A
:103070009C01D8CFFA01E050FC4F51834083089562
:103080000F931F938C01C4DFC8010296C5DF1F9107
:103090000F9108950F931F938C010C96F1DFF801A7
:1030A000148211861182005F1B4FF8011182108279
:1030B0000051144081E0F8018583128613861F9128
:1030C0000F91089581EB97E2E5CFCF93DF93EB016A
:1030D000DC01E0E0F0E052962D913C9153972115F0
:1030E000310519F02C173D0759F43996EE0FFF1FE3
:1030F000E80FF91FD183C0839E838D8381E006C0D2
:1031000031961296E430F10531F780E0DF91CF91EE
:103110000895FC01E350FF4F8FEF808312920895D2
:10312000FC0120917887309179872330310549F46B
:10313000E450FF4F623019F481E0808308951082DB
:103140000895E450FF4F8081EC5FF040882331F018
:103150002530310519F4E350FF4F60830895FC01D9
:1031600010AA0895FC0110AA0895FCCF08950F93AA
:103170001F938C0160E070E00E94EA0580EF92E00E
:10318000F80191838083C8010796E9DFC801C896DA
:10319000E6DFC80187599F4FE2DFC80186569F4F7F
:1031A000DEDFC80185539F4FE0DFF801128280E225
:1031B00083838CE384831F910F910895FF920F9373
:1031C0001F93CF93DF93EC01F62E042F10E043C042
:1031D000412F50E0CA01880F991F840F951FFC01F1
:1031E000EE0FFF1FEC0FFD1F24813581DC011196CE
:1031F00020FF16C0C901959587950190F081E02DBB
:10320000E80FF91FAA0FBB1FAC0FBD1F0190F08183
:10321000E02D8D919C91E80FF91FA081B18107C02D
:10322000AA0FBB1FAC0FBD1F0D90BC91A02DFA01C2
:10323000EE0FFF1FE40FF51FEE0FFF1FEC0FFD1F3A
:103240003595279580819181820F931F6F2D402F97
:10325000FD0109951F5F88A9181708F4B9CFCDB7EC
:10326000DEB7E5E00C9437261F93CF93DF93EC0194
:1032700010E040C0412F50E0CA01880F991F840F11
:10328000951FFC01EE0FFF1FEC0FFD1F2481358100
:10329000DC01119620FF16C0C90195958795019014
:1032A000F081E02DE80FF91FAA0FBB1FAC0FBD1F67
:1032B0000190F081E02D8D919C91E80FF91F6081C4
:1032C000718106C0AA0FBB1FAC0FBD1F6D917C9111
:1032D000FA01EE0FFF1FE40FF51FEE0FFF1FEC0FBB
:1032E000FD1F3595279580819181820F931FFB01EA
:1032F00009951F5F88A9181708F4BCCFDF91CF91FB
:103300001F910895DC01A450BF4F8C91AC5FB04079
:10331000882351F1A350BF4F8C91AD5FB0408736E9
:10332000D9F0883628F4803589F08235E9F411C067
:103330008936B1F08237C1F4E0917287F0917387DA
:10334000CD0185539F4F6681478138CFCD010796C8
:1033500006C0CD01C89603C0CD0186569F4F84CFCD
:10336000CD0187599F4F80CF089583EC9BE2FFCE1C
:10337000FC0184E093E091838083738362831582F0
:1033800014825087478381E086830895DC01179675
:10339000ED91FC911897309709F0099508950895DB
:1033A00008950F931F938C0140E050E0E1DF8CEF14
:1033B00092E0F80191838083C8010F96D0DEC801A6
:1033C000805C9F4FCCDEC8018F589F4FC8DEF8014C
:1033D00015861386118681E08287148686871F9161
:1033E0000F91089581EC9CE268EB7BE0DACFEF92DD
:1033F000FF920F931F93182F092FE3ECEE2EEBE2B1
:10340000FE2EC701612F702F38DDC701612F702F8D
:10341000EEDCC701612F702FECDC1F910F91FF9044
:10342000EF9008950F931F938C0160E070E00E946D
:10343000EA058CE093E0F801918380838FEF82832B
:10344000138214821F910F910895FF920F931F937F
:103450008C01F62E0196E6DFC8016F2D21D11F9158
:103460000F91FF90089583E69DE260E0EECFFC01AE
:103470001182108213821282148208958BE69DE2DB
:10348000F6CFCB9668CD0A9666CDFC01118281817C
:1034900080830895DC01A058BF4F80E490E011962E
:1034A0009C938E93A058B04080E090E0FD01E80F1F
:1034B000F91F11821082029680389105B9F708959C
:1034C0000F931F938C01E1DFC8014096E3DFF80101
:1034D000178616860E561F4FF801118210821F9113
:1034E0000F91089580E79DE2EBCFEF92FF920F934B
:1034F0001F938C01F42EE22E0E945D07D801ED91FE
:10350000FC910480F581E02DC8016F2D0995D8014B
:10351000ED91FC910480F581E02DC8016E2D099597
:103520001F910F91FF90EF900895FF920F931F93BB
:103530008C01F42E0E945D07D801ED91FC9104806E
:10354000F581E02DC8016F2D09951F910F91FF9016
:103550000895FC01828993898617970711F4138ACD
:10356000128A848995898617970711F4158A148A17
:10357000868997898617970711F4178A168A808D8E
:10358000918D8617970711F4118E108E0895FB0107
:103590008DE39EE260814181C8CFFB018DE39EE215
:1035A000608141812281A1CF84599F4FD4CC825325
:1035B0009F4FD1CC81509F4FCECC805D9E4FCBCCC6
:1035C000A0E0B0E0E6EEFAE10C941926EC017B01F4
:1035D000B9019A01DFB6F89408A9FC01A0E0B0E0B7
:1035E0004170507040C0808191818E159F05C9F552
:1035F0008281938186179707A1F58481958182172F
:10360000930741F06115710561F54115510549F5C3
:1036100080FD27C0812F90E09C01220F331F280FCF
:10362000391F220F331F0196BC01660F771F680FE9
:10363000791F660F771F6C0F7D1F802F90E08A1B0C
:103640009B0B0197AC01440F551F480F591F440FA6
:10365000551FCE01820F931FD0D988A9815088AB06
:1036600006C0119636961A2FA01708F4BCCFDFBEFD
:10367000CDB7DEB7E7E00C94352683569F4FA0CF39
:10368000CB969ECF0A969CCF84599F4F99CF825359
:103690009F4F96CF81509F4F93CF805D9E4F90CF8D
:1036A000CF93DF93EC01688360FF09C02DEC3AE112
:1036B00040E050E087E899E8BE01A7DC08C02DECA7
:1036C0003AE140E050E087E899E8BE01D6DF888122
:1036D00081FF11C02DEC3AE140E050E087E899E825
:1036E000BE01CFDE2DEC3AE140E050E087E899E8FA
:1036F000BE01C9DE10C02DEC3AE140E050E087E8A1
:1037000099E8BE01BDDF2DEC3AE140E050E087E8EA
:1037100099E8BE01B7DF888183FF09C02DEC3AE14B
:1037200040E050E087E899E8BE013EDF08C02DEC9C
:103730003AE140E050E087E899E8BE01A5DF8881E2
:1037400084FF09C027EC3AE140E050E087E899E8BF
:10375000BE012DDF08C027EC3AE140E050E087E8E9
:1037600099E8BE0194DF888185FF09C027EC3AE122
:1037700040E050E087E899E8BE011CDF08C027EC74
:103780003AE140E050E087E899E8BE0183DF8881B4
:1037900086FF09C02DEC3AE140E050E087E899E867
:1037A000BE010BDF08C02DEC3AE140E050E087E8B5
:1037B00099E8BE0172DFFE01819182FF05C089EEAA
:1037C0009AE8BF0182DC04C089EE9AE8BF01C1DE3D
:1037D000DF91CF9108950F931F930DE31EE2C8016F
:1037E00060EF0E945D076091F38A7091F48A4091C6
:1037F000F18A5091F28AC8010E948B07C80167EFD5
:1038000002D31F910F9108959798979A08959698CB
:10381000969A089581B3806C81BB8D989598979AFC
:10382000969A0895EF92FF921F93CF93DF937C01B6
:10383000EEDFC0E0D0E010E0CC0FDD1F80B390E001
:1038400045E0969587954A95E1F781709070C82B71
:10385000D92BC701D9DF1F5F103171F7CE01DF917E
:10386000CF911F91FF90EF9008954FB7F894FC010E
:1038700080E0178216828F5F32968430D1F74FBF77
:1038800008950F931F938C01F0DFF80112821382C9
:1038900014821582118210821F910F910895A0E069
:1038A000B0E0E5E5FCE10C941626EC01D62EC72E1F
:1038B0008C0183E1E82E8EE2F82E862F972F9C0153
:1038C00060E070E0A880B980C9018A259B258370DB
:1038D0009070892B09F460C0D7018C9180FF05C0DE
:1038E000FB013396EE0FFF1F04C0FB01EE0FFF1F1D
:1038F0003796EC0FFD1FD80112968C91482F50E09F
:10390000437050704115510559F4C5018370907092
:10391000019731F4C901837090700397B9F40DC019
:103920004330510581F4C501837090700297D9F43A
:10393000C90183709070892BC9F48081803444F56B
:1039400080818F5F24C04115510569F4B3E0AB223B
:10395000BB2482E0A816B104D9F4C9018370907029
:103960000397B1F40FC04330510591F493E0A922BD
:10397000BB24A1E0AA16B10459F4C9018370907068
:10398000892B31F48081813C1CF0808181508083BF
:1039900088818370F80182838881998196958795C3
:1039A00096958795998388836F5F7F4F0F5F1F4F31
:1039B00085E090E0E80EF91E6430710529F0369537
:1039C0002795369527957ECFD882C982CDB7DEB7A9
:1039D000EAE00C943226E3E1FEE29081892F877CB5
:1039E000808380FF03C08260808302C0957C9083C7
:1039F00035968EE2EB33F80781F70895ECCF089502
:103A0000E3E1FEE270E0808160FF02C0816001C0FE
:103A10008E7F808335968EE2EB33F80719F075952B
:103A20006795F0CF089584E09EE2F4DE85E09EE2A3
:103A300028DF83E19EE2E2CF089508950895089576
:103A40001E9A1E980895DC01E2E6F0E080816F7016
:103A5000807F862B8083ED91FC9111970190F081FE
:103A6000E02DCD0109950895FF920F931F938C01CE
:103A7000F62EDC01ED91FC9170E084E07595679580
:103A80008A95E1F70280F381E02DC8010995D801FC
:103A9000ED91FC91BFE0FB220280F381E02DC80193
:103AA0006F2D09951F910F91FF900895DC011A98D1
:103AB000ED91FC910084F185E02D099588EC90E072
:103AC0000197F1F70895DC011A9AED91FC910084B9
:103AD000F185E02D099588EC90E00197F1F70895C4
:103AE000FC0186E293E09183808308950F931F93F6
:103AF0008C01DC01ED91FC910280F381E02D63E00B
:103B00000995D801ED91FC910280F381E02DC80167
:103B100062E0099580E293E00197F1F7D801ED9119
:103B2000FC910480F581E02DC80168E20995D80177
:103B3000ED91FC910480F581E02DC8016CE00995C0
:103B4000D801ED91FC910480F581E02DC80164E07D
:103B50000995D801ED91FC910480F581E02DC80113
:103B600061E00995D801ED91FC910480F581E02D8B
:103B7000C80162E0099580E29EE40197F1F71F9188
:103B80000F9108950F931F938C01AADF88E193E0B2
:103B9000F80191838083E1E6F0E080818F6080838B
:103BA0001092620082B1846482B9C8019FDF1F91C4
:103BB0000F9108958BE39EE2E5CF1D9A0895FC01D5
:103BC000128208950895DC01ED91FC910480F58145
:103BD000E02D0995089580E0089580E008950C9403
:103BE0005D070895DF92EF92FF920F931F938C0170
:103BF0007B01D42E60EF0E945D07D801ED91FC910E
:103C00000280F381E02DC801B7014D2D50E00995E8
:103C1000C80167EF0E945D071F910F91FF90EF9021
:103C2000DF9008958FB7F8945D9BFECF6CB98FBF7E
:103C30000895FC011282109298008FE18093990000
:103C400086E080939D0080E980939A0008950F9309
:103C50001F938C0182E693E0F80191838083C80171
:103C60000C960E94C400C801CD960E94C400C801F1
:103C700082599F4F0E94C400F8011482128213825D
:103C8000138612861186168215821F910F91089550
:103C9000FC014FB7F89420813181828193814FBF1D
:103CA00040E02817390709F441E0842F0895EF9286
:103CB000FF920F931F93CF93DF937A018B01EC0157
:103CC000CC5ED74ECE01E4DF8823E1F360E472E4FA
:103CD0008FE090E0A80197017FD7C901DA01019731
:103CE000A109B109292F3A2F4B2F55272093900076
:103CF00089B9CDB7DEB7E6E0B9C7FC01128242E16F
:103D00005AE760E070E0D3DF86E08093950088E9B1
:103D10008AB90895FC014FB7F8948281938120817C
:103D200031814FBF40E0019693708217930709F4E9
:103D300041E0842F0895CF93DF93EC01A9DF88231E
:103D400011F020E00BC0E881F981EC0FFD1F248108
:103D5000888199810196937099838883822FDF915E
:103D6000CF9108951F920F920FB60F9211242F93A7
:103D70003F934F935F936F937F938F939F93AF93F3
:103D8000BF93EF93FF9381E596E482DF882321F4CC
:103D900081E596E4D0DF8CB981E596E479DF811185
:103DA00055980BDFFF91EF91BF91AF919F918F914C
:103DB0007F916F915F914F913F912F910F900FBE27
:103DC0000F901F9018951F93CF93DF93EC01162F40
:103DD000A1DF882341F0FE01EC5FFB4F80818F5F04
:103DE000808380E00CC0EA81FB81EC0FFD1F14830F
:103DF0008A819B81019693709B838A8381E0DF9106
:103E0000CF911F9108951F93CF93DF93162FEC014D
:103E1000CC5ED74ECE013CDFCE017CDF882399F407
:103E200017C00FB607FC0EC00E9489075D9BFECF2E
:103E300081E596E42DDF882331F481E596E47BDF8C
:103E40008CB901C0559ACE0165DF882319F3E9CFFB
:103E5000B4DECE01612FB7DF559ADF91CF911F916C
:103E60000895FC014FB7F8942081318182819381BC
:103E70004FBF40E02817390709F441E0842F089527
:103E800081569F4FEEDF91E08927089581569F4F1D
:103E9000E8DF91E089270895CF93DF93EC01E1DF1C
:103EA000882311F040E00DC0E881F981EC0FFD1F7F
:103EB000448188819981019660E777E166D699838C
:103EC0008883842FDF91CF91089581569F4FE4CF4F
:103ED00081569F4FE1CFFC01118210821382128222
:103EE000EC58F84E10820895F6CF08950F931F9363
:103EF0008C01ADDE82E393E0F80191838083C801F9
:103F000081569F4FF1DFC80194DE1F910F910895F4
:103F1000FC011182108213821282EC5FFB4F10822F
:103F20000895F6CF08950F931F938C0190DE8AE4D5
:103F300093E0F80191838083C80181569F4FD4DFBD
:103F4000C8018C5E974EEDDFC801D7DE1F910F913F
:103F50000895FC014FB7F8948281938120813181CB
:103F60004FBF40E0019660E777E10FD682179307D5
:103F700009F441E0842F08951F93CF93DF93EC0160
:103F8000162FE7DF882341F0FE01EC58F84E8081C0
:103F90008F5F808380E00EC0EA81FB81EC0FFD1F04
:103FA00014838A819B81019660E777E1EED59B833C
:103FB0008A8381E0DF91CF911F9108958DE39EE286
:103FC000B2DF86E59AE492CF1F920F920FB60F925E
:103FD00011242F933F934F935F936F937F938F930E
:103FE0009F93AF93BF93EF93FF9360919C00683FC3
:103FF00020F180913220833001F56A3F79F06B3FE8
:1040000018F4683FF1F405C06B3F69F06C3FC9F4E8
:104010000FC080E090E20E94640516C080E090E24C
:104020000E94700211C080E090E20E948B020CC0DE
:1040300080E090E20E94810207C08091E88A882394
:1040400019F085EF9AE498DFFF91EF91BF91AF915E
:104050009F918F917F916F915F914F913F912F91A0
:104060000F900FBE0F901F9018951F920F920FB6D2
:104070000F9211242F933F934F935F936F937F93EE
:104080008F939F93AF93BF93EF93FF936CB1683F70
:1040900048F180913220823029F56A3F79F06B3FF8
:1040A00018F4683FD9F405C06B3F91F06C3FB1F450
:1040B0000AC080E090E20E94640519C080E090E2AE
:1040C0000E94700209C080E090E20E9481020FC04D
:1040D00080E090E20E948B026DD109C08CED9EE2DF
:1040E0004BDF05C08CED9EE247DF80915046FF918B
:1040F000EF91BF91AF919F918F917F916F915F9160
:104100004F913F912F910F900FBE0F901F901895D8
:1041100008950895089508950895089508950895B7
:10412000CB01F7CFCB01F6CFCB01F5CFCB01F4CF4D
:10413000CB01F3CFCB01F2CFCB01BA01F0CFEF929D
:10414000FF920F931F93F82EE92E20E930E240E012
:1041500050E006E016E8C8016F2D7E2D92D922E9C5
:1041600030E240E050E0C8016F2D7E2D8CD924E96B
:1041700030E240E050E0C8016F2D7E2D0E9405180E
:1041800026E930E240E050E007E819E8C8016F2D69
:104190007E2D77D928E930E240E050E0C8016F2D4C
:1041A0007E2D71D92AE930E240E050E0C8016F2D40
:1041B0007E2D0E9405181F910F91FF90EF9008959A
:1041C0008AE692E6BCCFBC012CE930E240E050E048
:1041D00080E090E20C949A178AE692E6F4CFDC0134
:1041E000E0E0F0E02D913C9111972115310519F097
:1041F0002617370741F4EE0FFF1FE80FF91F7183F1
:10420000608381E0089531961296E430F10551F70C
:1042100080E008958F5A9F4FE2CF8AE091E26AE3EF
:1042200074E2F8CFFC016115710511F4138608954D
:1042300081E0838716821582708767830895CF9304
:10424000DF93EC0189859A852FEF8F3F920719F054
:1042500001969A8789878B85882391F08D819E812D
:10426000009759F4E881F9810480F581E02DCE01B1
:104270006EEF09958F81988501C001979E838D838C
:10428000DF91CF910895FC0112820895A0E0B0E083
:10429000EBE4F1E2C9C4EC015B016A01982E8D2EBA
:1042A000E881F9810280F381E02DB9010995FD864D
:1042B000EC86AC14BD042CF4B88AAF86DA8AC98ABD
:1042C00004C0D88ACF86BA8AA98AE881F98106848F
:1042D000F785E02D892D982DB80140E00995CDB7DF
:1042E000DEB7ECE0BDC40F931F93FC01748F638FA6
:1042F000568F458F30A3278F12A301A31F910F91D3
:1043000008951F93CF93DF93EC0110E0AB8DBC8D2C
:10431000109741F0ED91FC9111970680F781E02D07
:10432000CD0109951F5F2296143081F7DF91CF915F
:104330001F910895AF92BF92CF92DF92EF92FF92BA
:104340000F931F936C01DC015B96ED90FC905C97E2
:10435000D701ED91FC91A088B1880284F385E02D0E
:10436000C70109958C01F601A58DB68DED91FC91E3
:1043700011970284F385E02DCD01099534E0000FFB
:10438000111F3A95E1F7080F191FC701B801F50190
:1043900009951F910F91FF90EF90DF90CF90BF9004
:1043A000AF900895FC0117820895BC0188E697E854
:1043B0000C94651808950F931F938C0160E070E0D2
:1043C0000E94EA058AE793E0F801918380831282D4
:1043D00080E283838CE384831F910F910895FC0115
:1043E0008091788790917987039731F4662319F447
:1043F00081E087830895178208950E941102E09159
:104400007287F09173878581833111F40E94890747
:1044100060917887709179874091DA625091DB6280
:10442000A0917287B0917387FA0183E0EE0FFF1FAE
:104430008A95E1F7E452FD4920E030E0261737077E
:1044400020F413968C91139780832F5F3F4F119622
:1044500031962830310591F7CA0101969093DB62BD
:104460008093DA628536910524F01092DB62109217
:10447000DA620C9413029C01E199FECF3FBB2EBB84
:104480006DBB0FB6F894E29AE19A0FBE089582E0F0
:1044900083BF81E08FBD8EB589608EBD87B7846094
:1044A00087BF8BE485BD87B7806487BF089588E1A7
:1044B0000FB6F89481BD11BC0FBE8FEF84BB15BA47
:1044C00081E085BF80E885BF8C9A949A89E08093CB
:1044D0008A0081E880938B0080EA90E090938700C7
:1044E0008093860082B1806382B9D1CF6F927F9230
:1044F0008F929F92AF92BF92CF92DF92EF92FF92F4
:104500000F931F936C014B013A015901B901A701A7
:104510000E94650A86E893E0F60191838083C601D4
:10452000B401A3019501B2DE1F910F91FF90EF90AE
:10453000DF90CF90BF90AF909F908F907F906F90C3
:1045400008958F929F92AF92BF92CF92DF92EF9297
:10455000FF920F931F937C016B015A01490160E0A8
:1045600070E040E050E00E9418128CE993E0F701FF
:1045700091838083C701B601A5019401B4DE1F9128
:104580000F91FF90EF90DF90CF90BF90AF909F90F2
:104590008F9008956F927F928F929F92AF92BF9269
:1045A000CF92DF92EF92FF920F931F934BE6642E10
:1045B00042E6742EC30160E070E043E650E020E084
:1045C00030E000E010E0EE24FF2490DF3EE7832E91
:1045D00032E6932EC40160E070E04FE050E020E04E
:1045E00030E084DF21E9A22E22E6B22EC50160E090
:1045F00070E040E450E020E030E078DF94EAC92E3B
:1046000092E6D92EC60160E070E04BE050E020E079
:1046100030E06CDF87EB92E6B301A40195018601DF
:1046200090DF8CEF95E6C7DE86E096E86DE37EE2EC
:1046300046E056E620E030E20E94C60087E899E8AE
:1046400066E57AE447E857E820E032E00E94C600D9
:104650001F910F91FF90EF90DF90CF90BF90AF90A0
:104660009F908F907F906F900895CF93DF9380916C
:104670000A8B882311F581E080930A8B789484E07B
:104680009EE2D0D8EC018091088B9091098BC817DD
:10469000D90789F083E19EE29ED983E19EE26D2FE6
:1046A000AFD985E09EE2BE01FAD8D093098BC093C2
:1046B000088B0E94080B10920A8BDF91CF9108950E
:1046C0001F920F920FB60F9211242F933F934F9387
:1046D0005F936F937F938F939F93AF93BF93EF936A
:1046E000FF938091522290915322019690935322EE
:1046F000809352222091522230915322809104665D
:1047000090910566281B390B37FF03C03095219522
:104710003F4F295B3B405CF08DE39EE2B4DD80912E
:1047200052229091532290930566809304668DE304
:104730009EE285DD86E59AE482DD97DFFF91EF91C9
:10474000BF91AF919F918F917F916F915F914F91A9
:104750003F912F910F900FBE0F901F90189508C09A
:104760008DE39EE2B5DB682F86E096E80E94560155
:104770008DE39EE28BDB882399F708C086E59AE4F7
:10478000A4DB682F87E899E80E94560186E59AE441
:1047900077DB882399F708951F93182F8091322093
:1047A0008250823020F480E090E20E94C102D7DF84
:1047B000112321F08AE091E20E94740F1F91089565
:1047C0001F920F920FB60F9211242F933F934F9386
:1047D0005F936F937F938F939F93AF93BF93EF9369
:1047E000FF938091542290915522019690935522E7
:1047F0008093542280913120823021F480E090E235
:104800000E94BE04FF91EF91BF91AF919F918F9154
:104810007F916F915F914F913F912F910F900FBEBC
:104820000F901F901895F89484E090E060E070E09D
:104830004BE352E20E94970029E088E190E00FB636
:10484000F894A89581BD0FBE21BDFFCFFF920F93B5
:104850001F93F82E0DE31EE2C8016BED71E046E0F8
:1048600050E00E948B07C8016F2DCDDA1F910F9188
:10487000FF900895CF93DF93EC01888180FF11C0F2
:104880008981843071F482E1E1DF8DE39EE268E0AA
:10489000BADA8DE39EE268E0B6DA8DE39EE267EF76
:1048A000B2DA888180FF11C08981853071F482E19C
:1048B000CDDF8DE39EE267E0A6DA8DE39EE266E05F
:1048C000A2DA8DE39EE267EF9EDA888180FF2BC03B
:1048D0008981863041F58DE39EE261EE71E046E02C
:1048E00050E00E948B078DE39EE260E28CDA8DE35C
:1048F0009EE267E088DA8DE39EE267EF84DA80E487
:104900009CE90197F1F74091C7015091C80160916E
:10491000C9017091CA018DE39EE2C9D98DE39EE27F
:1049200062E870E07FDC888180FF0EC0898187307B
:1049300059F44091AB015091AC016091AD0170917F
:10494000AE018DE39EE2B3D9DF91CF9108958CEF54
:1049500095E62BDD8AE091E267EB72E60C947C1021
:104960000F931F9388EE93E020E931E0F90131972E
:10497000F1F70197D9F79BDD0E9413021ED984E05D
:104980009EE20E94121C8C0183E19EE224D883E106
:104990009EE2612F35D885E09EE2B8010E944F1C4F
:1049A0000093088B1093098B88E697E868EC70E217
:1049B0000E946518889ACBDF30DC02DC0DDC78942D
:1049C00081E0EADEFDCFCF93DF938AE091E260E001
:1049D0000E94A807C0E0D0E0CE01880F682FE091C8
:1049E0006F62F091706273E0EE0FFF1F7A95E1F74E
:1049F000EC0FFD1FE452FD498AE091E240810E94E4
:104A0000E80B2196C830D10539F78AE091E261E0E0
:104A10000E94A807C0E0D0E0CE01880F682FE09187
:104A20006F62F0917062319653E0EE0FFF1F5A955E
:104A3000E1F7EC0FFD1FE452FD498AE091E240816D
:104A40000E94E80B2196C830D10531F7DF91CF9154
:104A50000895CF93DF93EC01FB0190818A85882331
:104A600019F060E070E005C08181682F772767FD4D
:104A70007095892F992787FD9095680F791F4F852D
:104A8000588929893A898C819D810E9482168C835C
:104A90009D83DF91CF9108951F93CF93DF93EC0116
:104AA00010E08B8D9C8D009711F00E9488091F5F8C
:104AB00022961430B1F7DF91CF911F910895A8E0AD
:104AC000B0E0E4E6F5E2B4C0E82ED92EFFB6F894E3
:104AD0008E010F5F1F4FC8016BE07EE248E050E09F
:104AE0000E94FD1485E09EE20E94351CFFBE2E2D23
:104AF0003D2DC9017C01E9E0CE2ED12CCC0EDD1E6E
:104B0000F701A38DB48D109749F0ED91FC911197A9
:104B10000480F581E02DCD01B801099582E090E097
:104B2000E80EF91E0E5F1F4F0C151D0549F728965C
:104B3000E8E09AC0629FD001739FF001829FE00D70
:104B4000F11D649FE00DF11D929FF00D839FF00D0C
:104B5000749FF00D659FF00D9927729FB00DE11DB8
:104B6000F91F639FB00DE11DF91FBD01CF01112495
:104B70000895991B79E004C0991F961708F0961BB9
:104B8000881F7A95C9F780950895AA1BBB1B51E130
:104B900007C0AA1FBB1FA617B70710F0A61BB70BAD
:104BA000881F991F5A95A9F780959095BC01CD0152
:104BB000089597FB092E07260AD077FD04D0E5DF7C
:104BC00006D000201AF4709561957F4F0895F6F78E
:104BD000909581959F4F0895A1E21A2EAA1BBB1BA9
:104BE000FD010DC0AA1FBB1FEE1FFF1FA217B307B9
:104BF000E407F50720F0A21BB30BE40BF50B661FCF
:104C0000771F881F991F1A9469F760957095809592
:104C100090959B01AC01BD01CF0108952F923F9269
:104C20004F925F926F927F928F929F92AF92BF92BC
:104C3000CF92DF92EF92FF920F931F93CF93DF9368
:104C4000CDB7DEB7CA1BDB0B0FB6F894DEBF0FBEC5
:104C5000CDBF09942A88398848885F846E847D8412
:104C60008C849B84AA84B984C884DF80EE80FD8014
:104C70000C811B81AA81B981CE0FD11D0FB6F8948A
:104C8000DEBF0FBECDBFED010895EE0FFF1F0590F3
:0A4C9000F491E02D0994F894FFCF91
:104C9A005245512054494D454F55540041434B20EC
:104CAA0025622025620041434B2054494D454F550A
:104CBA00540054455354312041434B0054455354F6
:104CCA00312054494D454F555400544553543220D0
:104CDA0041434B0054455354322054494D454F5596
:104CEA0054005350454544414E53202562202562C5
:104CFA000044465400127A0000127A000024F4009C
:104D0A00007E96010048E801005A620200FD2C0369
:104D1A000090D00300B4C404008957060020A107FC
:104D2A000068890900F000203C0000242628292B6D
:104D3A002D2F3032343537393B3C3E127A0000127F
:104D4A007A000024F400007E96010048E801005A27
:104D5A00620200FD2C030090D00300B4C404008951
:104D6A0057060020A1070068890900F000203C00CE
:104D7A0000F000203C000080019001A001B001C0B9
:104D8A0002D002E001F102F201F302F6000004F29D
:104D9A00000000000000F505F605F7054F070000C2
:104DAA000000F505F605F705F80500000000AD0757
:104DBA00F6055B08C507000000001209560A2C0A0E
:104DCA004E097C0917091B096509150A000000002C
:104DDA001209560A8E094E097C0917091B09650929
:104DEA00150A000000001209560A2C0A4E097C090D
:104DFA0017091B096509150A00000000740F000055
:104E0A000000520B020D3C0B4F0B500B790B7A0B27
:104E1A007B0B7C0B7D0B7E0B860B890B0000000045
:104E2A003A0B020D00000000F6133911B5113A11C0
:104E3A003B113C113D114D113E1100000000C214FE
:104E4A009D13D2117E13AF1463134E1302133E1136
:104E5A0000000000C21439116014F713AF143C119A
:104E6A003D11F4133E1100000000F6133911F3133B
:104E7A003A113B113C113D11F4133E1100000000A0
:104E8A008918F6058219901800000000D019F71940
:104E9A0000000000C619CF1900000000F505F6054C
:104EAA00EB1BF80500000000201D231D561D631D85
:104EBA00341D000000001C1D1D1D1E1D1F1D0000AD
:104ECA000000191E8B07E21DE31D401F651FEF1D21
:104EDA00951A751AF21D000000007D1E8B07031F2C
:104EEA00121E461F681FEF1D951A751AF21D000043
:104EFA000000DF1D8B07E21DE31DEB1DED1DEF1DFD
:104F0A00951A751AF21D00000000D221F605FD213E
:104F1A00EF21000000001209560A29254E097C09D2
:104F2A0017091B096509E324000000005F253911F0
:0E4F3A009A2181214C253C113D11F4133E11AA
:00000001FF
